:020000040800F2
:1010000000500020516100084D6100084B6100084C
:101010004B6100084B6100084B61000800000000B4
:101020000000000000000000000000004D6100080A
:101030004D610008000000004D6100084D6100088E
:101040004B6100084B6100084B6100084B610008D0
:101050004B6100084B6100084B6100084B610008C0
:101060004B6100084B6100084B6100084B610008B0
:101070004B6100084B6100084B6100084B610008A0
:101080004B6100084B6100084B6100086D3000089F
:101090004D3000085D3000084B6100084B610008CE
:1010A0004B6100084B6100084B6100084B61000870
:1010B000851600084B6100084B6100084B61000871
:1010C0004B6100084B6100084B6100084B61000850
:1010D0004B6100084B6100084B6100084B61000840
:1010E0004B6100084B6100084B6100084B61000830
:1010F0004B6100084B6100084B6100084B61000820
:101100004B6100084B6100084B6100084B6100080F
:101110004B6100084B6100084B6100084B610008FF
:101120004B6100084B6100084B6100084B610008EF
:101130004B6100084B6100084B61000899300008C2
:1011400079300008893000084B6100084B610008C5
:1011500010B404466468084611461A46234610BC7B
:101160001847836818470000024B1B780BB103F047
:10117000CFBE70470806002010B51F4C00224FF468
:101180000171206801F0B3FF00224FF42D71206837
:1011900001F0ADFF00224FF41971206801F0A7FFA4
:1011A00000224FF42971206801F0A1FF00224FF4C2
:1011B0003171206801F09BFF00224FF469712068B3
:1011C00001F095FF002240F22441206801F08FFFDA
:1011D000002240F20451206801F089FF002240F211
:1011E0006C71206801F083FF20680022BDE8104088
:1011F00040F2091101F07BBF1806002008B5064B2C
:101200001B783BB103F0C0FC03F03CFDBDE8084097
:1012100003F04EBE08BD00BF0806002081880068AC
:1012200004F03ABB8188006804F038BBFEE710B5D3
:10123000044601780B2000F007FD0220B4F80310EB
:1012400000F002FD0E20B4F8051000F0FDFCE1797D
:10125000012001F00F01013100F0F6FCE3791B09D8
:101260000A2B03D101210C2000F0EEFCE0790009EB
:101270000C2804D1BDE81040002100F0E5BC10BDF1
:1012800008B50346B3F5317F084639D016D8B3F513
:10129000197F2FD008D840F20912934239D0B3F504
:1012A000017F21D0002008BDB3F5297F25D0B3F5FB
:1012B0002D7FF7D103F008FA174B18E040F20452E3
:1012C000934223D009D8B3F5697F1CD040F2244261
:1012D0009342E7D103F0DAFBE4E740F26C72934209
:1012E000E0D103F001FCDDE703F0A8F90B4B00228D
:1012F0001A80D7E703F030FAD4E703F099FAD1E780
:1013000003F016FBCEE703F099FBCBE703F0E4FB19
:10131000C8E7FFF78CFFC5E70006002002060020A3
:1013200038B50E2000F07AFC0F4B04461B780F4DA9
:1013300013B10020288038BD1B2000F06FFC062868
:10134000F7D12888A3B2984207D21C1A642C01DD79
:10135000643083B218462B80EDE7ECD9A4B2041BAD
:101360000A2CF7DD0A38F4E7040600200606002000
:10137000A64B2DE9F3479988186804F092FA04F017
:1013800099FAA34BA34C186800F015FC05F0A8FBD4
:10139000A14905F0ADFC01462D2000F063FC04F0EE
:1013A0005DFC01F0B3FB04F059FC01462C2000F079
:1013B0004BFC9A4801F0A9FA05F092FB984905F018
:1013C00097FC01460F2000F04DFC0B2000F026FC9E
:1013D000C0B2052816D8DFE800F003B11515C0D259
:1013E000012200258F4B90481A702570FFF71AFFD5
:1013F0008E48FFF713FF8E48FFF710FF29460D2098
:1014000000F022FC03F0E0FD4FF6FF72DFF82482CB
:10141000894FB8F800300D2093424FF6FF721CBF81
:101420000133A8F800303B88844E93421CBF01333F
:101430003B8000F0F3FB10F0020F00F0B2801820A8
:1014400000F0F4FB002105F047FD002800F0A98022
:101450004FF6FF723388934240F0A5800B20338013
:1014600000F0DCFB0428DFF8D89100F09F80002317
:10147000A9F800302378ABB103F0B0FB03F0C4FB54
:1014800003F0D8FB03F032FC03F044FC03F068FCEB
:10149000FFF746FF03F086FC03F0B8FC03F0CAFC3C
:1014A00003F0DAFC0B2000F0B9FB002843D0152034
:1014B00000F0B4FB824684B21D2000F0AFFBB8F808
:1014C000003005460A2B40F28F804FF001083B8820
:1014D0000A2B00F2998036881E2E94BF0026012622
:1014E000262000F09BFB0028D4BF00200120AD0087
:1014F000C4F3012405F00C052C4344EA081444EA23
:10150000461444EA80141C208DF805408DF804A090
:1015100000F08CFB404905F037FB05F021FD8DF80C
:101520000600002001F096FB03684FF484715C68AC
:1015300001AA0323A04702B0BDE8F0870123394A7E
:10154000394813702370FFF769FE3948FFF766FECC
:101550003648FFF767FE022151E704F07FFB0022C7
:10156000304B33481A7001232370FFF75BFE2E487F
:10157000FFF754FE2D48FFF755FE03213FE70123F7
:10158000284A00210D201370237000F05DFB2648CF
:10159000FFF744FE2548FFF741FE2548FFF73EFED2
:1015A00030E700235AE701339BB257E70C2000F0E5
:1015B00035FB00283FF45BAF0E2000F02FFB002826
:1015C0007FF755AF172000F031FB002105F084FCB8
:1015D00000283FF44CAF4FF6FF72B9F80030934249
:1015E0001CBF01339BB243E71B2000F017FB082808
:1015F0003FF46BAFB9F80080B8F1960F94BF4FF08D
:1016000000084FF0010862E7012669E78406002020
:101610001C0600200806002000002041A006002033
:10162000026B5F4304060020640600205C06002075
:10163000540600200206002000060020FE050020BF
:10164000FC050020082870B50DD0092815D10B4BDA
:101650001C6823681D6800F0E1FA2B46C1B22046E1
:10166000BDE870401847064B1C6800F0D7FAC1B2BD
:101670002046BDE8704002F023BA70BD1806002075
:1016800010060020014B186800F05EBA1C0600200E
:101690002DE9F041ADF6380D00F010F900F0A9F990
:1016A00000226849684801F071F9052265496748D8
:1016B00001F06CF9042308226549664800F0CDFE6C
:1016C000042310226249644800F0C7FE07234FF448
:1016D00000526249624800F0C0FE072304225949C3
:1016E000604800F0BAFE0723082256495E4800F021
:1016F000B4FE07234FF4004255495C4800F0ADFEAC
:1017000007234FF480425249594800F0A6FE0723B0
:101710004FF400524E49574800F09FFE4FF480525C
:1017200007234B49544800F098FE01F081F800F07F
:1017300005F94FF480414FF0007004F0A3F800F079
:1017400063F900F03DF901F0B3F94C4B0920039324
:101750004B4BBEAC04934B4B4B4D059300F05EFAE4
:101760000123C2B24949204601F0C8FB0DF254568C
:101770002C6000F02FF903A9286801F0A9FCFFF7FD
:10178000FBFC21460122304602F018F9404F414B44
:1017900010AD32461E6021463E6028463E4E02F0A5
:1017A00065F90820356000F039FAC1B2284602F028
:1017B00087F906AC3A68394B4FF0804120461A60F1
:1017C00000F06AF9364B0DF1CC081C60012340464D
:1017D000CDE90033334A00233349344F00F0E4FAB3
:1017E000642220463249C7F8008000F077F932229F
:1017F0002046304900F072F90A2220462E4900F0B6
:101800006DF904210A2000F01FFA4FF0000895F846
:1018100088408DF80B8004B130AC386800F080FC53
:101820003068436923B90DF10B01043002F0A2FCCA
:10183000002CECD0204602F059FB2146284602F04D
:1018400062F9E4E700080140A4060020A006002099
:10185000000C0140940600208C060020001001407E
:10186000840600207C060020740600206C06002000
:10187000640600205C060020540600204470000826
:101880008112000879110008180600200064004049
:1018900014060020F006002010060020EC060020B0
:1018A0001C0600201C8D0008004800400C0600208B
:1018B0007113000869110008FD11000808B504F053
:1018C00007F94FF0E0231C4A40F20230C3F80C2D18
:1018D00004F042F940F2033004F03EF94FF4417055
:1018E00004F03AF940F2053004F036F940F20E30D7
:1018F00004F032F940F2923004F02EF94FF46070A7
:1019000004F02AF940F2813004F026F94FF42070F7
:1019100004F022F940F2093004F01EF940F286206A
:1019200004F01AF94FF4407004F016F9BDE80840CD
:1019300040F2993004F010B90003FA05F0B597B001
:1019400003F032FE044600F5FF3000F2FD101422D1
:101950000021850201A800F07AFD4FF49033154A6A
:101960001549CDE90123154BCDE9031303F000FE22
:10197000142101A803F00AFE15902B6D834217D0A5
:1019800003F024FF284603F0DDFE15266FF0030761
:10199000A40204F1006401ADA4F6AC3407FB0640D8
:1019A00055F8041B03F02CFF013EF7D103F01AFF9A
:1019B00017B0F0BD00100140000C0140060001000E
:1019C00008B51C2004F030FCBDE80840E0211C20D4
:1019D00004F036BC08B5E021132004F031FCE0210E
:1019E000142004F02DFCBDE80840E021152004F08F
:1019F00027BC08B503204FF2234104F067F9BDE886
:101A00000840002004F034B908B54721214804F00B
:101A100098F94FF6FF711F4804F095F91D4804F03E
:101A200081F904211B4804F021FB0121194804F02D
:101A300014FB5021174804F021FB0F220021154808
:101A400004F0ABFA0F220121124804F0A6FA012299
:101A50000021104804F0C9FA01220E48114604F092
:101A6000C4FA00210B4804F036FA0221094804F0B8
:101A700057FA0021074804F0E9FA0121054804F06B
:101A8000E5FA0448012104F080FABDE80840014865
:101A900004F04DB90004004038B50C46054601621B
:101AA000084604F03AF9204604F03CF9094B204678
:101AB0001968094B4900B1FBF3F1013904F041F910
:101AC00020464FF6FF7104F03EF9002328466B6272
:101AD00038BD00BFF8050020A0860100F8B5436AB4
:101AE0000446032B0E4615462ADC006A04F024F94E
:101AF000144F636A0122F95C206A04F026F9636AD4
:101B00000022F95C206A04F030FA0221636A05EBD6
:101B1000850505EB850503F10802AD0044F8236057
:101B2000994024F81250206A04F0EAF80021206A53
:101B300004F031FA206A04F0FAF8636A0133636250
:101B4000F8BD00BF4C7000082DE9F843044600259D
:101B50004FF0020800F11006636A08FA05F7AB427D
:101B60000ADC3946206A04F0D5F80135042D06F167
:101B70000206F1D1BDE8F8833946206A04F0C4F8C2
:101B8000A8B1206A04F005FA236A3188343353F887
:101B9000252081460A4443F8252054F825309847EB
:101BA000206A04F0F6F9A0EB09003081D9E7636AF6
:101BB000AB42DADCD5E7002170B500F10E03446AD0
:101BC0004FF47A7508468C4200DC70BD5A8933F8B0
:101BD000026F6A43B2FBF6F201311044F3E70000F2
:101BE00010B51C24084A04FB0022D4688C4209DC8E
:101BF00012698A4206DB054A42F82010FFF722FDEF
:101C0000002010BDFF20FCE7B800002000000020ED
:101C1000014B53F82000704700000020024B53F89E
:101C200020004011704700BF0000002008B5054BA0
:101C300053F8200004F054FF4FF0745104F0A4FF57
:101C400008BD00BF00000020024B490143F82010EE
:101C5000704700BF00000020014B43F82010704780
:101C60000000002010B5044608464FF0844104F0FF
:101C70008BFF05F04FF9024B43F8240010BD00BF65
:101C80000000002070B506460024074D3146686804
:101C900000F03EFB08B9E0B270BD01342E2C05F116
:101CA0001C05F3D12F20F7E7B80000200023064AD7
:101CB000118B814201D1D8B2704701332E2B02F132
:101CC0001C02F5D12F207047B80000201C22024BC7
:101CD00002FB0030704700BFB80000200023064A16
:101CE0000649108B10B1506941F8230001332E2BA7
:101CF00002F11C02F5D17047B8000020000000205E
:101D0000014B1954704700BF20060020024B1A5C9B
:101D100011431954704700BF20060020024A135C8B
:101D200023EA01031354704720060020014B185C7E
:101D3000704700BF200600201C22024B02FB00332C
:101D4000987E7047B800002000487047F01B0100E3
:101D5000024B1A68024BC3F8BC247047E005002010
:101D6000B80000202021806804F0E9B9806804F000
:101D7000DEB910B504464368597A586803F078FC18
:101D8000636804F12A02597A586803F083FC636897
:101D90008022597A586803F08DFC6368BDE81040D2
:101DA000597A586803F05BBC70B5026140F20112C9
:101DB0000D464D498282016001210022817580F823
:101DC000281004460421C0E9062280F8202042623F
:101DD0009DF81020856080F829209DF81420037359
:101DE00080F82A22414A42601068A84203D01C327F
:101DF00001396260F8D13E490C60002B70D0506907
:101E0000138B0222032103F007FD28464FF4E13132
:101E100004F03CF92846082104F04AF928464FF41A
:101E2000005104F04EF928460C2104F056F92846DA
:101E3000002104F04CF90021284604F054F928460A
:101E400004F067F9284604F069F963682E1D197AD1
:101E5000586803F0AFFB6368197A586803F0F6FB23
:101E600063683246197A586803F00BFC63680022F5
:101E7000197A586803F0C8FB63680022197A586819
:101E800003F0B6FB6368197A586803F0C9FB63680E
:101E9000597A586803F08EFB63683246597A58685D
:101EA00003F0EFFB63680022597A586803F0ACFB3B
:101EB00063680022597A586803F09AFB6368597A7C
:101EC000586803F0ADFB63685868597A03F0C7FBA4
:101ED0002046FFF74EFF284604F00BF9204670BD60
:101EE000D068138A8DE700BFA88C0008AC8C00086E
:101EF0005006002038B5437D0D4604691BB9002407
:101F0000204638BD0834216821B1284600F000FA87
:101F10000028F7D12368002BF2D1F0E738B504464A
:101F20000D4663680222197A586803F058FB18B905
:101F300094F82830002BF4D06368197A586803F0BD
:101F400097FB6368AAB2197A586803F0B3FB94F858
:101F50002020636804EBC212197A5868AA3203F091
:101F600099FB63680222197A586803F033FB6368AF
:101F7000197A586803F073FB94F82030B3FA83F3AE
:101F80005B0984F82030002384F8283038BD837D35
:101F900010B50A46044623B9BDE81040806804F035
:101FA000ADB894F82030406ADB01234403440A2A88
:101FB00000F1010183F8AA2001D07F2805D1204635
:101FC000FFF7ACFF0023636210BD6162FCE7802A6B
:101FD00030B428BF80220C460021914202D130BC8F
:101FE000FFF79CBF90F82030655C00EBC3130B44F7
:101FF00083F8AA500131F0E738B5054608460C468B
:1020000000F09DF9214602462846BDE83840FFF71A
:10201000DEBF000010B50446084600F0E3F900F00A
:10202000C8F9217D227B8142636811D1012161754C
:102030005AB158691B8B0321022203F0EDFB2046A5
:10204000BDE810400949FFF7D7BFD8681B8AF2E7FF
:10205000002161753AB158691B8B0122BDE810401F
:10206000002103F0D9BBD8681B8AF6E7BA870008BD
:1020700030B5044685B0084600F0B4F90378302B3B
:1020800026D0322B144D18BF4FF46125637DA3B1C8
:102090000A22294601A800F061F920460F49FFF7FE
:1020A000ABFF20460E49FFF7A7FF204601A9FFF727
:1020B000A3FF20460B49FFF79FFF2946A06803F0C6
:1020C000E5FF0021A06805B0BDE8304003F0F9BF8E
:1020D0004FF4E135DAE700BF10552200B987000858
:1020E000BF8700084F8C000810B50446084600F072
:1020F00079F9037823B1303B18BF012384F82930E4
:1021000094F829302BB104492046BDE81040FFF770
:1021100073BF0249F8E700BFCE870008D8870008E0
:102120002DE9F04143680446597A586803F0BBFA38
:102130000546C0F1800710B92046FFF71AFE94F853
:102140002930A06813B1E369BB4256DB082103F0D4
:10215000F6FF10B1A06803F0EAFF002F40F39C8067
:10216000651B95F8A9300A2B02D00D2B40F0818019
:102170006368597A586803F07BFA012F38D000223F
:10218000E31904F12A0683F82A2020213046E2616F
:1021900000F0DCF890F800800546B8F1000F34D16B
:1021A0000A21304600F0D2F8054684F8AA812B783F
:1021B00023B90D21304600F0C9F80546002330460A
:1021C0002B703649A36100F0A3F820BB204604F52C
:1021D000D571FFF71FFF0027A369002B3FD0A06830
:1021E00003F0A9FFA36920465B6804F5D571984701
:1021F0002046BDE8F041FFF7BCBD5A1CE261234414
:1022000093F82A1003F07AFF99E7411C04F5D57082
:1022100000F08CF8CBE73046214900F079F868B936
:1022200094F82A322BB1204604F5D571FFF720FF30
:10223000D1E720461B49FFF7DFFECCE730461A49BD
:1022400000F066F828B9204604F5D571FFF74CFF79
:10225000C1E731462046FFF74DFEA061BCE7012FE4
:10226000C6DD637D002BC3D020461049FFF7C4FEB6
:10227000BEE794F82A30212B0ED1A36963B1204622
:10228000FFF777FD0023E361A369204604F5D571CC
:102290005B68BDE8F0411847BDE8F081E3870008BE
:1022A000EE870008F78700081088000815880008E6
:1022B000034BC1B21B681A6818461268104700BF6A
:1022C00050060020704700F057BC000007B50749D2
:1022D000D1F8F027D1F8EC37D1F8E817009104498C
:1022E00000F098FA03B05DF804FB00BF00F0FF1F98
:1022F0003088000810B50446FFF7F0FC2046BDE822
:102300001040014900F086BA4188000801F032BF50
:10231000431E013913F8010F11F8012F10B10AB152
:102320009042F7D0801A18BF01207047013911F888
:10233000013F0BB90370704700F8013BF7E7034614
:1023400000201A5C02B970470130FAE703461846CC
:1023500013F8012B0AB18A42F9D17047002970B5F0
:1023600018DA2D23012400F8013B4942034691FB72
:10237000F2F602FB161130311970311E1D4603F1C1
:102380000103F4DC00221A700246AA420AD3241A7E
:10239000181904E004D1302341700370012070BD8E
:1023A0000024E3E711782E7802F8016B05F8011993
:1023B000EBE730B503782D2B11D14FF0FF3401300E
:1023C00000210A25431E01E005FB012113F8012F1E
:1023D000303AD0B20928F7D904FB01F030BD01240E
:1023E000EEE7000010B5134C014610F8012BA2F1E6
:1023F0000A03DBB2162B19D824FA03F3DA07F3D455
:102400000846FFF79CFF01380844814204460AD27F
:10241000237801380A3BDBB2162B04D8054A22FA8E
:1024200003F3DB07F1D40023637001E0002AE7D156
:10243000084610BD09004000002310B5934200D1AA
:1024400010BD51F8234040F823400133F6E7013A2C
:1024500000D2704740F8041BF9E72DE9F041174618
:1024600082800022013B0E4601608271082B0BD84E
:10247000DFE803F0080E0C18150524261A000024C6
:10248000002513E0012383710224F9E701238371FE
:10249000022400253946304603F0FEF906E0012407
:1024A0008471EDE70124EBE7022403253B46224635
:1024B00029463046BDE8F04103F0AEB90024F4E708
:1024C00001240325E6E700004FF40042014B1A8087
:1024D000704700BF9C06002070B50C1EACBF0123E6
:1024E0004FF0FF335C430133064608BF2D234FF006
:1024F000640208BF06F8013B611104F01F040546A1
:10250000544330460A22FFF729FF2E226411092C7A
:102510003254D8BF302206EB0003D8BF5A70214690
:102520004FF00A02CCBF581C981CFFF717FF284633
:1025300070BDF0B503782D2B17D14FF0FF36013069
:1025400000244FF00A0C02E018460CFB045403462A
:1025500013F8012BA2F13005EFB2092FF4D9AAB973
:102560008C40144406FB04F0F0BD0126E8E78B40E4
:1025700003EB650393FBF5F30CFB05F51A4410F828
:10258000013F303BDFB2092FF1D9E9E70A250022EC
:10259000AC46F4E72DE9F047141E05460F4616DC5D
:1025A0004FF02008DB0720D50026B94626E001328F
:1025B000B95C0029FBD1A242ACBF0C46A41A13F0AF
:1025C000020F14BF4FF030084FF02008EAE7002256
:1025D000EEE72B68494628461B689847013E002EC7
:1025E000F7DC24EAE476A41BDFE726465FFA88F9E5
:1025F000F5E72B6828461B689847D146CA461AF863
:10260000011B0029F5D1A2465FFA88F8BAF1000F44
:1026100006DCF01B4844002CA8BF0019BDE8F08779
:102620002B68414628461B6898470AF1FF3AEDE7B8
:102630002DE9FF470746DDE90C8A15461C4651B9CE
:1026400030234246ADF8003069465346FFF7A2FFFB
:1026500004B0BDE8F08723B10A2A2DD100292BDA76
:10266000494200230E9A8DF80D303A3A0DF10D03D0
:10267000B1FBF5F005FB1016092E88BFB6183036F1
:102680008D4203F1FF3903F8016C17D964B1B8F139
:10269000000F16D01AF0020F13D03B682D213846D8
:1026A0001B68984708F1FF3853464246494638466A
:1026B000FFF770FF2044CBE70024D2E701464B46EA
:1026C000D6E72D22002409F8012CA3F10209EBE73B
:1026D0000846FFF7EDBD00002DE9F04107460E4624
:1026E000144600254FF00A088CB0317819B92846F5
:1026F0000CB0BDE8F081252972D171780029F6D09F
:10270000252906F101026AD02D290ABF01230023E1
:10271000B21C164612F8011B302915D00022304693
:1027200010F8011BA1F1300C5FFA8CFEBEF1090F0D
:102730000DD966293FD00ED8632947D064291AD015
:1027400058292ED00136D0E743F00203E1E70646D0
:1027500008FB02C2E3E7752926D0782919D073292E
:10276000F0D1216821480434002908BF01463846C9
:10277000FFF710FF0BE061202146CDE90130012376
:1027800000920A22384609680434FFF751FF0544D5
:10279000D8E721466120CDE90130009200231022C4
:1027A000F0E721464120F6E761202146CDE90130DE
:1027B00000920023E5E7216808A8CDE9042304344A
:1027C000FFF78AFEDDE9042308A9D0E72168043475
:1027D0008DF81C1000218DF81D1007A9C7E71646BB
:1027E0003B6838461B6898470135ABE7938800087B
:1027F0000FB407B504AA52F8041B054B6846CDE98F
:102800000032FFF769FF03B05DF804EB04B07047D6
:10281000948D00080EB403B503AA52F8041B01926C
:10282000FFF75AFF02B05DF804EB03B070470000F9
:1028300008B5294802F052FC274802F054FC26480B
:1028400002F05BFC244802F053FC0721224802F00E
:1028500030FC214802F0F4FB1F4802F00DFC1E483A
:1028600002F01DFC1D4A02211B4802F04BFC1A48D5
:1028700002F080FC4FF46021174802F0F3FB0121C5
:10288000174A184802F0FDFE0121174A154802F0C8
:1028900001FF4FF480720121124802F0B5FE4FF49F
:1028A000806201210F4802F0A3FE182201210D4889
:1028B00002F000FF01210B4802F0B2FE012109489D
:1028C00002F0B7FE0748012102F0C9FEBDE808404A
:1028D000014802F045BC00BF00240140D80600209A
:1028E0004C24014000000240A8060020884205DD7B
:1028F000914208DC9042A8BF10467047904203DC2A
:102900009142A8BF11460846704737B56D46046826
:1029100004F10C033C3433F8042C33F8081C33F86E
:102920000C0CFFF7E3FF0C33A34225F8020BF2D1A6
:10293000BDF80230BDF800001844BDF8043018445A
:10294000BDF806301844C0F38F0003B030BD00005E
:1029500008B50D4B98420BD003F5806398420BD01D
:10296000A3F5006398420BD1072909DCC8B208BD62
:10297000012905DC0831F9E7052901DC0A31F5E711
:1029800002F066FB1020F2E7000C0140012370B555
:1029900093400D46164600220446114628469BB237
:1029A00002F03AFF054B246831462846E41AFFF747
:1029B000CFFF034BC4F34F04185570BDA806002089
:1029C000D8060020034B044A1360044A0233136004
:1029D000704700BFA8060020A4060020A006002023
:1029E0002DE9F04FADF20C4D02F0DEFDFF2705465C
:1029F0004FF0FF3A6FF00302840202FB074303F13A
:102A0000006353F8043C013F0AEA030AF5D202AE20
:102A100002F0AEFD39464FF480723046FFF717FDE5
:102A2000B04637464FF000095FFA89FB5846FFF77A
:102A300083F970B95846FFF749F901905846FFF7F6
:102A400075F9019BF8701B8B58463B80FFF7E0F847
:102A5000786009F10109B9F12E0F07F10807E3D1F8
:102A6000FE21304602F092FDC6F8F80302F0AEFEF9
:102A7000BAF1FF3F06D005F5FF3000F2FF108002EB
:102A800002F060FE002504F10064A4F58064601982
:102A900058F8041B043502F0B3FEB5F5806FF6D18B
:102AA00002F0A0FED6F8F8030DF20C4DBDE8F08F51
:102AB00070B502F079FD00F5FF3404F2FF14A402B2
:102AC00002F056FDFE21204602F060FDD4F8F833F6
:102AD000834217D104F57E762088FFF7E7F82F2888
:102AE00005460AD0FFF728F938B928466168FFF78C
:102AF000B3F82846E178FFF703F90834B442EBD184
:102B0000002070BD4FF0FF30FBE70000014B186064
:102B1000704700BFDC0600200328034607D8054A9B
:102B200002EBC001486818B112F83300704700206A
:102B3000704700BFC005002003289DBF024B03EB78
:102B4000C003586800207047C0050020074B10B430
:102B500003EBC1021479064A53F8313052F82420AD
:102B6000014610BC0348FFF743BE00BFA48D000818
:102B7000988D00089A88000838B5094C636853B1ED
:102B80000025606830B114F8081B0135FFF7DEFF3F
:102B9000042DF6D138BD0348BDE83840FFF728BE04
:102BA000C0050020AA88000830B50C24002361432A
:102BB0000B4A8BB054185258A568CDE90332CDE9C1
:102BC0000733CDE90133646806950594009301222B
:102BD0001946D0F8580202F0DFFA0BB030BD00BF42
:102BE000D08D0008F7B504460E4615461F4672B64E
:102BF0000121D0F8580202F0E2FBCDE90075B6F5EC
:102C0000006F34BF0022012200233146D4F858025D
:102C100002F0DAFB002818DAD4F85402132807DD92
:102C20000121D4F8580202F0C6FB62B603B0F0BD31
:102C300004EB0012C2E945672B680130C2F81C3171
:102C40006B68C2F82031C4F85402D4F85432002B17
:102C5000EBDDE5E70128DABF024B53F82000002046
:102C6000704700BFE0060020F0B5044600278BB097
:102C7000CDB20DF11A0303930DF11B0302930DF175
:102C80001903019308AE06AB009305970496012241
:102C90002946D4F8580207AB02F00DFC08B90BB076
:102CA000F0BD324620469DF81A30079900F052FADE
:102CB00002F0D4FFC4F8F800DBE7F7B504466FF084
:102CC000704640F2FF7700F58A75D4F85432002B35
:102CD0001CDD33441A0105EB0313A95803F1080264
:102CE00001921B79B942009398BF00224FF0000374
:102CF00088BF0122D4F8580202F066FB0028D4F8FD
:102D0000543203DB013BC4F85432DEE7D4F85432CA
:102D10003BB90121D4F8580203B0BDE8F04002F0FD
:102D20004EBB03B0F0BDF0B51C4626880F467601B9
:102D3000B1B20126106885B09B881546628802965C
:102D400006400196E6885B017601B6B252019BB25D
:102D500092B2009602F012FB00233B602A68013217
:102D60002A60E380A3806380238005B0F0BDF0B5C6
:102D70001C4626880F467601B1B20126106885B040
:102D80009B8815466288029606400196E6885B019C
:102D90007601B6B252019BB292B2009602F0DEFA10
:102DA00000233B602A6801322A60A380238040F21E
:102DB000FF73E380638005B0F0BD73B510681546FE
:102DC0000E465A6819681C460123D200C9000093B8
:102DD00042F00402034041F0040102F0DFFA002354
:102DE00033602A6801322A60C4E9003302B070BD42
:102DF0000023F0B50026044607463D4A8BB0CDE9D6
:102E000006223C49D0F85822CDE908338A42CDE960
:102E10000433CDE9003302931CBF374BD3F8003A9B
:102E2000C2F81C6218BFC3F305230393D4F8F4302F
:102E3000DDE90025B3421ADC002A05DD694620469B
:102E400004AB03AAFFF76FFF002D05DD204606AB9C
:102E500003AA02A9FFF78BFF029B002B05DD20468A
:102E600008AB03AA02A9FFF7A8FF0BB0F0BD57F803
:102E7000043FB3F5006F26D3029A0AA901EB820141
:102E800023F06043013241F8083C0292009B042B7E
:102E900005D16946204604AB03AAFFF744FF019B16
:102EA000022B05D1204606AB03AA01A9FFF75FFF5D
:102EB000029B022B05D1204608AB03AA02A9FFF70B
:102EC0007CFF0136B2E7B96F9BB249B10AAA02EBA7
:102ED000450222F8103CAB1C019322F80E1CD5E7EA
:102EE0000AA901EB4201013221F8183C0092CDE71A
:102EF0000000FF070064004000600040F8B5044691
:102F00000E461D46174600F0CFF800214A4BC4E993
:102F100095162360494B9E421AD003F580639E426A
:102F200053D0D4F8580202F02BF939462046FFF767
:102F30003BFE2046FFF75CFFD4F85802022102F066
:102F40003AFAD4F85802102102F035FA2046F8BDBA
:102F50004DB34FF480730222394802F05DFC4FF408
:102F60008071374802F098FC4FF40073022203216D
:102F7000334802F051FC142003F056F9F0211420DC
:102F800003F05EF9152003F04FF9F021152003F04E
:102F900057F9132003F048F9F021132003F050F9FA
:102FA000284B1C60BDE74FF40063022229462648E7
:102FB00002F032FC4FF40061234802F06DFC4FF444
:102FC0008053022203212048D3E735B32023022275
:102FD0001B4802F021FC2021194802F05DFC40232F
:102FE00002220321164802F017FC402003F01CF9CE
:102FF000F021402003F024F9412003F015F9F021DD
:10300000412003F01DF93F2003F00EF9F0213F208D
:1030100003F016F90B4B5C6083E74FF480530222F8
:103020002946074802F0F8FB4FF48051044802F0AB
:1030300033FC4FF40053D3E7C48D00080064004014
:10304000000C0140E006002000080140024B002176
:103050001868FFF709BE00BFE0060020024B0121FF
:103060001868FFF701BE00BFE0060020014B18689A
:10307000FFF723BEE0060020024B00215868FFF74F
:10308000F3BD00BFE0060020024B01215868FFF7A6
:10309000EBBD00BFE0060020014B5868FFF70DBEF6
:1030A000E006002070477047074A02600022C0F81F
:1030B000F420C0F8FC20054AC0E94022C0E94222C1
:1030C000C0F81021704700BF148E0008E4050020EE
:1030D000D0F8FC30042BDFBF03F14002013340F88D
:1030E0002210C0F8FC30D4BF012000207047D0F877
:1030F000F43070B51D2B15DC05460024A3420BDC13
:1031000000EB83046160E2670133C0F8F4300368C8
:103110009B689847012070BD55F8046F8E4201D01E
:103120000134EBE70020F6E770B50646002456F8B8
:10313000FC3BC0F8F4409B6805469847D5F8FC3046
:10314000A34200DC70BD56F8040F013403685B68CD
:103150009847F3E72DE9F04704460E461746984690
:10316000002500F1FC09D4F8FC30AB4201DCBDE8DD
:10317000F08759F8040F3A4603683146D3F800A0A7
:103180004346D0470135EEE7F8B5054600F1440760
:1031900000F1480414F8023C2646322B10D034F8D3
:1031A000043C0022C3F3C02123F40063686803EBEE
:1031B0004171F61BFFF79BFF382E04F10404E9DD93
:1031C000F8BDF0B591B102F111040F2A00EB8404AF
:1031D0000AD8A578322D07D00C27002107FB05055A
:1031E00080356E7AFF2E03D1002007E0941CECE7B7
:1031F0000BBB21B14E72FF2301206B72F0BD322E4A
:1032000015D1C2F10F02A61E914204D04B1C16F834
:10321000230032280DD10139C9B204EB81039A7819
:10322000A27034F82120228032229A70E3E7A6703F
:10323000E1E71946E8E707FB0606013B2946DBB252
:1032400006F18005CDE72DE9F0438C464FF0020EE4
:1032500000214FF00C0800F108073D4600220CE069
:10326000002308FB04048034667AFF2E0FD1043556
:10327000EB1B0132382BD2B202DCAC78322CEFD10E
:1032800001218E4500F1440711D08E46E5E7A48860
:1032900003F10109644505D008FB06064B4606F11B
:1032A0008004E1E7DBB2BDE8F043FFF78ABF00200E
:1032B000BDE8F0832DE9F04100244FF00C0EDDF85D
:1032C00024C000F108078CF800403D4609E00EFBE1
:1032D00004048034667AFF2E11D10435EC1B382C9F
:1032E00002DCAC78322CF2D101259CF8004000F1D0
:1032F00044078CF80050002CE7D0002019E0B4F807
:103300000480884517D12988C1F3C02021F40061C9
:1033100041EA407101201160E2791A7094F90820A5
:10332000069B1A702268079B1A6094F90620089B76
:103330001A70BDE8F0810EFB060606F18004C9E7AD
:1033400030B5044691B102F111010F2A04EB81015D
:103350000AD88A78322A07D00C2505FB024202F1EE
:103360008000427AFF2A03D100200BE0911CECE799
:103370004BB90B88C3F3C02223F4006343EA4273C2
:10338000039A136030BD013BDBB2E6E72DE9F04F55
:1033900005464FF0020A4FF000084FF00C0B87B0C3
:1033A00000F14403049100F1080705933E1D16F84F
:1033B000024CB146322C1AD127E036F8040C94F9AD
:1033C0000830E27920F4006CC0F3C0212079CDF8F8
:1033D000088094F906E04CEA4171CDF804E0D4F895
:1033E00000E0DDF810C0CDF800E0E047647A0BFBA8
:1033F000045494F889308034FF2BDED1A9EB0709FF
:10340000B9F1380F06F10406D1DD4FF00108C245CD
:10341000059F01D0C246C9E707B0BDE8F08F322250
:1034200001F13C038A7004319942FBD1FF2200F57F
:10343000197380F889200C309842FAD1704710B582
:10344000044600F10801FFF7EAFF204604F14401B9
:10345000FFF7E5FF6068BDE81040FFF765BE2DE9A6
:10346000F041002488461F462646151FBC4202DB59
:103470003046BDE8F08155F8040F02F081F8296864
:10348000064608EB840002F0BBF90134EEE708467B
:103490008378322B08D00388534033F4006304D080
:1034A0000430431A382BF3DD002070472DE9F84330
:1034B000424B06461B78154683B90A4600F1440183
:1034C000FFF7E5FF50B10C2301274FF084488478C3
:1034D00003FB04648034637AFF2B01D1BDE8F883D9
:1034E00094F908C0E3798CEAEC71A1EBEC71BCF1C2
:1034F000000FC9B244DA1F2B2CD82A6812BAC3F1C4
:103500001F03DBB207FA01F0DA400138104003F084
:10351000E3FA814694F9060003F0E2FA494603F023
:103520002BFA216803F030FB81462079FEF704FC7A
:10353000002839D14146484603F026FB03F0EAFC57
:1035400001462079FEF74CFB0C23647A03FB0464EC
:103550008034C0E79C44BCF11F0F6A6802DD203B49
:10356000DBB2CBE7013328685B1A03F0FF03D840D6
:10357000C3F1200302FA03F340EA03024B1EEFE714
:103580001F2B02D96A68203BBBE79C44BCF1200F8B
:103590002A68B7DD6868C3F1200CDA4000FA0CFC39
:1035A00000234CEA0202ADE72079FEF7C5FB0128B3
:1035B000C0D049462079FEF755FBC5E7E806002054
:1035C0002DE9F8439DF92470904606461A469DF869
:1035D0002090002F5AD087EAE773A3EBE773DBB2A2
:1035E000202B53D8002F06DD09EB0703402B09DD04
:1035F0006FF0010017E0B9F13F0FF9D809EB0703AD
:103600000133F5DB3046FFF742FF002842D10C467C
:1036100001F13C03A5782046322D3AD004349C4277
:10362000F8D16FF00300BDE8F8830134322C35D1B6
:103630006FF00400F7E75D4305F18002354495F82B
:1036400089503244322DF6D103FB04630A9EA3F85D
:103650008480C3F880609DF92C6083F8879083F89C
:10366000866083F8887083F88950E4B262B9847008
:103670000B4600209A78322AD5D004335A1A382AB9
:1036800000F10100F6DDCEE75472F1E76FF00200C1
:10369000C9E7228000240C2506F1890205FB04F30A
:1036A000D35CFF2BC1D100220C238578CAE730B54B
:1036B000B2F5006F85B010D29DF928500395099D91
:1036C00002959DF92050CDE9003513460A4600F1D8
:1036D0000801FFF775FF05B030BD4FF0FF30FAE786
:1036E000F0B51446C2F3407522F00052B2F5006FF7
:1036F000064685B018D29DF9307003970B9F02974C
:103700009DF92870CDE9003742EAC5230A4600F149
:103710004401FFF755FF0022054621467068FFF778
:10372000E6FC284605B0F0BD4FF0FF35F9E72DE97E
:10373000F04F07460E468BB0CDE9082301F1320564
:103740004FF6FF7335F8322CA8469A423DD0A5F1CA
:10375000300AA5F12A0414F9013CA146002B2DDD05
:1037600034F8060CFEF7A2FA3B680790049335F88C
:10377000323C34F9040C059314F8023C14F901BCF2
:10378000069303F0ADF9099A034622B14FF0745144
:1037900003F0FAF9034600220293069B039200937A
:1037A0000498059BCDF804B0DDE90721FFF708FF79
:1037B000A9EB0A032A2B04F10604CCDDA8EB0603CF
:1037C000B3F5E17F05F13205BADD0BB0BDE8F08F4E
:1037D00008B501F0E9FE00F5FF3000F5FF7080024A
:1037E00008BD73B505460190FFF7F2FF0446D0F817
:1037F000E86301F0BDFEFA21204601F0C7FE8642D3
:1038000011D10023214605F1080201A8FFF78FFF1F
:1038100001A8012305F1440204F5FA71FFF787FFBF
:10382000012002B070BD0020FBE72DE9F041064603
:103830000F460D464FF00C08AC78322C06D110E044
:103840002079FEF743FA038BA380647A08FB0464B3
:1038500094F889308034FF2BF2D10435EB1B382BE0
:10386000EADDBDE8F0812DE9F04106460F460D4640
:103870004FF00C08AC78322C05D10FE0A088FEF791
:1038800015FAA080647A08FB046494F889308034C7
:10389000FF2BF3D10435EB1B382BEBDDBDE8F081BA
:1038A0002DE9F3410446FFF793FF01220546034645
:1038B0004FF0FF36264F3A7000F5806253F8041B34
:1038C000934206EA0106F9D101F052FE01F07EFFB3
:1038D000022001F071FF013602D0284601F032FFCC
:1038E00004F1080804F1440641462046FFF79DFF15
:1038F00031462046FFF799FF424629460F232046CE
:10390000FFF7ADFD324605F13C010F232046FFF7DE
:10391000A6FD04F1800205F1780196232046FFF709
:103920009EFD012301AA05F5377101902046FFF79E
:1039300096FD01F057FF41462046FFF794FF3146C0
:103940002046FFF790FF00233B7002B0BDE8F081F6
:10395000E8060020F8B50446FFF73AFF0546D0F820
:10396000DC6201F005FEB421284601F00FFE86421C
:1039700004D02046BDE8F840FFF733BF04F1080744
:103980002946384604F144060F22FEF755FD30461D
:1039900005F13C010F22FEF74FFD962205F178015B
:1039A00004F18000FEF748FD39462046FFF75BFF33
:1039B00020463146FFF757FF0120F8BD38B50446D1
:1039C00015460D4B0846C4E900312146FFF780FB40
:1039D000204604F10801FFF722FD204604F14401CE
:1039E000FFF71DFD15B12046FFF7B4FF2046FFF796
:1039F000CBFB204638BD00BF388E000810B504460A
:103A0000017C002201F5C0618068FFF770FB617CDA
:103A10003F2907D8A0680022BDE8104001F5B06139
:103A2000FFF765BB10BD036E9BB14FF47A7303665D
:103A3000826DC36D9A4202D1036E002BF8DC836D58
:103A40005A1C03F03F030344826519764FF0FF339D
:103A500043617047A0F10400FFF7E5BF036810B4AD
:103A60005C680823A44610BC6047000010B50446FB
:103A7000124BE26023601433C4E901314FF6017345
:103A800023824FF0FF33402263610023A365E26588
:103A90004FF47A7222662F22A36684F8642084F899
:103AA0007830E36784F8883008462146FFF710FB3A
:103AB0002046FFF7A3FF204610BD00BF488E000838
:103AC00001748068FFF730BB13B5ADF801309DF885
:103AD000103004468DF80330059B8DF800100193DB
:103AE000437C934203D042748068FFF71DFB0023A0
:103AF000617C6A46A06884F8783001F5C061FFF700
:103B0000ADFF02B010BD10B50A46017C044601F5B8
:103B1000B0618068FFF7A2FF002384F8883010BDF1
:103B200045F20103B1F8012010B59A4216D10A7886
:103B3000402A01D0002010BD4FF0FF3341240B710B
:103B40004B710C7000234FF47A748B71CB71046647
:103B50008365C265CB7843610120ECE7012380F8DF
:103B600088300B7880F88030B1F80130A0F88130CF
:103B7000CB7880F883304B68C0F88430DAE70000F7
:103B80002DE9FF41B1F80120CE7807460C46C2F37B
:103B9000C01816B1013EC6F3470603AB0093414679
:103BA0003346F86802F03F02FFF7CAFB2378054668
:103BB000402B2ED108B30079FEF788F8E37823B9BB
:103BC000039B63604323237020E0DB0708D595F94E
:103BD0000830EA791B0643EA0243028B1343F0E7FD
:103BE0001549286802F0D0FF03F094F995F90620F2
:103BF00020F07F4343EA0263E3E78023237000233E
:103C0000237163710223A3710623E37104B0BDE83D
:103C1000F081232BF1D10028EFD06368002BECD189
:103C2000B4F8012033464146F86802F03F02FFF73E
:103C3000C8FA6023C7E700BF00007A442DE9FF47B8
:103C40000B780446232B0D4692460DD1CB78DBB979
:103C50004B68B3F1005F04D323F00052B2F5006F5C
:103C600005D2A36660232B7004B0BDE8F0874FF047
:103C7000FF33836680232B7000232B716B7102232B
:103C8000AB710623EB71EFE7D0F86880B8F1FF3F26
:103C900014D0012B12D1486880B2FEF707F8A4F8BF
:103CA00070006B682D28C3F3054384F873306B688C
:103CB0004FEA236384F87430DCD8D3E794F9749026
:103CC000B9F1000FD6D0022BD4D16E6846F317009D
:103CD00002F006FF114903F00BF807463616E066BE
:103CE00094F87010E06894F8733084F8726042467B
:103CF00002960197CDF80090BAF1000F0AD0FFF7B5
:103D0000EFFC002384F874304FF0FF330028A366E3
:103D1000A8DAAFE7FFF7CBFCF3E700BF00007A4477
:103D2000F8B50A78054602F06003602B0C4621D1F5
:103D3000012302F010020A70EA6DA96D521A402A9E
:103D40000AD0EA6D511C02F03F02E9652A44127E56
:103D5000E2540133082BEFD1EA6DA96D521A402AC3
:103D60002FD12278C3F1080342EA430343F0010351
:103D7000237026E0B1F80130B3F5005F15D003F4ED
:103D80007F46B6F5045F32D1C8781B029BB2184457
:103D9000FDF78CFF2D2823D82378232B19D16168B8
:103DA000FDF71EFF18B96023E2E7C878F2E7802329
:103DB000237030232371002363710923A371062329
:103DC000E371297C2246A86801F5B061FFF746FE41
:103DD0003CE0402BF5D1FDF71BFF43236060C7E7B4
:103DE000802323700023237163710223E6E7C768F1
:103DF00097B1B3F5405F03D10022FFF71FFFE0E763
:103E000043F20107BB4201D10122F6E7B6F5445F58
:103E100002D1FFF7B5FED4E745F203018B4205D18D
:103E2000402ADDD1E078FEF777FED6E745F20401BF
:103E30008B4205D1402AD3D1E078FEF77DFECCE756
:103E400021462846FFF76CFE0028BAD1F8BD0000D5
:103E5000F7B5037C044603F5C0638B42154605D1D4
:103E6000114603B0BDE8F040FFF75ABF467C06F5A7
:103E7000B0638B4221D1B2F80170A7F54053012BFA
:103E800013D8D378DBB990F9741090F87330090621
:103E900041EA0341B0F870303246194301230191E1
:103EA000009323213B46FFF70FFE2B78803B18BF82
:103EB000012384F878306B68E36703B0F0BD012B11
:103EC000F3D10949C06E02F05FFE03F023F894F9C4
:103ED0007230324640EA03600223019000932321AE
:103EE0003B462046DFE700BF00007A44B0F80130CF
:103EF00010B5B3F5A04F04461CD10378402B4CD12C
:103F000043230370C378032B47D8DFE803F002078D
:103F10000B0F264BD3F8E837636010BD234BD3F863
:103F2000EC37F9E7214BD3F8F037F5E7FDF70CFF55
:103F30006060F2E745F2020293422ED10378232B10
:103F40002BD160230370C378032B26D8DFE803F05E
:103F500002172022164B1B784BB172B6154B18680E
:103F600008B1FFF79DFCFEF73BFD62B6D5E7802266
:103F700003714371837108230270E371CDE772B658
:103F8000FEF796FD62B6BDE810402E20FDF75ABB45
:103F900002F042F9FDF7A2FEF5E78023237000232B
:103FA000237163710223A3710623E6E700F0FF1F6C
:103FB000E8050020EC0600202DE9F04385B00D4611
:103FC00016461F469DF83890FDF780FE124CD0F83B
:103FD000048012492068FEF71DFC2068B9F1000F2B
:103FE00018D00F49FEF716FC9DF934304FF084418C
:103FF0000C98039302F0C8FD02F08CFFCDE901702C
:1040000000962B46424607492068FEF703FC05B0A0
:10401000BDE8F0830449E5E7F4060020FD880008C8
:10402000028900080A8900080689000870B504465C
:104030000846FEF7D7F920210546FEF787F90378F1
:104040002BB910492046BDE87040FEF7E3BB0023C2
:10405000052100F8013BFEF76CFA06462846FDF7FD
:1040600011FE2F2807D03146FDF7BAFD08B90649E1
:10407000E8E70649E6E72A462046BDE870400449DD
:10408000FEF7C8BB1E89000839890008428900086C
:1040900057890008F8B506460846FEF7A3F9044616
:1040A0002C212046FEF752F90023077805460370BD
:1040B0002046FDF7E7FD2F280CD0FDF7A9FD0246AD
:1040C00006492C463046FEF7A5FB2C2F04F8017B51
:1040D000E6D0F8BD22460249F3E700BF6E8900082A
:1040E000738900082DE9F04105460846FEF77AF984
:1040F00020218046FEF72AF9037804462BB9184997
:104100002846BDE8F041FEF785BB00270770404612
:10411000FDF7B8FD2F2806461AD06378212B0AD068
:104120007E2B08D02F2B06D0611C0E48FEF7F0F82E
:1041300020B10D49E4E70127A11CF6E70121304633
:104140001FB1FDF7EBFD0949DAE7FDF7DFFDFAE7FF
:1041500042462846BDE8F0410549FEF75BBB00BF7B
:104160008D8900089D890008A4890008B38900088A
:10417000578900082DE9F04F04468DB00846FEF738
:1041800031F9464990F800802046FEF743FB0027AE
:104190004FF0200B4FF0844ADFF80491FEB2304616
:1041A000FDF794FD05463046FDF7C0FDC30702D577
:1041B000B8F1680F55D16B68AA68298B3046079310
:1041C00006920591FDF724FD0599069A079B02903A
:1041D0000191009233495A462046FEF71BFB0DF130
:1041E000270303930DF1260302930BAB01930DF10B
:1041F000250300933146D9F8000009AB0AAAFFF75E
:1042000059F8F8B19DF9253051460B98059302F005
:10421000BBFC02F07FFE244B9DF827C0234A9DF98A
:104220002610BCF1000F18BF1A469DF824B0059B5C
:10423000CDE902120190009320465B460A9A1C4980
:10424000FEF7E8FA3046FDF777FDD8B13046FDF7C6
:1042500073FD012816D020461649FEF7DBFA4FF011
:104260002C0B01372E2F99D1134B2046D3F8F02772
:104270001249FEF7CFFA204611490DB0BDE8F04FC4
:10428000FEF7C8BA02972B68204601936B690D4967
:104290000093D5E90323FEF7BDFAE0E7CF890008D4
:1042A000F0060020D1890008C4890008C9890008E7
:1042B000FF890008C48A000800F0FF1F9A8A0008DE
:1042C000D58A00084C8A00082DE9F04F0D468BB0C6
:1042D0000DF11409142200210446484602F060FE44
:1042E0002846FEF77FF890F800A0BAF1700F0BD1C6
:1042F000574B584D186858492C60FFF747F8002372
:104300002B600BB0BDE8F08FBAF1630F0AD1504BB0
:104310001868FFF794F8514920460BB0BDE8F04FFC
:10432000FEF778BA2021FEF711F803780BB94C4953
:10433000F2E7FEF757F820210646FEF707F8037864
:10434000074613B9BAF1640FF1D10025304607F8DA
:10435000015BFDF797FC06463846FEF743F82F2E23
:10436000804601D13F49D7E7BAF1640F0CD1384BF1
:1043700031461868FEF767FF02463B4920460BB0FE
:10438000BDE8F04FFEF746BA4FF07E572021404679
:10439000FDF7DCFF037883460BB9022DC7DD002350
:1043A00040468BF80030FEF704F8032D2ED1102183
:1043B0004046FEF7BEF802F093FB4FF05E5102F06C
:1043C000E3FB07460BF10100FEF70CF80135052D64
:1043D0008046DBD1DDE90598079D1D4B9DF9241032
:1043E0006AB2BAF1740F18680291009231464A46D7
:1043F0005FFA88F301970CD1FFF759F9431D042B9D
:1044000018D8DFE803F012150F0C090049F8250051
:10441000D8E7FFF765F9F1E74A461449AEE74246A7
:104420001349ABE72A461349A8E74A461249A5E7CC
:10443000124971E7124A134B13490128D8BF13469A
:10444000024620460BB0BDE8F04FFEF7E3B900BFCF
:10445000F0060020F4060020B93F0008DB8A0008BF
:10446000FD8A0008108B0008248B0008398B000897
:104470004D8B0008618B0008758B00089D8B000830
:10448000518C000880700008B98B00080E4B10B5E5
:104490001B78044693B172B60C4B1868FFF700FA0C
:1044A0000B492046FEF7B6F9FEF79AFA024662B6C5
:1044B00008492046BDE81040FEF7ACB90649BDE802
:1044C0001040FEF7A7B900BFE9050020F006002064
:1044D000E38B0008F38B00080F8C000810B504462E
:1044E00072B6FEF7E5FA62B640B92E20FDF7AAF8DB
:1044F00003492046BDE81040FEF78CB90149F8E7B2
:10450000528C0008668C000808B501F085FE2DE984
:10451000F0470025044689461746A8462C21204628
:10452000FDF714FF064690F800A080F800802046B2
:10453000FDF7A8FB34462F2804F801AB18BF09F893
:104540000500337818BF01352C2B01D1BD42E5D3CE
:104550002846BDE8F08700002DE9F04F804685B081
:104560000846FDF73FFF0446FDF723FF20210746DD
:104570002046FDF7EBFE037833B940461B4905B0F2
:10458000BDE8F04FFEF746B90DF1040A0A22514684
:104590000130FFF7BCFF81464046FDF7E7FB144DB5
:1045A000144E4046FDF7DEFB044618B9002F1BDC15
:1045B0007B1C19D005B0BDE8F08F1AF80400FDF798
:1045C00027FB5A4603460C494046FEF723F9B346FB
:1045D00001344C45F1DB40460849FEF71BF97A1CD3
:1045E00018BF07F1FF37DCE7AB46F2E77C8C000829
:1045F000518C0008E78800089B8C00084F8C00084D
:10460000420508B5C0F3090344BFA3F2FF339BB2D0
:1046100018B202F0A9F806A3D3E9002301F028FE9E
:104620000022054B01F054FF02F008F900B208BD6A
:104630009A9999999999B93F0000444038B5C17940
:104640001C4DC1F3C10104461A202970FDF7FCFA84
:104650002B781BB930211020FDF7F6FA2B78012BAF
:1046600003D120211020FDF7EFFA2B78022B03D184
:1046700010210846FDF7E8FA21780F4B01F00F01F1
:104680001B201970FDF7E0FAE07802F029FA0B49D7
:1046900002F07AFA0A4B014618601C20FDF7E2FA94
:1046A0002178084B890919701D20BDE83840FDF7B5
:1046B000CBBA00BF7B0700207A070020CDCCCC3DD1
:1046C000AC0700207C07002038B5437804461B0265
:1046D000007803F44073184302F046F800221A4BA6
:1046E00001F0C6FD02F0F2F8184D014628601420D2
:1046F000FDF7B8FA2379E0781B0203F470631843DE
:1047000002F032F80EA3D3E9002301F0B1FD02F06C
:10471000BDF80F4C80B2208002F0DEF9014618206F
:10472000FDF7A0FA208802F0DBF9296802F02CFAE4
:10473000084B014618601220BDE83840FDF792BAD8
:104740009A9999999999B93F0000A43F9C07002034
:10475000B6070020A80700202DE9F0410446808814
:104760002D4EC0F3090001F0FFFF27A3D3E900237A
:1047700001F07EFD02F08AF83080E07802F0B0F9B6
:10478000264902F001FA264B054618602088DFF81A
:104790009480C0F30D0001F0E7FF1DA3D3E90023CF
:1047A00001F066FD02F072F8A8F80000A3786078C6
:1047B0001D4F40EA4320C00901F0D6FF12A3D3E900
:1047C000002301F055FD02F061F8294638801120E0
:1047D000FDF748FAB8F8000002F07EF9014615200E
:1047E000FDF740FA388802F077F901461620FDF708
:1047F00039FA308802F070F9BDE8F041014619201D
:10480000FDF730BAAFF300809A9999999999B93F19
:104810004C37894160E5A03FB4070020CDCCCC3DAA
:10482000B0070020A4070020A2070020000000001D
:104830002DE9F84F384B068802791E80B0F8013018
:10484000364DC778DB102B80D303817843EAC7133A
:10485000477990F806A0324CDFF8C890C08843EA48
:10486000510342EA07225B1152102380A9F800206D
:10487000C00901F079FF26A3D3E9002301F0F8FC79
:1048800002F004F8DFF8A080DFF8A0B047EA0A27BA
:10489000A8F800003F113046ABF80070FFF7B0FEFB
:1048A00002F01EF901461E20FDF7DCF92888FFF70B
:1048B000A7FE02F015F901461F20FDF7D3F9208865
:1048C000FFF79EFE02F00CF901462020FDF7CAF921
:1048D000B9F80000FFF794FE02F002F9014621202A
:1048E000FDF7C0F9B8F8000002F0F6F80146222002
:1048F000FDF7B8F9BBF80000FFF782FE02F0F0F810
:10490000BDE8F84F01462320FDF7ACB9AFF30080B6
:10491000D927806264C9D23F86070020840700201F
:1049200082070020800700207E07002088070020E3
:104930002DE9F0410378384E03F0DF02C62A044621
:10494000364D33702AD14088C0F30B0001F00CFFC4
:104950002FA3D3E9002301F08BFC01F097FF002285
:104960002F4B28801A70288802F0B6F801461320D1
:10497000FDF778F925782B4F05F01F053570DFF826
:10498000A8802A4EF5B9207902F0AAF8284902F049
:10499000FBF838600122274B1A701FE0042BE2D18C
:1049A0001F4B1B78002BDED0C088C0F3CB0001F07A
:1049B000DBFE17A3D3E9002301F05AFC01F066FFE8
:1049C0002880D0E7012D19D1207902F089F8184903
:1049D00002F0DAF8174BC8F800001D70D8F8001084
:1049E000386801F0C9FF316801F0C6FFBDE8F04149
:1049F000114B014618601720FDF734B9022DEDD197
:104A0000207902F06DF80A4902F0BEF83060C1E783
:104A1000DE91B1DAFCBFC23F79070020A007002079
:104A2000EA05002098070020940700209007002046
:104A3000CDCCCC3DBC0700208C0700200378114A68
:104A400003F00F0330B51370C3EB03139B00DBB20D
:104A50000D4ADC1E0133DBB213440422E4B2A11878
:104A6000C9B266290CD8D108415C02F007050132B1
:104A70002941D2B201F00101402A03F8011BEED115
:104A800030BD00BF75070020F806002003780E4AED
:104A90001E2B137011D1B0F803200C4B0C491A8057
:104AA000837803F007030B7040F2B2218A4204D1ED
:104AB000022B03D10122074B1A707047012BFCD146
:104AC0000022044BF8E700BF7407002072070020A3
:104AD00071070020BD070020C179024B2420197006
:104AE000FDF7B2B87707002070B5204A037813703D
:104AF0001F4A1278002A37D10C2B1E4D1E4E1F4C18
:104B000018D1B0F80100C0F3090001F0E9FF1C4919
:104B100002F03AF828603168286801F02DFF21681A
:104B200001F02AFFBDE87040164B014618601720BF
:104B3000FDF798B8162B0AD1B0F80100C0F30900B0
:104B400001F0CEFF0E4902F01FF83060E3E7202BA2
:104B5000E1D1B0F80100C0F3090001F0C1FF08493C
:104B600002F012F82060D6E770BD00BF7807002081
:104B7000BC07002098070020940700209007002021
:104B80000AD7233B8C07002013B50120FDF746F818
:104B9000114C400020700C20FDF740F800280CBF9D
:104BA0000A2305238DF80030237800208DF801308A
:104BB00041F6AA23ADF8023040F2FF23ADF80430ED
:104BC000FEF748F803686A465C6840F23D11062328
:104BD000A04702B010BD00BF8A07002013B5094BE3
:104BE000002000934FF48C73ADF80430FEF732F8D8
:104BF00003686A465C6840F20A210623A04702B0B7
:104C000010BD00BFF615098213B5084A084B0020F5
:104C1000CDE90023FEF71EF803686A465C6840F29F
:104C200012210823A04702B010BD00BFB91C94ADEB
:104C3000C315066313B50520FCF7F0FF00280CBF71
:104C40002D235D2301208DF80030FCF7E7FF0024C1
:104C500040008DF8010001208DF80240FCF7DEFFD6
:104C6000074B8DF8030020460193FDF7F3FF03681F
:104C70006A465C6840F21D210823A04702B010BDBF
:104C80008000601013B50D20FCF7C8FF0023ADF8BD
:104C90000430154B10F0FF001B8812D11A018DF85B
:104CA00006201B0900208DF80730FDF7D3FF0368AD
:104CB00040F22A215C6804230DEB0302A04702B0F6
:104CC00010BD012803D11A0142F00502E7E70228CE
:104CD00003D11A0142F00902E1E70328E1D11A01E8
:104CE00042F00D02DBE700BFA007002040F2CB43FB
:104CF00013B5074A0020CDE90023FDF7ABFF036899
:104D00006A465C6840F232210823A04702B010BD19
:104D10000A02D50913B50120FCF780FF0F4C4000B3
:104D200020700C20FCF77AFF00280CBF0A23052313
:104D30008DF80430237800208DF8053040F6FF739D
:104D4000ADF80630FDF786FF036840F23D215C6850
:104D500004230DEB0302A04702B010BD8A07002018
:104D600013B50520FCF75AFF00280CBFD923D82320
:104D70008DF800308C238DF801304BF20153ADF8E3
:104D80000230074B00200193FDF764FF03686A4679
:104D90005C6840F25D210823A04702B010BD00BF4F
:104DA0004AC10AE0174B13B51880174BADF8000045
:104DB0001C780C20BCB9FCF731FF003818BF01206B
:104DC00040008DF8020020468DF803408DF8044025
:104DD000FDF740FF03685C6805236A4640F2B22194
:104DE000A04702B010BDFCF719FF003818BF012022
:104DF00040008DF802000020FDF72CFF03685C687E
:104E00000323EAE7BA070020BD07002047F6027334
:104E100013B5074A0020CDE90023FDF71BFF036807
:104E20006A465C6840F221310823A04702B010BDF9
:104E30002CB6A87F13B5074B00200193FDF70AFF9E
:104E4000036840F233315C6804230DEB0302A04792
:104E500002B010BD0430290713B50620FCF7E6FEAA
:104E6000104901F091FE02F07BF80F4B80B21880E0
:104E700046F209238DF80200000AADF8003060F018
:104E800066000A4B8DF8030000200193FDF7E2FE57
:104E900003686A465C6840F2A1310823A04702B06B
:104EA00010BD00BF0000C842B8070020082C125AED
:104EB00037B5134C207888B1124A134B0020CDE946
:104EC0000023FDF7C7FE03686A465D6840F2B23111
:104ED0000823A8470023237003B030BD0B4B009379
:104EE00003F1D86303F629030193FDF7B3FE0368CA
:104EF0006A465D6840F2B2310823A8470123EAE719
:104F0000EC050020E50DEBFF0C66BB11E35DFBFF3C
:104F100073B5294C294D22782B78120163B3284BA5
:104F200042F00A02009340F29F13ADF804300023D0
:104F30008DF8062069461A4611F8010B0132034428
:104F4000072A9BB2F8D103F24A5300208DF80730AC
:104F5000FDF780FE03686A465E6840F2455108230B
:104F6000B04700232B7023780133DBB2102B28BF0E
:104F70000023237002B070BD12498DF80620009105
:104F800019211A46ADF80410694611F8010B0132D7
:104F90000344072A9BB2F8D103F24A5300208DF84C
:104FA0000730FDF757FE03686A465E6840F24551D8
:104FB0000823B0470123D5E776070020EB05002042
:104FC00014003F7003196432F0B585B0102200213F
:104FD000684601F0E5FF00221A2014460126174911
:104FE00011F8013F7BB1B2FBF0F304AD05EB830593
:104FF00000FB132355F8107C06FA03F33B430134FE
:1050000045F8103CE4B20132662AE9D10099272024
:10501000FCF71AFE01992820FCF716FE02992920B8
:10502000FCF712FE03992A20FCF70EFE21462620EB
:1050300005B0BDE8F040FCF707BE00BFF806002051
:105040008368DB075EBF836843F0010383607047BA
:10505000034AD2F8083443F40003C2F80834704716
:1050600000200140836823F460230B43836083683E
:1050700043F4801383607047836800F1080243F0B3
:105080000803836013681B07FCD47047836843F0F0
:105090000403836070478068C0F38000704708B5E0
:1050A0000246FFF7F3FF1046FFF7F5FF0028FAD19D
:1050B00008BD0022134610B501FA02F403321E2A7D
:1050C00043EA0403F8D10022036101FA02F4033237
:1050D000182A43EA0403F8D1C36010BD836823F0A3
:1050E000010383607047436843F4807343607047F3
:1050F000836823F4006383607047836843F002038E
:10510000836070471029F0B510D800234FF0010ECE
:105110001F469C461D465FFA8EF68E4207D901391E
:1051200045EA0155C562C0F830C04763F0BDBEF125
:10513000060F147806D89C4027430EF1010E013269
:105140000533E8E7073E052E95BFA3F11E06A3F140
:105150003C06B440B44094BF4CEA040C2543ECE751
:10516000836800F1080243F48003836013685B02E4
:10517000FCD47047836843F48073836070470000F9
:10518000044B98420CBF40F2192040F21A2000F064
:10519000F0BC00BF006400402DE9F341046888467C
:1051A00024F0020404600468964644F0010404609C
:1051B0004FF6FF749DF820C09DF824109DF828201C
:1051C0009DF83C609DF840700194019C051D013CD8
:1051D000019414B14468E407F7D54468E4076ED538
:1051E0000024C4610468B8F1000F4FD044F080047B
:1051F00004600468BEF1000F4BD044F0400404602A
:10520000002B49D0036843F0200303600368BCF11E
:10521000000F45D043F0100303600368002942D01B
:1052200043F0080303600368002A3FD043F00403FF
:105230000360C369002F3CD043F00043C361C369DE
:10524000002E39D043F08043C3610E9B0D99013B82
:10525000C3F309030B430C99C2690B430B990B432E
:105260001343C361036823F0010303604FF6FF7328
:105270000193019B013B019313B12B68DB07F8D429
:10528000406800F0010002B0BDE8F08124F0800425
:10529000AEE724F04004B2E7036823F02003B4E74C
:1052A00023F01003B8E723F00803BBE723F004035F
:1052B000BEE723F00043C1E723F08043C4E70120A9
:1052C000E1E70000F0B50125234C9DF81C70D4F8EF
:1052D0000066854046F00106C4F80066D4F81CE676
:1052E000EE432EEA050EC4F81CE639B3D4F80C16CA
:1052F0002943C4F80C162AB3D4F804262A4300F133
:10530000006000F6C840C4F80426C0000360069A96
:10531000059B4360104BCAB1D3F814262A43C3F847
:10532000142627B1D3F81C262A43C3F81C26D3F829
:10533000002622F00102C3F80026F0BDD4F80C16B6
:105340003140D6E7D4F804263240D8E7D3F8142603
:105350001640C3F81466E4E70060004030B4BDF8BE
:1053600008409DF8105043EA0443029341EA024387
:1053700000220495114630BCFFF7A4BF30B4BDF83D
:1053800008409DF8105044EA0344049542EA014362
:105390000294012230BC0021FFF794BF1FB5009298
:1053A00001229DF81840CDE901340B461146FFF764
:1053B00089FF04B010BD43690B43436170474369E3
:1053C00023EA0103436170472DE9F041804680687C
:1053D0009DF818E04501079E2AD4D8F8080004017A
:1053E0002AD4D8F80800C00050D54FF4D075022058
:1053F00005EB080422B3C90041F0040145F8081088
:105400001BB1236843F002032360636823F00F039A
:10541000636062680EF00F03134363600EF1FF33A5
:10542000072B2AD8DFE803F02623201B1815120EBD
:105430004FF4C0750020DBE74FF4C8750120D7E7B3
:105440004905DBE70027F37963F31F67B37963F35B
:105450001747737963F30F27337963F307074FF027
:10546000000CF37863F31F6CB37863F3174C737815
:1054700063F30F2C337863F3070CC4F808C0E760BC
:10548000236843F001032360BDE8F0814FF0FF3053
:10549000FAE721B9C36843F02003C360704703698A
:1054A00043F020030361704719B9C06800F003009E
:1054B00070470069FAE72DE9F743DDF828900446C4
:1054C000DDE90E56FFF7F0FF0F4680464FF4E0711E
:1054D0004FF4D870CDE9000102A901EB870151F822
:1054E00008CC54F80C1004EB0C0011F0040115BFAB
:1054F000012189F8001089F8001054F80C1016BF2B
:1055000054F80C10490DC908196054F80C100B9B85
:10551000C1F34001197041680C9B090A1970416878
:105520000D9B01F00F01197016B143681B0C3380FD
:105530008668C368C6F307216970C6F30741A9707E
:10554000C3F307212E702B71C6F307666971C3F38D
:105550000741C3F30763EE70A971EB711AB13946C5
:105560002046FFF796FF404603B0BDE8F0830000F9
:10557000024A936843F00103936070470030024091
:10558000014B18601868704700300240002310B5C6
:10559000044A8B4201DB106810BD50F823400133F0
:1055A0001460F6E700300240014BB3F8E0077047A3
:1055B00000F0FF1F14230022013903FB01039A604E
:1055C000DA601A615A610F23426889008B401343E5
:1055D00043607047013989008A4042607047013951
:1055E000006889008A401040003818BF01207047C9
:1055F00014230139594308300B5823F440630B50EE
:105600000B5813430B50704714230139594308308A
:105610000B5823F440730B500B5813430B50704737
:1056200014230139594308300B5843F080030B50C1
:10563000704714230139594308300B5843F02003B5
:105640000B500B5823F480430B507047142301393F
:10565000594308300B5843F010030B507047142384
:105660000139594308300B5843F001030B50704780
:1056700014230139594308300B5823F001030B5010
:1056800070471423013903FB01008368DB0758BF0F
:10569000026170471423013903FB01008368DB07B3
:1056A00058BF426170471423013959430C300858E0
:1056B00080B270471423013959430C300A507047A7
:1056C00038B5064DEC68FFF76FFFB0F5007F84BF7B
:1056D000EB6C1C4304F0350038BD00BF00200240D5
:1056E00038B504460D4600F085F8FFF75DFFB0F5CC
:1056F000007F124B17D9124A944214D91A6D42F006
:1057000001021A65258000F075F8FFF74DFFB0F52E
:10571000007F0A4B0CD90A4A944209D91A6D22F02B
:1057200001021A6538BD1A6942F001021A61E9E7FF
:105730001A6922F001021A61F4E700BF002002405A
:10574000FFFF070810B5044600F054F8FFF72CFFE0
:10575000B0F5007F164B1BD9164A944218D91A6D22
:1057600042F002021A655C651A6D42F040021A6549
:1057700000F040F8FFF718FFB0F5007F0C4B11D98F
:105780000C4A94420ED91A6D22F002021A6510BD1D
:105790001A6942F002021A615C611A6942F0400221
:1057A0001A61E5E71A6922F002021A61EFE700BF09
:1057B00000200240FFFF0708034A136823F0070395
:1057C00003431360704700BF00200240034B044AAC
:1057D0005A6002F188325A60704700BF00200240D0
:1057E00023016745024A136943F080031361704740
:1057F0000020024008B5FFF763FFC307FBD408BDD4
:1058000038B505460C4689B2FFF76AFF210CA81C83
:10581000BDE83840FFF764BF2DE9F04300264FF0A4
:105820000F089C46036847684CFA06F414F0010F11
:1058300006F1010E1DD0072E94BF9946B946B4B2A9
:105840004FEA84048ABF203CA4B2A4B208FA04F54B
:1058500029EA0509A51C02FA05F501FA04F42C430E
:10586000072E44EA090405D8234676463C462746D7
:10587000DAE73C467646102EF9D103604460BDE875
:10588000F0830000034A536823F0E0630B430343B3
:1058900053607047000001400161704709040161D5
:1058A0007047C36801EA030221EA030141EA0241A9
:1058B000016170474AF6AA22014B1A60704700BF87
:1058C00000300040062824D8DFE800F004090E1359
:1058D000181D2000104B1868C0F3406070470E4B35
:1058E0001868C0F3C06070470B4B1868C0F3407075
:1058F0007047094B1868C0F340407047064B186862
:10590000C0F340007047044B186AF9E7024B586A2D
:10591000F6E70020704700BF00100240024608B5BD
:105920001046FFF7CFFF0028FAD008BD06282AD876
:10593000DFE800F0040A0F14191E2400124A13684D
:1059400043F08073136070470F4A136843F080631D
:10595000F8E70D4A136843F08053F3E70A4A1368E7
:1059600043F48033EEE7084A136843F00103E9E7A4
:10597000054A136A43F0010313627047024A536AEF
:1059800043F001035362704700100240034A53681A
:1059900023F0030303435360704700BF001002402D
:1059A000034A536823F4701343EA804353607047FB
:1059B00000100240034A536823F4803343EA004353
:1059C0005360704700100240034A536823F40033C9
:1059D00043EA40435360704700100240024B186A8C
:1059E00000F40040704700BF00100240024A136AF2
:1059F00043F40043136270470010024006283BD86E
:105A0000DFE800F035353525350415001B4B1A6AE3
:105A100042F001021A621A6A9007FCD51A6A22F44F
:105A200040721A621A6A42F480721A627047134B0B
:105A30005A6A42F001025A625A6A9107FCD51A6A00
:105A400022F440721A621A6A42F40072EDE70B4BBC
:105A50001A6842F480321A601A689203FCD51A6AF6
:105A600022F440721A621A6A42F44072DDE7034A75
:105A7000136A23F440731362704700BF00100240A2
:105A8000034A536823F4404343EA8033536070472A
:105A900000100240034A536823F4605343EAC023D2
:105AA0005360704700100240034A536823F4E063D8
:105AB00043EA00235360704700100240034A5368D2
:105AC00023F0F00343EA00135360704700100240D4
:105AD00008B50420FFF72AFFFFF720FF0020FFF79B
:105AE00055FF0320FFF722FFFFF718FF0120FFF704
:105AF0004DFF0020FFF7E2FF0320FFF7C1FF042066
:105B0000FFF7D2FF0020FFF7C5FF0220FFF754FE8A
:105B10000720FFF745FF0120FFF74CFF0020FFF7AC
:105B200053FFFFF703FFFFF7F9FE0220FFF72EFFF9
:105B3000044B054A05491360054A1160054A136084
:105B400008BD00BF00A24A04F00500200051250254
:105B5000F8050020F40500200122430903F18043E9
:105B600003F50433196800F01F0082400A431A60ED
:105B700070470122430903F1804303F50433196898
:105B800000F01F00824011431960196821EA0202E7
:105B90001A607047054BD3F804289206FBD5D3F85A
:105BA000042842F01002C3F8042870470020004087
:105BB000054BD3F8042822F01002C3F80428D3F8C8
:105BC00004289206FBD570470020004038B50446F3
:105BD00000254FF46770FFF7BFFF40F29B30FFF7DF
:105BE000BBFF00F03DFB2046124CFFF707FFC4F857
:105BF0000058C4F80458FFF7F9FEFFF7CBFF4FF643
:105C0000FF73C4F80858C4F80C58C4F81858C4F8FE
:105C10001C58C4F82038C4F82438FFF7C9FFD4F85A
:105C2000043823F00803C4F80438D4F804381B07F8
:105C3000FBD538BD0020004008B5FFF7ABFF064B91
:105C400082B2C0F30340C3F80C28C3F80808BDE8CB
:105C50000840FFF7ADBF00BF00200040034BD3F862
:105C60001808D3F81C3843EA004070470020004071
:105C700008B5FFF78FFF054B020C80B2C3F8182858
:105C8000C3F81C08BDE80840FFF792BF00200040A1
:105C900008B54FF46770FFF75FFF40F29B30FFF7E6
:105CA0005BFF00F0DDFA084BD3F8042822F008026D
:105CB000C3F80428D3F804281107FBD5D3F8042827
:105CC0009206FBD508BD00BF0020004038B5054650
:105CD0004FF467700C46FFF73FFF40F29B30FFF731
:105CE0003BFFFFF77BFE18B1BDE83840FFF7D0BFA0
:105CF0002846FFF76BFF2046BDE83840FFF79CBF02
:105D0000C3680B43C360704700690840003818BF80
:105D100001207047C94301617047036843F0800365
:105D200003607047036823F0100303607047036843
:105D300043F0010303607047036823F0010303602D
:105D4000704781627047C162704706297AD8DFE8E0
:105D500001F00479337963799200836923F00303B6
:105D6000836183698361836923F070038361072AF8
:105D700068D8DFE802F03304090D1115191D836995
:105D800043F0100383617047836943F02003F9E710
:105D9000836943F03003F5E7836943F04003F1E79B
:105DA000836943F05003EDE7836943F06003E9E75B
:105DB000836943F07003E5E7836923F440738361EB
:105DC00083698361836923F4E0438361072A39D8B7
:105DD000DFE802F004060A0E12161A1E8369D1E7E4
:105DE000836943F48053CDE7836943F40053C9E7E3
:105DF000836943F44053C5E7836943F48043C1E7B3
:105E0000836943F4A043BDE7836943F4C043B9E722
:105E1000836943F4E043B5E7C36923F00303C36137
:105E2000C369C361C36923F07003C361072A09D83A
:105E3000DFE802F03304090D1115191DC36943F0A1
:105E40001003C3617047C36943F02003F9E7C369D6
:105E500043F03003F5E7C36943F04003F1E7C3695A
:105E600043F05003EDE7C36943F06003E9E7C3691A
:105E700043F07003E5E7C36923F44073C361C3696A
:105E8000C361C36923F4E043C361072ADAD8DFE8BA
:105E900002F004060A0E12161A1EC369D1E7C3697E
:105EA00043F48053CDE7C36943F40053C9E7C369A2
:105EB00043F44053C5E7C36943F48043C1E7C36972
:105EC00043F4A043BDE7C36943F4C043B9E7C369E2
:105ED00043F4E043B5E7062909D8DFE801F00415EB
:105EE00009190D1D1100036A23F0020303627047B4
:105EF000036A23F02003F9E7036A23F40073F5E74C
:105F0000036A23F40053F1E7036A23F00803EDE783
:105F1000036A23F08003E9E7036A23F40063E5E7FB
:105F2000062909D8DFE801F0041509190D1D110033
:105F3000036A43F0020303627047036A43F02003DD
:105F4000F9E7036A43F40073F5E7036A43F4005387
:105F5000F1E7036A43F00803EDE7036A43F08003C7
:105F6000E9E7036A43F40063E5E706290CD8DFE8B4
:105F700001F0040B060B080B0A00426370478263B2
:105F80007047C26370470264704743690B434361C3
:105F90007047406A70474162704703291CD8DFE8A8
:105FA00001F0020B131C836923F0F0038361836902
:105FB00043EA021383617047836923F4704383616A
:105FC000836943EA0233F5E7C36923F0F003C36151
:105FD000C36943EA0213C3617047C36923F4704382
:105FE000C361C36943EA0233F5E701F0FD03012B06
:105FF00002F0030204D1531E012B98BF82F003026A
:1060000003291AD8DFE801F0020A121A836923F083
:10601000030383618369134383617047836923F4B6
:1060200040738361836943EA0223F5E7C36923F080
:106030000303C361C3691343C3617047C36923F496
:106040004073C361C36943EA0223F5E70123026A8F
:1060500089008B40134303627047836819B143F48E
:1060600000438360704723F40043FAE7836823F01A
:10607000070383608368194381607047836823F056
:10608000700383608368194381607047054B9842B1
:1060900014BF054B054B1B6803EB5103B3FBF1F138
:1060A0008160704700380140F8050020F4050020A9
:1060B000C36808290CBF23F4805343F48053C360A2
:1060C0007047036923F440530B4303617047C3686F
:1060D00023F4C0630B43C3607047C36823F00C0311
:1060E0000B43C3607047436923F440730B43436120
:1060F0007047C36843F40053C360704738B5044623
:106100000D4600F018F829462046BDE8384000F05A
:106110000AB8436943F0400343617047436943F061
:10612000800343617047C1F30801416070474068D4
:10613000C0F30800704703681B06FCD57047006871
:106140000840003818BF01207047FEE77047000084
:1061500038B5DFF8C0D0234A234B24498A4229D3DB
:106160001346002022498B4229D3224BD01E9B1A72
:1061700023F00303814238BF00234FF0A5311344BD
:106180001D4A93421ED34FF0E022D2F8143D1B4C1F
:1061900043F400731A4DC2F8143DAC4215D3194CA8
:1061A000194DAC4215D3FBF773FA184C184DAC429D
:1061B00013D338BD53F8040B42F8040BCEE743F871
:1061C000040BD0E743F8041BDBE754F8043B984783
:1061D000E3E754F8043B9847E3E754F8043B984757
:1061E000E5E700BF000000206C8E0008FC050020E1
:1061F000C0070020C307002000500020608E000868
:10620000608E0008608E00086C8E00086C8E00089E
:106210006C8E0008005000204FF0E023014AC3F8C4
:106220000C2DFEE70400FA05012243099B0003F14F
:10623000604300F01F0003F5614382401A6070471D
:10624000432893BF00F16040044B00F00F0000F5BD
:1062500064408CBFC1540170704700BF14ED00E072
:10626000024A136843F48073136070470070004063
:1062700070B54FF0FF0C4CF4E06C1CEA11541DBFDC
:106280001CEA135594EA0C0F95EA0C0F00F0DEF8A7
:106290002C4481EA030621EA4C5123EA4C5350EA8C
:1062A000013518BF52EA033541F4801143F48013DD
:1062B00038D0A0FB02CE4FF00005E1FB02E506F06E
:1062C0000042E0FB03E54FF00006E1FB03569CF0C3
:1062D000000F18BF4EF0010EA4F1FF04B6F5007FC9
:1062E00064F5407404D25FEA4E0E6D4146EB06063B
:1062F00042EAC62141EA55514FEAC52040EA5E50C4
:106300004FEACE2EB4F1FD0C88BFBCF5E06F1ED86D
:10631000BEF1004F08BF5FEA500E50F1000041EBA4
:10632000045170BD06F0004646EA010140EA020051
:1063300081EA0301B4EB5C04C2BFD4EB0C0541EA73
:10634000045170BD41F480114FF0000E013C00F388
:10635000AB8014F1360FDEBF002001F0004170BDAC
:10636000C4F10004203C35DA0C341BDC04F11404C5
:10637000C4F1200500FA05F320FA04F001FA05F251
:1063800040EA020001F0004221F0004110EBD3701E
:1063900021FA04F642EB06015EEA430E08BF20EA4A
:1063A000D37070BDC4F10C04C4F1200500FA04F3ED
:1063B00020FA05F001FA04F240EA020001F000417F
:1063C00010EBD37041F100015EEA430E08BF20EAF2
:1063D000D37070BDC4F1200500FA05F24EEA020E3A
:1063E00020FA04F301FA05F243EA020321FA04F069
:1063F00001F0004121FA04F220EA020000EBD37020
:106400005EEA430E08BF20EAD37070BD94F0000F1F
:106410000FD101F00046400041EB010111F4801F53
:1064200008BF013CF7D041EA060195F0000F18BF04
:10643000704703F00046520043EB030313F4801F40
:1064400008BF013DF7D043EA0603704794EA0C0FFA
:106450000CEA135518BF95EA0C0F0CD050EA410610
:1064600018BF52EA4306D1D181EA030101F000418D
:106470004FF0000070BD50EA410606BF10461946B5
:1064800052EA430619D094EA0C0F02D150EA0136C1
:1064900013D195EA0C0F05D152EA03361CBF104602
:1064A00019460AD181EA030101F0004141F0FE41A1
:1064B00041F470014FF0000070BD41F0FE4141F425
:1064C000780170BD81F0004102E000BF83F000431D
:1064D00030B54FEA41044FEA430594EA050F08BF7F
:1064E00090EA020F1FBF54EA000C55EA020C7FEA43
:1064F000645C7FEA655C00F0E2804FEA5454D4EBC0
:106500005555B8BF6D420CDD2C4480EA020281EA89
:10651000030382EA000083EA010180EA020281EAC1
:106520000303362D88BF30BD11F0004F4FEA013113
:106530004FF4801C4CEA113102D0404261EB410122
:1065400013F0004F4FEA03334CEA133302D05242A8
:1065500063EB430394EA050F00F0A780A4F1010464
:10656000D5F1200E0DDB02FA0EFC22FA05F280189E
:1065700041F1000103FA0EF2801843FA05F3594184
:106580000EE0A5F120050EF1200E012A03FA0EFC03
:1065900028BF4CF0020C43FA05F3C01851EBE3712D
:1065A00001F0004507D54FF0000EDCF1000C7EEB4A
:1065B00000006EEB0101B1F5801F1BD3B1F5001F88
:1065C0000CD349085FEA30004FEA3C0C04F10104A7
:1065D0004FEA445212F5800F80F09A80BCF1004FD0
:1065E00008BF5FEA500C50F1000041EB045141EA52
:1065F000050130BD5FEA4C0C404141EB0101013C1B
:1066000028BFB1F5801FE9D291F0000F04BF014609
:106610000020B1FA81F308BF2033A3F10B03B3F1DB
:1066200020020CDA0C3208DD02F1140CC2F10C026B
:1066300001FA0CF021FA02F10CE002F11402D8BFC9
:10664000C2F1200C01FA02F120FA0CFCDCBF41EA95
:106650000C019040E41AA2BF01EB0451294330BD64
:106660006FEA04041F3C1CDA0C340EDC04F1140441
:10667000C4F1200220FA04F001FA02F340EA030018
:1066800021FA04F345EA030130BDC4F10C04C4F15E
:10669000200220FA02F001FA04F340EA030029463E
:1066A00030BD21FA04F0294630BD94F0000F83F488
:1066B000801306BF81F480110134013D4EE77FEA6B
:1066C000645C18BF7FEA655C29D094EA050F08BFB7
:1066D00090EA020F05D054EA000C04BF1946104698
:1066E00030BD91EA030F1EBF0021002030BD5FEADC
:1066F000545C05D14000494128BF41F0004130BD04
:1067000014F580043CBF01F5801130BD01F0004557
:1067100045F0FE4141F470014FF0000030BD7FEACA
:10672000645C1ABF194610467FEA655C1CBF0B46C5
:10673000024650EA013406BF52EA033591EA030FDC
:1067400041F4002130BD00BF90F0000F04BF0021D4
:10675000704730B54FF4806404F132044FF0000507
:106760004FF0000150E700BF90F0000F04BF002180
:10677000704730B54FF4806404F1320410F00045E6
:1067800048BF40424FF000013EE700BF42004FEAE1
:10679000E2014FEA31014FEA02701FBF12F07F435E
:1067A00093F07F4F81F06051704732F07F4208BF15
:1067B000704793F07F4F04BF41F40021704730B51C
:1067C0004FF4607401F0004521F000411CE700BF68
:1067D00050EA010208BF704730B54FF000050AE0EB
:1067E00050EA010208BF704730B511F0004502D5EC
:1067F000404261EB41014FF4806404F132045FEAEE
:10680000915C3FF4D8AE4FF003025FEADC0C18BF96
:1068100003325FEADC0C18BF033202EBDC02C2F188
:10682000200300FA03FC20FA02F001FA03FE40EA1A
:106830000E0021FA02F11444BDE600BF4FEA410206
:1068400012F5001215D211D56FF47873B3EB6252C2
:1068500012D94FEAC12343F0004343EA505311F0E9
:10686000004F23FA02F018BF404270474FF000007B
:10687000704750EA013005D111F0004008BF6FF0B9
:10688000004070474FF00000704700BF4A0011D22F
:1068900012F5001211D20DD56FF47873B3EB62527A
:1068A0000ED44FEAC12343F0004343EA505323FA86
:1068B00002F070474FF00000704750EA013002D1FB
:1068C0004FF0FF3070474FF0000070474FEA410231
:1068D000B2F1E04324BFB3F5001CDCF1FE5C0DD93E
:1068E00001F0004C4FEAC0024CEA5070B2F1004F88
:1068F00040EB830008BF20F00100704711F0804F8B
:1069000021D113F13872BCBF01F00040704741F44F
:1069100080114FEA5252C2F11802C2F1200C10FA53
:106920000CF320FA02F018BF40F001004FEAC12337
:106930004FEAD32303FA0CFC40EA0C0023FA02F3DB
:106940004FEA4303CCE77FEA625307D150EA0133B1
:106950001EBF4FF0FE4040F44000704701F0004081
:1069600040F0FE4040F40000704700BF80F000405F
:1069700002E000BF81F0004142001FBF5FEA410317
:1069800092EA030F7FEA226C7FEA236C6AD04FEA17
:106990001262D2EB1363C1BFD2184140484041405C
:1069A000B8BF5B42192B88BF704710F0004F40F40E
:1069B000000020F07F4018BF404211F0004F41F42A
:1069C000000121F07F4118BF494292EA030F3FD0F6
:1069D000A2F1010241FA03FC10EB0C00C3F1200309
:1069E00001FA03F100F0004302D5494260EB400098
:1069F000B0F5000F13D3B0F1807F06D340084FEA03
:106A0000310102F10102FE2A51D2B1F1004F40EBF7
:106A1000C25008BF20F0010040EA0300704749005F
:106A200040EB0000013A28BFB0F5000FEDD2B0FAFC
:106A300080FCACF1080CB2EB0C0200FA0CF0AABF1F
:106A400000EBC25052421843BCBFD04018437047BD
:106A500092F0000F81F4000106BF80F400000132C3
:106A6000013BB5E74FEA41037FEA226C18BF7FEA9A
:106A7000236C21D092EA030F04D092F0000F08BFDC
:106A80000846704790EA010F1CBF0020704712F0C3
:106A90007F4F04D1400028BF40F00040704712F102
:106AA00000723CBF00F50000704700F0004343F067
:106AB000FE4040F4000070477FEA226216BF08469D
:106AC0007FEA23630146420206BF5FEA412390EA60
:106AD000010F40F4800070474FF0000304E000BF56
