:020000040800F2
:1010000000500020B1600008AD600008AB6000082F
:10101000AB600008AB600008AB6000080000000097
:10102000000000000000000000000000AD600008AB
:10103000AD60000800000000AD600008AD60000871
:10104000AB600008AB600008AB600008AB60000854
:10105000AB600008AB600008AB600008AB60000844
:10106000AB600008AB600008AB600008AB60000834
:10107000AB600008AB600008AB600008AB60000824
:10108000AB600008AB600008AB600008E12F00080F
:10109000C12F0008D12F0008AB600008AB6000082A
:1010A000AB600008AB600008AB600008AB600008F4
:1010B00035160008AB600008AB600008AB600008A4
:1010C000AB600008AB600008AB600008AB600008D4
:1010D000AB600008AB600008AB600008AB600008C4
:1010E000AB600008AB600008AB600008AB600008B4
:1010F000AB600008AB600008AB600008AB600008A4
:10110000AB600008AB600008AB600008AB60000893
:10111000AB600008AB600008AB600008AB60000883
:10112000AB600008AB600008AB600008AB60000873
:10113000AB600008AB600008AB6000080D30000831
:10114000ED2F0008FD2F0008AB600008AB60000821
:1011500010B404466468084611461A46234610BC7B
:10116000184783681847000070B51424104D2B6889
:10117000013393FBF4F604FB16330E4C24689C42B7
:1011800014D02E680C4C3601A05128680E6804EB70
:10119000001046602868496804EB00108160012057
:1011A00029682B6004EB0114227370BD0020FCE75A
:1011B0001C0600201806002020060020024B1B7889
:1011C0000BB103F059BE70470006002010B51F4C4C
:1011D00000224FF40171206801F043FF00224FF418
:1011E0002D71206801F03DFF00224FF41971206835
:1011F00001F037FF00224FF42971206801F031FF20
:1012000000224FF43171206801F02BFF00224FF4CF
:101210006971206801F025FF002240F22441206816
:1012200001F01FFF002240F20451206801F019FF75
:10123000002240F26C71206801F013FF2068002248
:10124000BDE8104040F2091101F00BBF100600206C
:101250008188006804F0CEBA8188006804F0CCBAB6
:10126000554B13B59988186804F0C9FA04F0D0FA00
:10127000524B186800F06BFC05F0E2FB504905F09A
:10128000E7FC01462D2000F0B9FC04F09BFC01F0C6
:10129000F9FB04F097FC01462C2000F0A1FC494822
:1012A00001F0F8FA05F0CCFB474905F0D1FC014606
:1012B0000F2000F0A3FC0B2000F07CFCC0B205283E
:1012C00017D8DFE800F00343161653660122002406
:1012D0003E4B3F481A703F4B1C70FFF7BDFF3E4826
:1012E000FFF7B6FF3D48FFF7B3FF21460D2000F0A2
:1012F00077FC03F01BFE0B2000F05CFC20B31520F4
:1013000000F058FC04461D2000F054FC80008DF8CD
:10131000044000F00C00C4F3012404431C208DF8A9
:10132000054000F04FFC264905F0DEFB05F052FDBC
:101330008DF80600002001F047FC03684FF484712B
:101340005C6801AA0323A04702B010BD01231F4A15
:101350001F4813701F4A1370FFF77AFF1F48FFF7EB
:1013600077FF1D48FFF778FF0221BFE704F02AFC52
:101370000022164B19481A700122164B1A70FFF7FB
:101380006BFF1348FFF764FF1348FFF765FF032166
:10139000ACE701230D4A002113700E4A0D20137093
:1013A00000F01EFC0A48FFF753FF0B48FFF750FF01
:1013B0000A48FFF74DFF9CE7C407002014060020F1
:1013C00000002041E0070020026B5F43FD05002084
:1013D000A4070020000600209C070020940700209E
:1013E000FEE710B5044601780B2000F0F9FB02205F
:1013F000B4F8031000F0F4FB0E20B4F8051000F070
:10140000EFFBE179012001F00F01013100F0E8FB71
:10141000E3791B090A2B03D101210C2000F0E0FB2A
:10142000E07900090C2804D1BDE81040002100F04B
:10143000D7BB10BD38B50E2000F0BCFB114B0446E5
:101440001B78114D13B10020288038BD1B2000F0FF
:10145000B1FB0628F7D12888A3B2984208D21C1AFB
:10146000643080B2642CC8BF034618462B80ECE77A
:10147000EBD9A4B2041B0A3880B20A2CC8BF0346B9
:10148000F3E700BFFD050020FE0500207FB5544CAA
:10149000544D554E22682B689A4208D1534B544CF8
:1014A0001B78002B5FD10023237004B070BD23682C
:1014B00006EB03130FCB8DE80F0014222368B0F561
:1014C000317F03F1010393FBF2F102FB113323603F
:1014D00039D018D8B0F5197F2DD00AD840F20912AA
:1014E00090423CD0B0F5017FD4D101A803F062F85E
:1014F000D0E7B0F5297F22D0B0F52D7FCAD101A861
:1015000003F09EF8C6E740F20452904223D00AD876
:10151000B0F5697F1BD040F224429042BAD101A8B5
:1015200003F06AFAB6E740F26C729042B2D101A8B9
:1015300003F090FAAEE701A803F0CAF8AAE701A801
:1015400003F02EF9A6E701A803F0AAF9A2E701A883
:1015500003F02CFA9EE701A803F074FA9AE701A8B9
:10156000FFF73FFF96E70A222378B3FBF2F102FB75
:101570001133DBB2052B05D103F0BCFA03F038FBC5
:1015800003F04AFC2378142B1DD009D88BB10A2B09
:1015900014D023780133DBB2632B237083D884E724
:1015A0001E2B15D0282BF4D103F0FAFB03F00AFC14
:1015B000EFE703F0C9FA03F0DDFAEAE703F0F0FA27
:1015C00003F04AFBE5E703F05BFB03F07FFBE0E79A
:1015D000FFF730FF03F09CFB03F0CEFBD9E700BF21
:1015E000180600201C06002020060020000600200F
:1015F000FC050020082870B50DD0092815D10B4B2B
:101600001C6823681D6800F0D5FA2B46C1B220463D
:10161000BDE870401847064B1C6800F0CBFAC1B219
:101620002046BDE8704002F007BA70BD10060020E9
:1016300008060020014B186800F052BA140600207A
:101640002DE9F043ADF63C0D00F014F900F09EF9E1
:1016500000226A496A4801F05DF905226749694834
:1016600001F058F9042308226749684800F0C3FED6
:10167000042310226449664800F0BDFE07234FF49E
:1016800000526449644800F0B6FE072304225B4917
:10169000624800F0B0FE072308225849604800F075
:1016A000AAFE07234FF4004257495E4800F0A3FE0C
:1016B00007234FF4804254495B4800F09CFE072307
:1016C0004FF400525049594800F095FE4FF48052B3
:1016D00007234D49564800F08EFE01F06FF800F0E8
:1016E00009F94FF480414FF0007004F079F800F0F0
:1016F00059F900F041F901F097F94E4B0920039395
:101700004D4BBEAC04934D4B0DF25456059300F077
:1017100051FA0123C2B24A49204601F0A9FB494BC4
:1017200003A920461C6001F08DFCFFF74FFD214608
:101730000122304602F0FEF8DFF80C81434B10AD79
:10174000324621462846424F1E60C8F8006002F02B
:1017500049F908203D6000F02DFA0126C1B2284663
:1017600002F06AF906ACD8F800203A4B4FF08041FD
:1017700020461A6000F05EF9374B0DF1CC091C6071
:10178000364A0023CDE9006635494846DFF8D48063
:1017900000F0D6FA642220463349C8F8009000F0E1
:1017A0006BF932222046314900F066F93246204674
:1017B0002F4900F061F904210A2000F011FA4FF0DE
:1017C000000695F888408DF80B6004B130ACD8F86D
:1017D000000000F06DFC3868436923B90DF10B017E
:1017E000043002F085FC002CEBD0204602F03CFBDC
:1017F0002146284602F043F9E3E700BF0008014014
:10180000E4070020E0070020000C0140D40700207E
:10181000CC07002000100140C4070020BC070020B6
:10182000B4070020AC070020A40700209C0700207C
:10183000940700209C6E000869110008CD11000873
:1018400000640040100600200C0600203008002034
:10185000080600202C08002014060020748B0008C5
:10186000004800400406002061120008BD11000875
:101870008D14000808B504F0E3F84FF0E0231C4A8B
:1018800040F20230C3F80C2D04F020F940F203308E
:1018900004F01CF94FF4417004F018F940F20530DF
:1018A00004F014F940F20E3004F010F940F29230D6
:1018B00004F00CF94FF4607004F008F940F2813044
:1018C00004F004F94FF4207004F000F940F20930FC
:1018D00004F0FCF840F2862004F0F8F84FF4407071
:1018E00004F0F4F8BDE8084040F2993004F0EEB896
:1018F0000003FA05F0B597B003F006FE044600F5C4
:10190000FF3000F2FD1014220021850201A800F032
:101910006CFD4FF49033154A1549CDE90123154B61
:10192000CDE9031303F0D4FD142101A803F0DEFD7B
:1019300015902B6D834217D003F0FCFE284603F070
:10194000B5FE15266FF00307A40204F1006401AD93
:10195000A4F6AC3407FB064055F8041B03F004FF63
:10196000013EF7D103F0F2FE17B0F0BD00100140C8
:10197000000C01400600010008B51C2004F002FC28
:10198000BDE80840E0211C2004F00ABC08B5032093
:101990004FF2234104F048F9BDE80840002004F06C
:1019A0001BB9000008B54721214804F078F94FF62B
:1019B000FF711F4804F075F91D4804F061F9042116
:1019C0001B4804F001FB0121194804F0F4FA5021EE
:1019D000174804F001FB0F220021154804F08BFA90
:1019E0000F220121124804F086FA0122002110483A
:1019F00004F0A9FA01220E48114604F0A4FA0021CD
:101A00000B4804F016FA0221094804F037FA0021C5
:101A1000074804F0C9FA0121054804F0C5FA044852
:101A2000012104F060FABDE80840014804F02DB936
:101A30000004004038B50C4605460162084604F033
:101A40001AF9204604F01CF9094B20461968094B85
:101A50004900B1FBF3F1013904F021F920464FF6BA
:101A6000FF7104F01EF9002328466B6238BD00BFE9
:101A7000F4050020A0860100F8B5436A0446032B54
:101A80000F462ADC006A02EB8205144E04F002F9CC
:101A9000636A0122F15C206A04F005F9636A00229E
:101AA000F15C206A04F00FFA0221636A05EB8505F8
:101AB00003F10802AD0044F82370994024F8125055
:101AC000206A04F0CBF80021206A04F012FA206AA0
:101AD00004F0DBF8636A01336362F8BDA46E0008AA
:101AE0002DE9F843044600254FF0020800F11006E6
:101AF000636A08FA05F7AB420ADC3946206A04F04B
:101B0000B7F80135042D06F10206F1D1BDE8F883DE
:101B10003946206A04F0A6F8A8B1206A04F0E7F973
:101B2000236A3188343353F8252081460A4443F828
:101B3000252054F825309847206A04F0D8F9A0EB06
:101B400009003081D9E7636AAB42DADCD5E70021CE
:101B500070B500F10E03446A4FF47A7508468C4262
:101B600000DC70BD5A8933F8026F6A43B2FBF6F2AB
:101B700001311044F3E7000010B51C24084B04FBAE
:101B80000033DC688C4209DC1B698B4206DB054BA9
:101B900043F82010FFF72EFD002010BDFF20FCE7CA
:101BA000B800002000000020014B53F820007047CF
:101BB00000000020024B53F820004011704700BF86
:101BC0000000002008B5054B53F8200004F038FF52
:101BD0004FF0745104F088FF08BD00BF00000020E2
:101BE000024B490143F82010704700BF000000205D
:101BF000014B43F8201070470000002010B5044648
:101C000008464FF0844104F06FFF05F0BDF8024B29
:101C100043F8240010BD00BF0000002070B5064648
:101C20000024074D3146686800F03EFB08B9E0B279
:101C300070BD01342E2C05F11C05F3D12F20F7E7E0
:101C4000B80000200023064A118B814201D1D8B28E
:101C5000704701332E2B02F11C02F5D12F20704763
:101C6000B80000201C22024B02FB0030704700BF6E
:101C7000B80000200023064A0649108B10B15069B5
:101C800041F8230001332E2B02F11C02F5D17047DD
:101C9000B800002000000020014B1954704700BF1D
:101CA00060070020024B1A5C11431954704700BFB3
:101CB00060070020024A135C23EA010313547047B3
:101CC00060070020014B185C704700BF60070020D0
:101CD0001C22024B02FB0033987E7047B8000020A4
:101CE00000487047F01B0100024B1A68024BC3F812
:101CF000BC247047E0050020B80000202021806847
:101D000004F0CDB9806804F0C2B910B50446436848
:101D1000597A586803F061FC636804F12A02597A21
:101D2000586803F06CFC63688022597A586803F0A5
:101D300076FC6368BDE81040597A586803F044BCEB
:101D400070B5026140F201120D464C498282016079
:101D500001210022817580F8281004460421C0E981
:101D6000062280F8202042629DF81020856080F8CD
:101D700029209DF81420037380F82A22404A4260EB
:101D80001068A84203D01C3201396260F8D13D4985
:101D90000C60002B6FD05069138B0222032103F0DB
:101DA000EFFC28464FF4E13104F01EF928460821E3
:101DB00004F02EF928464FF4005104F032F9284679
:101DC0000C2104F03AF92846002104F030F90021F2
:101DD000284604F038F9284604F04BF9284604F068
:101DE0004DF96368197A586803F094FB6368197AAF
:101DF000586803F0E0FB63682A1D197A586803F0FD
:101E0000F5FB63680022197A586803F0B1FB636838
:101E10000022197A586803F09EFB6368197A5868A3
:101E200003F0B3FB6368597A586803F073FB636887
:101E30002A1D597A586803F0D9FB63680022597A41
:101E4000586803F095FB63680022597A586803F0DC
:101E500082FB6368597A586803F097FB6368586897
:101E6000597A03F0B1FB2046FFF74FFF284604F0F4
:101E7000F0F8204670BDD068138A8EE7008B00080A
:101E8000048B00089007002038B5437D0D4643B110
:101E90000469216819B1284600F006FA20B92368C0
:101EA00003B90024204638BD0834F2E738B50446AB
:101EB0000D4663680222197A586803F042FB18B98C
:101EC00094F82830002BF4D06368197A586803F02E
:101ED00084FB6368AAB2197A586803F0A0FB94F8EF
:101EE0002020636804EBC212197A5868AA3203F002
:101EF00086FB63680222197A586803F01CFB63684A
:101F0000197A586803F060FB94F82030B3FA83F331
:101F10005B0984F82030002384F8283038BD10B5E0
:101F20000446A37D084623B9A068BDE8104004F02C
:101F300095B894F82030626A04EBC31313440A285E
:101F400002F1010183F8AA0001D07F2A05D12046C1
:101F5000FFF7ACFF0023636210BD6162FCE7802ADB
:101F600028BF8022002330B4934203D130BC1946ED
:101F7000FFF79CBF90F82040CD5C00EBC4141C44DC
:101F800084F8AA500133EFE738B5054608460C46F9
:101F900000F0A1F9214602462846BDE83840FFF787
:101FA000DEBF000010B50446084600F0E7F900F077
:101FB000CCF9217D227B8142636811D101216175B9
:101FC0005AB158691B8B0321022203F0D9FB20462A
:101FD000BDE810400949FFF7D7BFD8681B8AF2E770
:101FE000002161753AB158691B8B0122BDE8104090
:101FF000002103F0C5BBD8681B8AF6E712860008EB
:1020000030B5044685B0084600F0B8F90378302BA7
:1020100026D0322B144D18BF4FF46125637DA3B138
:102020000A22294601A800F066F920460F49FFF769
:10203000ABFF20460E49FFF7A7FF204601A9FFF797
:10204000A3FF20460B49FFF79FFF2946A06803F036
:10205000CBFF0021A06805B0BDE8304003F0E1BF30
:102060004FF4E135DAE700BF105522001186000871
:1020700017860008A78A000810B50446084600F035
:102080007DF9037823B1303B18BF012384F8293050
:1020900094F829302BB104492046BDE81040FFF7E1
:1020A00073BF0249F8E700BF2686000830860008A3
:1020B0002DE9F04143680446597A586803F0A8FABC
:1020C0000546C0F1800710B92046FFF71EFE94F8C0
:1020D0002930A06813B1E369BB4258DB082103F043
:1020E000DEFF10B1A06803F0D2FF7F2D00F3A180C6
:1020F000631B93F8A9300A2B02D00D2B40F0868089
:102100006368597A586803F068FA7F2D3AD0002244
:10211000E31983F82A202021E26104F12A0000F06B
:10212000E1F890F800800546B8F1000F37D10A2198
:1021300004F12A0000F0D6F8054684F8AA812B782D
:102140002BB90D2104F12A0000F0CCF8054600233C
:1021500039492B7004F12A00A36100F0A5F820BBD7
:10216000204604F5D571FFF71DFF0027A369002B5A
:1021700042D0A06803F08FFFA36920465B6804F596
:10218000D57198472046BDE8F041FFF7BEBD5A1C07
:10219000E261234493F82A1003F060FF97E7411CA3
:1021A00004F5D57000F08EF8C9E7244904F12A003F
:1021B00000F07AF868B994F82A322BB1204604F579
:1021C000D571FFF71DFFD0E720461D49FFF7DCFE64
:1021D000CBE71C4904F12A0000F066F828B9204634
:1021E00004F5D571FFF748FFBFE7204604F12A0147
:1021F000FFF74AFEA061B9E7012FC3DD637D002B25
:10220000C0D020461049FFF7BFFEBBE794F82A3044
:10221000212B0ED1A36963B12046FFF776FD002381
:10222000E361A369204604F5D5715B68BDE8F04120
:102230001847BDE8F08100BF3B86000846860008CD
:102240004F860008688600086D860008034BC1B2FF
:102250001B681A6818461268104700BF90070020D4
:10226000704700F043BC000007B50649D1F8F027DD
:10227000D1F8EC37D1F8E8170091034900F090FA53
:1022800003B000BD00F0FF1F8886000810B50446AB
:10229000FFF7F0FC2046BDE81040014900F080BA8D
:1022A0009986000801F024BF431E013913F8010F7D
:1022B00011F8012F10B10AB19042F7D0801A18BF5F
:1022C00001207047013911F8013F0BB903707047C5
:1022D00000F8013BF7E70023C25C0AB918467047D3
:1022E0000133F9E703461A7818461AB18A4203F116
:1022F0000103F8D17047002970B51EDA2D2301249F
:1023000000F8013B4942064691FBF2F302FB131130
:1023100030313170191E354606F10106F4DC002219
:102320000346201A30443270AB420BD21A78297817
:1023300003F8011B05F80129F6E704D130234170A9
:102340000370012070BD0024DDE730B503782D2B2C
:1023500011D14FF0FF34013000210A25431E01E066
:1023600005FB012113F8012F303AD0B20928F7D923
:1023700004FB01F030BD0124EEE7000010B5144C61
:1023800002780146A2F10A03DBB2162B1BD824FA0D
:1023900003F3DA0700F10100F2D40846FFF79BFFD0
:1023A00001380844814204460AD203780A3BDBB272
:1023B000162B05D8064A013822FA03F3DB07F1D4BD
:1023C0000023637001E0002AE7D1084610BD00BF7A
:1023D00009004000002310B5934200D110BD51F810
:1023E000234040F823400133F6E702B97047013A31
:1023F00040F8041BF9E72DE9F041174682800022DE
:10240000013B0E4601608271082B0BD8DFE803F018
:10241000080E0C18150524261A000024002513E0C8
:10242000012383710224F9E701238371022400252B
:102430003946304603F0DEF906E001248471EDE709
:102440000124EBE7022403253B4622462946304679
:10245000BDE8F04103F094B90024F4E7012403251A
:10246000E6E700004FF40042014B1A80704700BFBE
:10247000DC07002070B50C1EACBF01234FF0FF330A
:102480005C430133064608BF2D234FF0640208BFAA
:1024900006F8013B611104F01F0405465443304621
:1024A0000A22FFF728FF2E226411092C3254D8BFCC
:1024B000302206EB0003D8BF5A7021464FF00A02C3
:1024C000CCBF581C981CFFF716FF284670BDF0B50E
:1024D000027803462D2A13D14FF0FF300133002537
:1024E0000A2702E007FB052501331C78A4F130021E
:1024F000D6B2092EF6D9A4B98D4025446843F0BD63
:102500000120ECE78A4002EB660292FBF6F20CFB3C
:1025100006F6144413F8012F303AD7B2092FF1D937
:10252000EAE70A260024B446F4E72DE9F843141E2E
:102530000646894614DC2027DB071FD50025C84640
:1025400026E0013219F802100029FAD1A242ACBFEC
:102550000C46A41A13F0020F14BF30272027EBE714
:102560000022EFE73368414630461B689847013D3B
:10257000002DF7DC24EAE475641BE0E725465FFAEA
:1025800087F8F5E7336830461B6808F1010898477B
:1025900098F800100029F5D1A5EB09054544A0469F
:1025A000FFB2B8F1000F05DC002CACBF2819281CC5
:1025B000BDE8F8833368394630461B68984708F110
:1025C000FF38EEE72DE9F04385B08046DDE90C6980
:1025D0001C460D4651B930233246ADF800306946ED
:1025E0004B46FFF7A2FF05B0BDE8F08323B10A2AEE
:1025F0002DD100292BDA4D4200238DF80D300E9B92
:102600000DF10D0C3A3BB5FBF2F002FB1051CF1867
:10261000092988BF3946AA4201F130010CF1FF3780
:102620000CF8011C15D954B1B6B119F0020F13D032
:10263000D8F800302D2140461B689847013E4B4694
:10264000324639464046FFF770FF2044CBE700246E
:10265000D2E70546BC46D6E72D23002407F8013C07
:10266000ACF10207EBE70846FFF7F0BD2DE9F043B8
:1026700080460E46144600254FF00A098DB0317889
:1026800019B928460DB0BDE8F08325296DD17178C0
:102690000029F6D0252906F1010065D02D290ABFB1
:1026A00001270027B01C0378302B14D000220378B8
:1026B0000646A3F130015FFA81FCBCF1090F0ED987
:1026C000662B3DD00FD8632B44D0642B1CD0582BE5
:1026D0002ED00136D3E7013047F00207E3E709FBCC
:1026E00002120130E3E7752B24D0782B19D0732B1D
:1026F000EFD1216820483B46002908BF0146043439
:102700004046FFF712FF0AE06123CDE90173012380
:1027100000920A22216840460434FFF753FF054423
:10272000D7E76123CDE90173009200231022F1E77E
:102730004123F7E761230092CDE901730023E8E725
:10274000216808A805920434FFF794FE3B46059AD9
:1027500008A9D5E7236807A98DF81C3000230434A5
:102760008DF81D303B46CBE70646D8F80030404692
:102770001B6898470135ACE7EB8600080FB407B536
:1027800004AA52F8041B054B6846CDE90032FFF756
:102790006DFF03B05DF804EB04B07047EC8B0008EC
:1027A0000EB403B503AA52F8041B0192FFF75EFFB3
:1027B00002B05DF804EB03B07047000008B529488B
:1027C00002F03CFC274802F03EFC264802F045FCA3
:1027D000244802F03DFC0721224802F01AFC21485F
:1027E00002F0E0FB1F4802F0F7FB1E4802F007FC76
:1027F0001D4A02211B4802F035FC1A4802F075FC04
:102800004FF46021174802F0DDFB0121174A1848F8
:1028100002F0ECFE0121174A154802F0F0FE4FF4D9
:1028200080720121124802F0A3FE4FF48062012160
:102830000F4802F090FE182201210D4802F0EFFE31
:1028400001210B4802F0A1FE0121094802F0A6FE79
:102850000748012102F0B8FEBDE80840014802F037
:102860003ABC00BF00240140180800204C2401405D
:1028700000000240E8070020884207DD914203DCA7
:1028800001469142A8BF1146084670479042F8DDC4
:102890000146F9E737B56D46046804F10C033C3492
:1028A00033F8042C33F8081C33F80C0CFFF7E4FF62
:1028B0000C33A34225F8020BF2D1BDF80230BDF86B
:1028C00000001844BDF804301844BDF80630184420
:1028D000C0F38F0003B030BD08B50D4B98420BD04C
:1028E00003F5806398420BD0A3F5006398420BD1A7
:1028F000072909DCC8B208BD012905DC0831F9E760
:10290000052901DC0A31F5E702F054FB1020F2E75B
:10291000000C0140012370B593400D46164600227D
:102920000446114628469BB202F02AFF054B246854
:1029300031462846E41AFFF7CFFF034BC4F34F0498
:10294000185570BDE807002018080020034B044A02
:102950001360044A02331360704700BFE807002089
:10296000E4070020E00700202DE9F04FADF2044D10
:1029700002F0CAFDFF2605464FF0FF3A6FF0030252
:10298000840202FB064303F1006353F8043C013E5A
:102990000AEA030AF5D202F09BFD31464FF4807239
:1029A0006846FFF722FDE8466E460027F8B2FFF7BB
:1029B0008FF970B9F8B2FFF755F98346F8B2FFF70F
:1029C00081F9F070BBF81830F8B23380FFF7ECF8FB
:1029D000706001372E2F06F10806E7D1FE21684608
:1029E00002F084FDFE9002F0A5FEBAF1FF3F06D092
:1029F00005F5FF3000F2FF10800202F057FE0025BF
:102A000004F10064A4F58064601958F8041B0435CF
:102A100002F0AAFEB5F5806FF6D102F097FEFE989F
:102A20000DF2044DBDE8F08F70B502F06DFD00F5BC
:102A3000FF3404F2FF14A40202F04AFDFE212046F6
:102A400002F054FDD4F8F833834217D104F57E76B2
:102A50002088FFF7F7F82F2805460AD0FFF738F946
:102A600038B928466168FFF7C3F82846E178FFF7D0
:102A700013F90834B442EBD1002070BD4FF0FF30A1
:102A8000FBE70000014B1860704700BF1C080020E6
:102A9000032807D8044A02EBC0035B6813B112F89D
:102AA0003000704700207047C005002003289DBFFC
:102AB000024B03EBC003586800207047C00500209C
:102AC00010B4074B03EBC1021479064A53F83130B6
:102AD00052F82420014610BC0348FFF74FBE00BF48
:102AE000FC8B0008F08B0008F286000838B5094C12
:102AF000636853B10025606830B114F8081B0135D4
:102B0000FFF7DEFF042DF6D138BD0348BDE838409D
:102B1000FFF734BEC00500200287000830B50C2442
:102B2000002361430B4A8BB054185258A568CDE975
:102B30000332CDE90733CDE9013364680695059486
:102B4000009301221946D0F8580202F0DFFA0BB0C8
:102B500030BD00BF288C0008F7B504460E46154668
:102B60001F4672B60121D0F8580202F0DEFBCDE913
:102B70000075B6F5006F34BF0022012200233146F4
:102B8000D4F8580202F0D6FB002818DAD4F85432F0
:102B9000132B07DD0121D4F8580202F0C2FB62B604
:102BA00003B0F0BD04EB0312C2E9456729680133A5
:102BB000C2F81C116968C2F82011C4F85432D4F864
:102BC0005432002BEBDDE5E70128DABF024B53F866
:102BD00020000020704700BF20080020F0B5044608
:102BE00000278BB0CDB20DF11A0303930DF11B0337
:102BF00002930DF11903019308AE06AB00930597FC
:102C0000049601222946D4F8580207AB02F009FCC9
:102C100008B90BB0F0BD324620469DF81A3007992E
:102C200000F052FA02F0CEFFC4F8F800DBE773B50B
:102C3000044640F2FF7600F58A75D4F85432002B32
:102C40001CDD03F18053013B1A0105EB0313A95866
:102C500003F1080201921B79B142009394BF002254
:102C600001220023D4F8580202F064FB002805DB9F
:102C7000D4F85432013BC4F85432DEE7D4F854326D
:102C80003BB90121D4F8580202B0BDE8704002F00F
:102C90004CBB02B070BDF0B51C460127106885B072
:102CA0009B8815460E466288218802970740019747
:102CB000E7885B017F01BFB2520149019BB292B22A
:102CC00089B2009702F010FB002333602A680132BA
:102CD0002A60E380A3806380238005B0F0BDF0B557
:102CE0001C460125106885B09B8816460F466288F1
:102CF0002188029505400195E5885B016D01ADB223
:102D0000520149019BB292B289B2009502F0DCFAFD
:102D100000233B60326801323260A380238040F29E
:102D2000FF73E380638005B0F0BD73B5106815468E
:102D30000E465A6819681C460123D200C900009348
:102D400042F00402034041F0040102F0DDFA0023E6
:102D500033602A6801322A60C4E9003302B070BDD2
:102D600070B504460023002526463E498AB008680F
:102D7000496806AA03C2D4F858223B49CDE9083372
:102D80008A42CDE90433CDE9003302931EBF374BAD
:102D9000D3F8003AC3F305230393C2F81C52D4F8C6
:102DA000F430009AAB421BDC002A05DD6946204660
:102DB00004AB03AAFFF76FFF019B002B05DD204644
:102DC00006AB03AA02A9FFF78AFF029B002B05DDD1
:102DD000204608AB03AA02A9FFF7A7FF0AB070BDFF
:102DE00056F8043FB3F5006F26D3029A0AA901EB07
:102DF000820123F06043013241F8083C0292009BBB
:102E0000042B05D16946204604AB03AAFFF743FF14
:102E1000019B022B05D1204606AB03AA01A9FFF7AF
:102E20005EFF029B022B05D1204608AB03AA02A934
:102E3000FFF77BFF0135B2E7B16F51B1019A0AA8E4
:102E400000EB420020F8103C931C019320F80E1C6C
:102E5000D5E70AA901EB4201013221F8183C0092A2
:102E6000CDE700BF648C00080064004000600040B3
:102E7000F8B504460E461D46174600F0CFF800216F
:102E80004A4BC4E995162360494B9E421AD003F57C
:102E900080639E4253D0D4F8580202F02BF9394691
:102EA0002046FFF73BFE2046FFF75AFFD4F85802B2
:102EB000022102F036FAD4F85802102102F031FA59
:102EC0002046F8BD4DB34FF480730222394802F01A
:102ED00057FC4FF48071374802F08CFC4FF40073BC
:102EE00002220321334802F04BFC142003F04AF97C
:102EF000F021142003F054F9152003F043F9F021D8
:102F0000152003F04DF9132003F03CF9F0211320B4
:102F100003F046F9284B1C60BDE74FF40063022222
:102F20002946264802F02CFC4FF40061234802F0A9
:102F300061FC4FF48053022203212048D3E735B3CC
:102F4000202302221B4802F01BFC2021194802F01A
:102F500051FC402302220321164802F011FC4020BC
:102F600003F010F9F021402003F01AF9412003F09A
:102F700009F9F021412003F013F93F2003F002F991
:102F8000F0213F2003F00CF90B4B5C6083E74FF41A
:102F9000805302222946074802F0F2FB4FF4805189
:102FA000044802F027FC4FF40053D3E71C8C0008C0
:102FB00000640040000C014020080020000801408F
:102FC000024B00211868FFF709BE00BF200800204F
:102FD000024B01211868FFF701BE00BF2008002046
:102FE000014B1868FFF723BE20080020024B002188
:102FF0005868FFF7F3BD00BF20080020024B0121F5
:103000005868FFF7EBBD00BF20080020014B58684F
:10301000FFF70DBE2008002070477047074B036084
:103020000023C0F8F430C0F8FC30054BC0E9403351
:10303000C0E94233C0F81031704700BF748C0008FB
:10304000E4050020D0F8FC30042BDFBF03F1400280
:10305000013340F82210C0F8FC30D4BF012000201A
:103060007047D0F8F43070B51D2B15DC05460024F0
:10307000A3420BDC00EB83046160E2670133C0F81C
:10308000F43003689B689847012070BD55F8046FC1
:103090008E4201D00134EBE70020F6E770B505461B
:1030A000002455F8FC3BC0F8F4409B68064698475E
:1030B000D6F8FC30A34200DC70BD55F8040F013493
:1030C00003685B689847F3E72DE9F04705460F462C
:1030D00090469946002400F1FC06D5F8FC00A04279
:1030E00001DCBDE8F08756F8040F42460368394614
:1030F000D3F800A04B46D0470134EEE7F8B50646BA
:1031000000F1440700F1480414F8023C322B10D0BF
:1031100034F8043CE51BC3F3C02123F40063002210
:10312000706803EB4171FFF79CFF382D04F1040434
:10313000EADDF8BDF0B591B102F111040F2A00EB00
:1031400084040AD8A578322D07D00C27002107FB6C
:10315000050580356E7AFF2E03D1002007E0941C10
:10316000ECE70BBB21B14E72FF2301206B72F0BD67
:10317000322E15D1C2F10F02A61E8A4204D04B1C7A
:1031800016F8230032280DD10139C9B204EB8103AE
:103190009A78A27034F82120228032229A70E3E7D4
:1031A000A670E1E71946E8E707FB0606013B29465A
:1031B000DBB206F18005CDE72DE9F0414FF0020CBE
:1031C00088464FF00C0E002100F108073D46002212
:1031D0000CE000230EFB04048034667AFF2E0FD12E
:1031E0000435EB1B0132382BD2B202DCAC78322C26
:1031F000EFD101218C4500F144070FD08C46E5E763
:10320000A488444505D00EFB0606013306F1800470
:10321000E3E7DBB2BDE8F041FFF78CBF0020BDE87B
:10322000F0812DE9F04100244FF00C0EDDF824C0B0
:1032300000F108078CF800403D4609E00EFB04044D
:103240008034667AFF2E11D10435EC1B382C02DC59
:10325000AC78322CF2D101259CF8004000F14407F3
:103260008CF80050002CE7D0002019E0B4F804805E
:10327000884517D12988C1F3C02021F4006141EAB3
:10328000407101201160E2791A7094F90820069BC0
:103290001A702268079B1A6094F90620089B1A701E
:1032A000BDE8F0810EFB060606F18004C9E730B5E3
:1032B000044691B102F111010F2A04EB81010AD8F1
:1032C0008A78322A07D00C2505FB024202F18000E1
:1032D000427AFF2A03D100200BE0911CECE74BB9A6
:1032E0000B88C3F3C02223F4006343EA4273039ABA
:1032F000136030BD013BDBB2E6E72DE9F04F064637
:103300004FF002094FF000084FF00C0A87B005910A
:1033100000F108073D1D15F8024CAB46322C1AD1BE
:1033200026E035F8040C94F90830E27920F4006CBA
:10333000C0F3C0212079CDF8088094F906E04CEA6A
:103340004171CDF804E0D4F800E0DDF814C0CDF808
:1033500000E0E047647A0AFB046494F88930803422
:10336000FF2BDED1ABEB0703382B05F10405D2DDD3
:103370004FF00108C14506F1440701D0C146C9E735
:1033800007B0BDE8F08F322201F13C038A700431AE
:103390009942FBD1FF2200F5197380F889200C3087
:1033A0009842FAD1704710B5044600F10801FFF7C2
:1033B000EAFF204604F14401FFF7E5FF6068BDE83D
:1033C0001040FFF76BBE2DE9F041002488461F46F0
:1033D0002646151FBC4202DB3046BDE8F08155F899
:1033E000040F02F07DF82968064608EB840002F01D
:1033F000BBF90134EEE708468378322B08D0038806
:10340000534033F4006304D00430431A382BF3DD07
:10341000002070472DE9F843414B06461B781546BE
:1034200073B90A4600F14401FFF7E5FF40B10C23F0
:103430000127847803FB04648034637AFF2B01D175
:10344000BDE8F88394F908C0E3798CEAEC71A1EB4C
:10345000EC71BCF1000FC9B243DA1F2B2DD82A68DA
:1034600012BAC3F11F03DBB207FA01F0DA400138E8
:10347000104003F0E1FA814694F9060003F0E0FA07
:10348000494603F029FA216803F02EFB8146207992
:10349000FEF71EFC002838D14FF08441484603F067
:1034A00023FB03F071FC01462079FEF765FB0C233A
:1034B000647A03FB04648034BFE79C44BCF11F0FB3
:1034C0006A6801DD203BCBE7013328685B1ADBB279
:1034D000D840C3F1200302FA03F340EA03024B1E73
:1034E000BEE71F2B02D96A68203BBCE79C44BCF1B5
:1034F000200F2A68B8DD6868C3F1200CDA4000FAB2
:103500000CFC00234CEA0202AEE72079FEF7E0FB58
:103510000128C1D049462079FEF770FBC7E700BFFC
:1035200028080020F8B59DF91C40164605461A46A5
:103530009DF81870002C5ED084EAE470A0EBE47073
:10354000C0B2202857D8002C05DD3B19402B07DDE1
:103550006FF0010018E03F2FFAD83B190133F7DB79
:103560002846FFF748FF00284AD18C4601F13C036A
:103570009CF802E06046BEF1320F3FD00CF1040C23
:103580009C45F5D16FF00300F8BD0CF1010CBCF1C6
:10359000320F3BD16FF00400F6E75A4302F1800E80
:1035A0002A4492F88920AE44322AF6D103FB0C5308
:1035B000089DA3F88460C3F880509DF9245083F8D7
:1035C000877083F8865083F8884083F88920BEF19D
:1035D000000F0DD180F802C00B4600209A78322AE5
:1035E000D2D004335A1A382A00F10100F6DDCBE7B5
:1035F0008EF809C0F0E76FF00200C5E7ACF80020D4
:103600004FF0000C4FF00C0E05F189020EFB0CF38D
:10361000D35CFF2BB9D14FF0000E0C238278C3E7A7
:1036200030B5B2F5006F85B010D29DF928500395E2
:10363000099D02959DF92050CDE9003513460A46B3
:1036400000F10801FFF76EFF05B030BD4FF0FF300D
:10365000FAE7F0B5154622F00052B2F5006F0646C3
:1036600085B01AD29DF93070C5F3407403970B9F53
:1036700002979DF92870CDE9003742EAC4230A4633
:1036800000F14401FFF74EFF00220446294670680E
:10369000FFF7E7FC204605B0F0BD4FF0FF34F9E737
:1036A0002DE9F04F0E4600278DB0CDE90923089093
:1036B00001F132054FF6FF7335F8322CA8469A42D5
:1036C0003DD0A5F1300AA5F12A0414F9013CA14628
:1036D000002B2DDD34F8060CFEF7B4FA089B0B9096
:1036E0001B6834F9040C059335F8323C14F901BC1D
:1036F000069314F8023C079303F0A2F90A9A0346D2
:1037000022B14FF0745103F0EFF903460293079B87
:103710000B9A00930999069B05980397CDF804B07E
:10372000FFF700FFA9EB0A032A2B04F10604CCDD06
:10373000A8EB0603B3F5E17F05F13205BADD0DB064
:10374000BDE8F08F08B501F0DFFE00F5FF3000F5B1
:10375000FF70800208BD73B505460190FFF7F2FFC8
:103760000446D0F8E86301F0B3FEFA21204601F0E8
:10377000BDFE864211D10023214605F1080201A8B1
:10378000FFF78EFF01A8012305F1440204F5FA7149
:10379000FFF786FF012002B070BD0020FBE72DE996
:1037A000F041074688460D460C26AC78322C06D1EF
:1037B00011E02079FEF756FA038BA380647A06FBAA
:1037C000047494F889308034FF2BF2D10435A5EBD2
:1037D0000803382BE9DDBDE8F0812DE9F04107460B
:1037E00088460D460C26AC78322C05D110E0A08816
:1037F000FEF728FAA080647A06FB047494F88930F6
:103800008034FF2BF3D10435A5EB0803382BEADD18
:10381000BDE8F0812DE9F3410446FFF793FF012253
:10382000054603464FF0FF36274F3A7000F5806299
:1038300053F8041B934206EA0106F9D101F048FE51
:1038400001F078FF022001F06BFF013602D028461C
:1038500001F02CFF204604F10801FFF7A0FF2046ED
:1038600004F14401FFF79BFF294604F108020F23EE
:103870002046FFF7A8FD04F1440205F13C010F23A7
:103880002046FFF7A0FD04F1800205F178019623A0
:103890002046FFF798FD012301AA05F53771019035
:1038A0002046FFF790FD01F051FF204604F108018A
:1038B000FFF793FF204604F14401FFF78EFF00233A
:1038C0003B7002B0BDE8F08128080020F8B504463E
:1038D000FFF738FF0546D0F8DC6201F0F9FDB421AE
:1038E000284601F003FE864204D02046BDE8F84099
:1038F000FFF731BF04F10807294638460F22FEF7CB
:1039000069FD05F13C0104F144000F22FEF762FD60
:10391000962205F1780104F18000FEF75BFD39463F
:103920002046FFF75AFF204604F14401FFF755FFF8
:103930000120F8BD38B5044615460D4B0846C4E9CC
:1039400000312146FFF77EFB204604F10801FFF716
:103950001AFD204604F14401FFF715FD15B120467C
:10396000FFF7B4FF2046FFF7C9FB204638BD00BF74
:10397000988C000810B50446017C002201F5C06156
:103980008068FFF76EFB617C3F2907D8A0680022A2
:10399000BDE8104001F5B061FFF763BB10BD036ED9
:1039A0009BB14FF47A730366826DC36D9A4202D164
:1039B000036E002BF8DC836D5A1C03F03F030344B5
:1039C000826519764FF0FF3343617047A0F1040020
:1039D000FFF7E5BF10B403685C680823A44610BC79
:1039E0006047000010B50446124BE26023601433B8
:1039F000C4E901314FF6017323824FF0FF334022B7
:103A000063610023A365E2654FF47A7222662F2278
:103A1000A36684F8642084F87830E36784F88830FB
:103A200008462146FFF70EFB2046FFF7A3FF20467E
:103A300010BD00BFA88C000801748068FFF72EBB82
:103A400013B5ADF801309DF8103004468DF8033001
:103A5000059B8DF800100193437C934203D0427480
:103A60008068FFF71BFB0023617C6A46A06884F82E
:103A7000783001F5C061FFF7ADFF02B010BD10B5A1
:103A80000A46017C044601F5B0618068FFF7A2FF99
:103A9000002384F8883010BD45F20103B1F80120FD
:103AA00010B59A4216D10A78402A01D0002010BDE4
:103AB0004FF0FF3341240B714B710C7000234FF416
:103AC0007A748B71CB7104668365C265CB78436170
:103AD0000120ECE7012380F888300B7880F88030F3
:103AE000B1F80130A0F88130CB7880F883304B6892
:103AF000C0F88430DAE700002DE9FF41CE78B1F854
:103B00000120731EC3F34703002E18BF1E460C4648
:103B100003AB0093C2F3C018334607464146C06862
:103B200002F03F02FFF7C3FB23780546402B2ED15E
:103B300008B30079FEF796F8E37823B9039B636036
:103B40004323237020E0DB0708D595F90830EA7994
:103B50001B0643EA0243028B1343F0E7154928682A
:103B600002F0C2FF03F010F995F9063020F07F4013
:103B700040EA0363E3E7802323700023237163712A
:103B80000223A3710623E37104B0BDE8F081232B67
:103B9000F1D10028EFD06368002BECD1B4F80120FC
:103BA00033464146F86802F03F02FFF7C3FA60234C
:103BB000C7E700BF00007A442DE9F0430B780446C4
:103BC000232B0D46914685B00DD1CB78DBB94B68E0
:103BD000B3F1005F04D323F00052B2F5006F05D2B9
:103BE000A36660232B7005B0BDE8F0834FF0FF3370
:103BF000836680232B7000232B716B710223AB71C2
:103C00000623EB71EFE7876E7A1C14D0012B12D1DB
:103C1000486880B2FEF716F8A4F870006B682D288B
:103C2000C3F3054384F873306B684FEA236384F869
:103C30007430DED8D5E794F97480B8F1000FD8D08D
:103C4000022BD6D16E6846F3170002F0F9FE124936
:103C500002F0FEFF84463616E06694F87010E068C5
:103C600094F8733084F872603A460296CDF804C036
:103C7000CDF80080B9F1000F0AD0FFF7EAFC00236D
:103C800084F874304FF0FF330028A366A9DAB0E758
:103C9000FFF7C6FCF3E700BF00007A44F8B50A78E6
:103CA000054602F06003602B0C4621D1012302F08F
:103CB00010020A70EA6DA96D521A402A0AD0EA6D04
:103CC000511C02F03F02E9652A44127EE25401339E
:103CD000082BEFD1EA6DA96D521A402A2FD1227814
:103CE000C3F1080342EA430343F00103237026E0D3
:103CF000B1F80130B3F5005F15D003F47F46B6F597
:103D0000045F32D1C8781B029BB21844FDF79AFFBA
:103D10002D2823D82378232B19D16168FDF72CFF98
:103D200018B96023E2E7C878F2E7802323703023D4
:103D30002371002363710923A3710623E371297C96
:103D40002246A86801F5B061FFF744FE3CE0402B35
:103D5000F5D1FDF729FF43236060C7E78023237077
:103D60000023237163710223E6E7C76897B1B3F5B7
:103D7000405F03D10022FFF71FFFE0E743F2010796
:103D8000BB4201D10122F6E7B6F5445F02D1FFF74D
:103D9000B3FED4E745F203018B4205D1402ADDD1C1
:103DA000E078FEF775FED6E745F204018B4205D1B7
:103DB000402AD3D1E078FEF779FECCE721462846A9
:103DC000FFF76AFE0028BAD1F8BD0000F7B5037C02
:103DD000044603F5C0638B42154605D1114603B076
:103DE000BDE8F040FFF75ABF467C06F5B0638B4252
:103DF00021D1B2F80170A7F54053012B13D8D37825
:103E0000DBB990F9741090F87330090641EA034168
:103E1000B0F87030324619430123019100932321F9
:103E20003B46FFF70DFE2B78803B18BF012384F83B
:103E300078306B68E36703B0F0BD012BF3D109491B
:103E4000C06E02F051FE02F09FFF94F972303246CC
:103E500040EA036002230190009323213B46204661
:103E6000DFE700BF00007A44B0F8013010B5B3F5C9
:103E7000A04F04461CD10378402B4CD14323037040
:103E8000C378032B47D8DFE803F002070B0F264B5C
:103E9000D3F8E837636010BD234BD3F8EC37F9E76C
:103EA000214BD3F8F037F5E7FDF71AFF6060F2E732
:103EB00045F2020293422ED10378232B2BD16023AB
:103EC0000370C378032B26D8DFE803F00217202203
:103ED000164B1B784BB172B6154B186808B1FFF73B
:103EE00099FCFEF741FD62B6D5E78022037143716C
:103EF000837108230270E371CDE772B6FEF794FD7B
:103F000062B6BDE810402E20FDF774BB02F032F916
:103F1000FDF7B0FEF5E78023237000232371637162
:103F20000223A3710623E6E700F0FF1FE805002047
:103F30002C0800202DE9F04385B00E461746984620
:103F40009DF83890FDF78EFE124C456812492068A6
:103F5000FEF726FC2068B9F1000F18D00F49FEF7D4
:103F60001FFC9DF934304FF084410C98039302F00C
:103F7000BBFD02F009FFCDE90180009733462A46D8
:103F800007492068FEF70CFC05B0BDE8F083054941
:103F9000E5E700BF34080020558700085A8700086D
:103FA000628700085E87000870B504460846FEF781
:103FB000E5F920210546FEF795F903782BB910495C
:103FC0002046BDE87040FEF7EBBB0023052100F85A
:103FD000013BFEF77CFA06462846FDF71FFE2F2818
:103FE00007D03146FDF7C8FD08B90649E8E706499C
:103FF000E6E72A462046BDE870400449FEF7D0BBFC
:1040000076870008918700089A870008AF87000824
:10401000F8B507460846FEF7B1F904462C212046BC
:10402000FEF760F900230678054603702046FDF789
:10403000F5FD2F280CD0FDF7B7FD024606492C46AA
:104040003846FEF7ADFB2C2E04F8016BE6D0F8BD28
:1040500022460249F3E700BFC6870008CB87000865
:104060002DE9F04106460846FEF788F920218046F2
:10407000FEF738F9037804462BB918493046BDE8F5
:10408000F041FEF78DBB002505704046FDF7C6FDEB
:104090002F2807461AD06378212B0AD07E2B08D010
:1040A0002F2B06D0611C0E48FEF7FEF820B10D49FB
:1040B000E4E70125A11CF6E7012138461DB1FDF713
:1040C000F9FD0949DAE7FDF7EDFDFAE7424630462A
:1040D000BDE8F0410549FEF763BB00BFE587000876
:1040E000F5870008FC8700080B880008AF870008E8
:1040F0002DE9F04F04468DB00846FEF73FF94649DA
:1041000090F800802046FEF74BFB00274FF0200B75
:10411000DFF80891FEB23046FDF7A4FD05463046B3
:10412000FDF7D0FDC30702D5B8F1680F56D16B6813
:10413000AA68298B3046079306920591FDF734FD56
:104140000599069A079B02900191009234495A46BC
:104150002046FEF725FB0DF1270303930DF12603FF
:1041600002930BAB01930DF1250300933146D9F86F
:10417000000009AB0AAAFFF754F800B39DF92530F7
:104180004FF084410B98059302F0AEFC02F0FCFD69
:10419000244B9DF827C0244A9DF92610BCF1000F3E
:1041A00018BF1A469DF824B0059BCDE90212019074
:1041B000009320465B460A9A1C49FEF7F1FA304606
:1041C000FDF786FDD8B13046FDF782FD012816D0F7
:1041D00020461749FEF7E4FA4FF02C0B01372E2F3B
:1041E00098D1144B2046D3F8F0271349FEF7D8FA9C
:1041F000204612490DB0BDE8F04FFEF7D1BA029744
:104200002B68204601936B690D490093D5E9032380
:10421000FEF7C6FAE0E700BF278800083008002054
:10422000298800081C880008218800085788000891
:104230001C89000800F0FF1FF28800082D89000883
:10424000A48800082DE9F04F0D468BB00DF114093C
:10425000142200210446484602F0DCFD2846FEF701
:104260008DF80778702F0BD1554B564D186856496D
:104270002C60FFF742F800232B600BB0BDE8F08FF5
:10428000632F0AD14E4B1868FFF78DF84F4920462F
:104290000BB0BDE8F04FFEF783BA2021FEF722F8FD
:1042A00003780BB94A49F2E7FEF768F82021804607
:1042B000FEF718F803780BB9642FF3D106460025F2
:1042C000404606F8015BFDF7A9FC82463046FEF742
:1042D00055F8BAF12F0F804601D13E49D7E7642F38
:1042E0000CD1374B51461868FEF766FF02463A4933
:1042F00020460BB0BDE8F04FFEF752BA4FF07E56A5
:1043000020214046FDF7EEFF037883460BB9022DCE
:10431000C8DD002340468BF80030FEF716F8032D69
:104320002DD110214046FEF7D2F802F089FB4FF064
:104330005E5102F0D9FB06460BF10100FEF71EF8B4
:104340000135052D8046DBD1DDE90598079D1C4B25
:104350009DF924106AB2742F186802910092514698
:104360004A465FFA88F301960CD1FFF759F9431DCD
:10437000042B18D8DFE803F012150F0C090049F8D8
:104380002500D9E7FFF765F9F1E74A461349AFE79A
:1043900042461349ACE72A461249A9E74A46124960
:1043A000A6E7124973E7124A124B13490128D8BFF6
:1043B0001346024620460BB0BDE8F04FFEF7F0B9B9
:1043C0003008002034080020353F000833890008F9
:1043D00055890008688900087C89000891890008CF
:1043E000A5890008B9890008CD890008F589000869
:1043F000A98A0008D86E0008118A00080E4B10B573
:104400001B78044693B172B60C4B1868FFF702FA9A
:104410000B492046FEF7C4F9FEF7A6FA024662B63B
:1044200008492046BDE81040FEF7BAB90649BDE884
:104430001040FEF7B5B900BFE905002030080020A4
:104440003B8A00084B8A0008678A000810B50446BA
:1044500072B6FEF7E9FA62B640B92E20FDF7CAF847
:1044600003492046BDE81040FEF79AB90149F8E734
:10447000AA8A0008BE8A000808B501F07BFE2DE973
:10448000F0470024054689461746A0462C212846B9
:10449000FDF728FF90F800A0064680F80080284627
:1044A000FDF7BCFB2F2886F800A018BF09F8040010
:1044B000337818BF01342C2B03D1BC4206F101051F
:1044C000E4D32046BDE8F0872DE9FF4707460846BC
:1044D000FDF754FF0446FDF738FF2021054620462E
:1044E000FDF700FF037833B938461C4904B0BDE836
:1044F000F047FEF755B90DF104090A22494601308B
:10450000FFF7BDFF82463846FDF7FCFB3846FDF756
:10451000F5FB18B985421CDC6B1C1AD004B0BDE851
:10452000F08719F80400FDF73FFB424603460C49AB
:104530003846FEF735F9DFF82C8001345445F0DBBE
:1045400038460949FEF72CF96A1C18BF05F1FF35FA
:10455000DCE70446DFF81480F0E700BFD48A0008E7
:10456000F38A00083F870008A78A0008A98A000884
:1045700008B5C0F30903A3F2FF3210F4806F92B2C2
:1045800018BF134618B202F09FF807A3D3E900231F
:1045900001F01EFE0022064B01F04AFF02F0FEF879
:1045A00000B208BDAFF300809A9999999999B93FE3
:1045B0000000444038B5C1791C4DC1F3C101044627
:1045C0001A202970FDF70CFB2B781BB93021102025
:1045D000FDF706FB2B78012B03D120211020FDF7DE
:1045E000FFFA2B78022B03D110210846FDF7F8FAC9
:1045F00021780F4B01F00F011B201970FDF7F0FA25
:10460000E07802F01DFA0B4902F06EFA0A4B0146FF
:1046100018601C20FDF7F2FA2178084B89091970FF
:104620001D20BDE83840FDF7DBBA00BFBB08002005
:10463000BA080020CDCCCC3DEC080020BC080020FE
:1046400038B5437804461B02007803F440731843DE
:1046500002F03AF800221A4B01F0BAFD02F0E6F837
:10466000184D014628601420FDF7C8FA2379E07838
:104670001B0203F47063184302F026F80EA3D3E97B
:10468000002301F0A5FD02F0B1F80F4C80B22080AC
:1046900002F0D2F901461820FDF7B0FA208802F0A6
:1046A000CFF9296802F020FA084B01461860122061
:1046B000BDE83840FDF7A2BA9A9999999999B93FFE
:1046C0000000A43FDC080020F6080020E8080020D5
:1046D0002DE9F041044680882B4DC0F3090001F01C
:1046E000F3FF25A3D3E9002301F072FD02F07EF869
:1046F0002880E07802F0A4F9244902F0F5F9244B6F
:10470000804618602088234FC0F30D0001F0DCFFC5
:104710001BA3D3E9002301F05BFD02F067F83880AA
:10472000A37860781C4E40EA4320C00901F0CCFF1A
:1047300011A3D3E9002301F04BFD02F057F84146E5
:1047400030801120FDF75AFA388802F075F90146D9
:104750001520FDF753FA308802F06EF90146162055
:10476000FDF74CFA288802F067F9BDE8F0410146F0
:104770001920FDF743BA00BF9A9999999999B93FC1
:104780004C37894160E5A03FF4080020CDCCCC3DFA
:10479000F0080020E4080020E208002000000000EB
:1047A0002DE9F84F384B068802791E80B0F80130A9
:1047B000364DC778DB102B80D303817843EAC713CB
:1047C000477990F806A0324CDFF8C890C08843EAD9
:1047D000510342EA07225B1152102380A9F80020FE
:1047E000C00901F071FF26A3D3E9002301F0F0FC1A
:1047F00001F0FCFFDFF8A080DFF8A0B047EA0A274D
:10480000A8F800003F113046ABF80070FFF7B0FE8B
:1048100002F016F901461E20FDF7F0F92888FFF78F
:10482000A7FE02F00DF901461F20FDF7E7F92088E9
:10483000FFF79EFE02F004F901462020FDF7DEF9A5
:10484000B9F80000FFF794FE02F0FAF801462120C3
:10485000FDF7D4F9B8F8000002F0EEF80146222086
:10486000FDF7CCF9BBF80000FFF782FE02F0E8F894
:10487000BDE8F84F01462320FDF7C0B9AFF3008033
:10488000D927806264C9D23FC6080020C40800202E
:10489000C2080020C0080020BE080020C808002070
:1048A0002DE9F0410378384E03F0DF02C62A0446B2
:1048B000364D33702AD14088C0F30B0001F004FF5D
:1048C0002FA3D3E9002301F083FC01F08FFF002226
:1048D0002F4B28801A70288802F0AEF8014613206A
:1048E000FDF78CF925782B4F05F01F053570DFF8A3
:1048F000A8802A4EF5B9207902F0A2F8284902F0E2
:10490000F3F838600122274B1A701FE0042BE2D124
:104910001F4B1B78002BDED0C088C0F3CB0001F00A
:10492000D3FE17A3D3E9002301F052FC01F05EFF90
:104930002880D0E7012D19D1207902F081F818499B
:1049400002F0D2F8174BC8F800001D70D8F800101C
:10495000386801F0C1FF316801F0BEFFBDE8F041E9
:10496000114B014618601720FDF748B9022DEDD113
:10497000207902F065F80A4902F0B6F83060C1E724
:10498000DE91B1DAFCBFC23FB9080020E008002088
:10499000EA050020D8080020D4080020D008002014
:1049A000CDCCCC3DFC080020CC0800200378104A78
:1049B00003F00F0330B51370C3EB03139B000D4AD4
:1049C000DD1E0133DBB213440422A918C9B26629E3
:1049D0000CD8D108415C02F0070401322141D2B267
:1049E00001F00101402A03F8011BEED130BD00BFE8
:1049F000B50800203808002003780E4A1E2B1370DB
:104A000011D1B0F803200C4B0C491A80837803F0C5
:104A100007030B7040F2B2218A4204D1022B03D16A
:104A20000122074B1A707047012BFCD10022044B66
:104A3000F8E700BFB4080020B2080020B108002049
:104A4000FD080020C179024B24201970FDF7C8B879
:104A5000B708002070B5204A037813701F4A1278F7
:104A6000002A37D10C2B1E4D1E4E1F4C18D1B0F80A
:104A70000100C0F3090001F0E3FF1C4902F034F823
:104A800028603168286801F027FF216801F024FFC1
:104A9000BDE87040164B014618601720FDF7AEB810
:104AA000162B0AD1B0F80100C0F3090001F0C8FFCD
:104AB0000E4902F019F83060E3E7202BE1D1B0F89D
:104AC0000100C0F3090001F0BBFF084902F00CF837
:104AD0002060D6E770BD00BFB8080020FC080020A9
:104AE000D8080020D4080020D00800200AD7233B93
:104AF000CC08002013B50120FDF75CF8114C4000F4
:104B000020700C20FDF756F800280CBF0A2305235F
:104B10008DF80030237800208DF8013041F6AA236B
:104B2000ADF8023040F2FF23ADF80430FEF74CF848
:104B300003686A465C6840F23D110623A04702B054
:104B400010BD00BFCA08002013B5094B0020009318
:104B50004FF48C73ADF80430FEF736F803686A46FC
:104B60005C6840F20A210623A04702B010BD00BFD6
:104B7000F615098213B5084A084B0020CDE9002339
:104B8000FEF722F803686A465C6840F212210823A7
:104B9000A04702B010BD00BFB91C94ADC315066399
:104BA00013B50520FDF706F800280CBF2D235D2363
:104BB00001208DF80030FCF7FDFF002440008DF847
:104BC000010001208DF80240FCF7F4FF074B8DF83F
:104BD000030020460193FDF7F7FF03686A465C680F
:104BE00040F21D210823A04702B010BD80006010D4
:104BF00013B50D20FCF7DEFF0023ADF80430154B94
:104C000010F0FF001B8812D11A018DF806201B0935
:104C100000208DF80730FDF7D7FF036840F22A2106
:104C20005C6804230DEB0302A04702B010BD01280D
:104C300003D11A0142F00502E7E7022803D11A0165
:104C400042F00902E1E70328E1D11A0142F00D0226
:104C5000DBE700BFE008002040F2CB4313B5074A72
:104C60000020CDE90023FDF7AFFF03686A465C68CA
:104C700040F232210823A04702B010BD0A02D50934
:104C800013B50120FCF796FF0F4C400020700C205C
:104C9000FCF790FF00280CBF0A2305238DF8043091
:104CA000237800208DF8053040F6FF73ADF806300C
:104CB000FDF78AFF036840F23D215C6804230DEB99
:104CC0000302A04702B010BDCA08002013B505209A
:104CD000FCF770FF00280CBFD923D8238DF80030D3
:104CE0008C238DF801304BF20153ADF80230074BA5
:104CF00000200193FDF768FF03686A465C6840F294
:104D00005D210823A04702B010BD00BF4AC10AE0E0
:104D1000174B13B51880174BADF800001C780C200A
:104D2000BCB9FCF747FF001B18BF012040008DF8FD
:104D3000020020468DF803408DF80440FDF744FF43
:104D400003685C6805236A4640F2B221A04702B0BE
:104D500010BDFCF72FFF003818BF012040008DF870
:104D600002000020FDF730FF03685C680323EAE7D8
:104D7000FA080020FD08002047F6027313B5074A21
:104D80000020CDE90023FDF71FFF03686A465C6839
:104D900040F221310823A04702B010BD2CB6A87FF5
:104DA00013B5074B00200193FDF70EFF036840F297
:104DB00033315C6804230DEB0302A04702B010BD41
:104DC0000430290713B50620FCF7FCFE0F4901F05B
:104DD0008BFE01F0FFFF0E4B8DF80200188046F2AB
:104DE0000923000AADF8003060F06600094B8DF829
:104DF000030000200193FDF7E7FE03686A465C6844
:104E000040F2A1310823A04702B010BD0000C84203
:104E1000F8080020082C125A37B5134C207888B1B6
:104E2000124A134B0020CDE90023FDF7CDFE0368A5
:104E30006A465D6840F2B2310823A8470023237018
:104E400003B030BD0B4B009303F1D86303F6290385
:104E50000193FDF7B9FE03686A465D6840F2B2311E
:104E60000823A8470123EAE7EC050020E50DEBFF46
:104E70000C66BB11E35DFBFF73B5284C284D22780F
:104E80002B7812015BB3274B42F00A02009340F2E9
:104E90009F13ADF8043000238DF8062069461A46AA
:104EA00011F8010B0132072A0344F9D103F24A53E6
:104EB00000208DF80730FDF787FE03686A465E68BC
:104EC00040F245510823B04700232B70237801336B
:104ED000DBB2102B28BF0023237002B070BD124933
:104EE0008DF80620009119211A46ADF80410694684
:104EF00011F8010B0132072A0344F9D103F24A5396
:104F000000208DF80730FDF75FFE03686A465E6893
:104F100040F245510823B0470123D6E7B6080020E8
:104F2000EB05002014003F7003196432F0B585B022
:104F300010220021684601F06DFF00221A2014465D
:104F40000126174911F8013F7BB1B2FBF0F304AD24
:104F500005EB830500FB132355F8107C06FA03F3D9
:104F60003B43013445F8103CE4B20132662AE9D1F2
:104F700000992720FCF734FE01992820FCF730FE29
:104F800002992920FCF72CFE03992A20FCF728FE21
:104F90002146262005B0BDE8F040FCF721BE00BF49
:104FA000380800208368DB075EBF836843F0010395
:104FB00083607047024A136843F40003136070472C
:104FC00008240140836823F460230B4383608368D3
:104FD00043F4801383607047836800F1080243F054
:104FE0000803836013681B07FCD47047836843F091
:104FF0000403836070478068C0F38000704708B581
:105000000246FFF7F3FF1046FFF7F5FF0028FAD13D
:1050100008BD0022134610B501FA02F403321E2A1D
:1050200043EA0403F8D10022036101FA02F40332D7
:10503000182A43EA0403F8D1C36010BD836823F043
:10504000010383607047436843F480734360704793
:10505000836823F4006383607047836843F002032E
:10506000836070471029F0B50CD80026012337461D
:105070003546DCB2A14206D2013945EA0155C56286
:1050800007634663F0BD062C15D892F800C003EB09
:10509000830EAEF1050E0CFA0EFC46EA0C060D3C32
:1050A000052C15D8147803EB830CACF1410C04FAF1
:1050B0000CF425430CE0A4F1070CBCF1050FEED86D
:1050C000147803EB830CACF1230C04FA0CF42743A3
:1050D00001330132CDE7836800F1080243F4800315
:1050E000836013685B02FCD47047836843F4807369
:1050F00083607047044B98420CBF40F2192040F285
:105100001A2000F0F1BC00BF006400402DE9F3411B
:105110000468884624F0020404600468964644F05B
:10512000010404604FF6FF749DF820C09DF8241020
:105130009DF828209DF83C609DF840700194019CEA
:10514000051D013C019414B14468E407F7D52C68AF
:10515000E4076ED50024C4610468B8F1000F4FD095
:1051600044F0800404600468BEF1000F4BD044F0AA
:1051700040040460002B49D0036843F0200303601F
:105180000368BCF1000F45D043F0100303600368CF
:10519000002942D043F0080303600368002A3FD08F
:1051A00043F004030360C369002F3CD043F0004385
:1051B000C361C369002E39D043F08043C3610E9BA5
:1051C0000D99013BC3F309030B430C99C2690B43CF
:1051D0000B990B431343C361036823F0010303607E
:1051E0004FF6FF730193019B013B019313B12B68B1
:1051F000DB07F8D4286800F0010002B0BDE8F081B8
:1052000024F08004AEE724F04004B2E7036823F002
:105210002003B4E723F01003B8E723F00803BBE74B
:1052200023F00403BEE723F00043C1E723F08043EB
:10523000C4E70120E1E70000F0B501241E4D9646C9
:105240001A462B689DF81C7043F001032B60EB6934
:10525000844023EA04031C352B60E643174B09B353
:1052600019682143196016490B68BEF1000F1CD064
:10527000234300F1006000F6C8400B60C000059BAE
:105280000260069A43600F4B8AB11A6822431A6083
:1052900017B12B681C432C60074A136823F00103E5
:1052A0001360F0BD19683140DCE73340E1E71A686C
:1052B00016401E60ECE700BF006600400C66004030
:1052C000046600401466004030B4BDF808409DF804
:1052D000105043EA0443029341EA0243002204953A
:1052E000114630BCFFF7A8BF30B4BDF808409DF8A8
:1052F000105044EA0344049542EA01430294012217
:1053000030BC0021FFF798BF1FB5009201229DF825
:105310001840CDE901340B461146FFF78DFF04B06C
:1053200010BD43690B4343617047436923EA01039E
:10533000436170472DE9F041804680689DF818E090
:105340004501079E2AD4D8F8080004012AD4D8F8C9
:105350000800C00050D54FF4D075022005EB0804BA
:1053600022B3C90041F0040145F808101BB12368BD
:1053700043F002032360636823F00F0363606268F5
:105380000EF00F03134363600EF1FF33072B2AD88F
:10539000DFE803F02623201B1815120E4FF4C0750A
:1053A0000020DBE74FF4C8750120D7E74905DBE7AC
:1053B0000027F37963F31F67B37963F317477379B2
:1053C00063F30F27337963F307074FF0000CF3788B
:1053D00063F31F6CB37863F3174C737863F30F2C8C
:1053E000337863F3070CC4F808C0E760236843F020
:1053F00001032360BDE8F0814FF0FF30FAE721B9E7
:10540000C36843F02003C3607047036943F020037F
:105410000361704719B9C06800F003007047006964
:10542000FAE72DE9F347DDF828A00446DDE90E563A
:105430008846FFF7EFFF4FF4E07181464FF4D870D4
:10544000CDE9000102A901EB880151F8081C605860
:10545000671810F0040015BF01208AF800008AF8D0
:105460000000605816BF6058400DC00818606158B1
:105470000B9BC1F34001197079680C9B090A1970E4
:1054800079680D9B01F00F01197016B17B681B0C38
:105490003380BE68FB68C6F307216970C6F3074115
:1054A000A970C3F307212E702B71C6F307666971CB
:1054B000C3F30741C3F30763EE70A971EB711AB12F
:1054C00041462046FFF79BFF484602B0BDE8F08703
:1054D000024A136843F0010313607047083002402A
:1054E000014B18601868704700300240002310B567
:1054F000044A8B4201DB106810BD50F82340013391
:105500001460F6E700300240014B1888704700BF76
:10551000E0F7FF1F14230022013903FB01039A6007
:10552000DA601A615A610F234268890003FA01F1B7
:105530001143416070470139890002FA01F141606D
:10554000704701390368890002FA01F1194214BF5A
:1055500001200020704710B54C1E14216143083013
:105560000C5824F440640C500B5813430B5010BDDE
:1055700010B54C1E1421614308300C5824F44074BB
:105580000C500B5813430B5010BD4B1E14215943A4
:1055900008300B5843F080030B5070474B1E14210A
:1055A000594308300B5843F020030B500B5823F499
:1055B00080430B5070474B1E1421594308300B5841
:1055C00043F010030B5070474B1E14215943083011
:1055D0000B5843F001030B5070474B1E14215943E5
:1055E00008300B5823F001030B5070471423013986
:1055F00003FB01008368DB0758BF02617047142377
:10560000013903FB01008368DB0758BF4261704723
:105610004B1E142159430C30085880B270474B1E62
:10562000142159430C300A5070470000064B10B546
:105630001C68FFF769FFB0F5007F82BF034B186855
:10564000044304F0350010BD0C2002404C20024001
:1056500038B504460D4600F081F8FFF755FFB0F568
:10566000007F18D90E4B9C4215D90E4A136843F09F
:1056700001031360258000F071F8FFF745FFB0F5D6
:10568000007F0AD9064B9C4207D9064A136823F0CB
:105690000103136038BD044AE8E7034AF6E700BF98
:1056A000FFFF0708502002401020024010B50446BA
:1056B00000F054F8FFF728FFB0F5007F1DD9134B19
:1056C0009C421AD9124B1A6842F002021A60114A1F
:1056D00014601A6842F040021A6000F03FF8FFF7C9
:1056E00013FFB0F5007F0FD9084B9C420CD9084A34
:1056F000136823F00203136010BD074B1A6842F0D1
:1057000002021A60054AE3E7034AF1E7FFFF0708D0
:105710005020024054200240102002401420024039
:10572000034A136823F0070303431360704700BF65
:1057300000200240034B044A1A6002F188321A60CA
:10574000704700BF0420024023016745024A1368E6
:1057500043F08003136070471020024008B5FFF744
:1057600065FFC307FBD408BD38B505460C4689B2B2
:10577000FFF76EFF210CA81CBDE83840FFF768BF9B
:105780002DE9F0414FF00F0C00250768466843FAF9
:1057900005F4E4071CD5072D94BFBE46B646ACB24F
:1057A0004FEA84048ABF203CA4B2A4B20CFA04F8E5
:1057B0002EEA080804F1020E02FA0EFE01FA04F4C1
:1057C0004EEA040444EA0804072D94BF27462646FF
:1057D0000135102DDBD107604660BDE8F081000087
:1057E000034A136823F0E0630B43034313607047DD
:1057F0000400014001617047090401617047C368FA
:1058000001EA030221EA030141EA02410161704712
:105810004AF6AA22014B1A60704700BF00300040D0
:10582000024A136843F0807313607047001002400F
:10583000062822D8DFE800F004090E13181D1F0007
:105840000F4B1868C0F3406070470D4B1868C0F3E9
:10585000C06070470A4B1868C0F340707047084B2F
:105860001868C0F340407047054B1868C0F340000B
:105870007047044BF9E7044BF7E70020704700BF7F
:10588000001002402010024024100240024608B5D9
:105890001046FFF7CDFF0028FAD008BD06280CD827
:1058A000DFE800F004060C11161B1D00FFF7B8BF5F
:1058B0000C4A136843F0806313607047094A136809
:1058C00043F08053F8E7074A136843F48033F3E763
:1058D000044A136843F00103EEE7034AF9E7034A79
:1058E000F7E700BF001002402010024024100240E1
:1058F000034A136823F0030303431360704700BF98
:1059000004100240034A136823F4701343EA8043EF
:105910001360704704100240034A136823F4803375
:1059200043EA00431360704704100240034A1368BF
:1059300023F4003343EA40431360704704100240ED
:10594000024B186800F40040704700BF201002406E
:10595000024A136843F4004313607047201002406A
:1059600006283DD8DFE800F0373737263704150022
:105970001C4B1A6842F001021A601A689007FCD5A5
:105980001A6822F440721A601A6842F480721A602F
:105990007047154B1A6842F001021A601A689107A5
:1059A000FCD5104B1A6822F440721A601A6842F44F
:1059B0000072ECE70D4B1A6842F480321A601A68E4
:1059C0009203FCD5074B1A6822F440721A601A68D9
:1059D00042F44072DBE7034A136823F44073136018
:1059E000704700BF20100240241002400010024007
:1059F000034A136823F4404343EA8033136070473B
:105A000004100240034A136823F4605343EAC0239E
:105A10001360704704100240034A136823F4E063E4
:105A200043EA00231360704704100240034A1368DE
:105A300023F0F00343EA00131360704704100240A0
:105A400008B50420FFF72AFF0420FFF71FFF0020FE
:105A5000FFF74EFF0320FFF721FF0320FFF716FF9C
:105A60000120FFF745FF0020FFF7E0FF0320FFF7CD
:105A7000BFFF0420FFF7D0FF0020FFF7C3FF022085
:105A8000FFF74EFE0720FFF73DFF0120FFF744FF21
:105A90000020FFF74BFFFFF7C3FE0020FFF7F6FEE5
:105AA0000220FFF725FF044B044A05491360054A0D
:105AB0001160054A136008BD00A24A04F0050020E9
:105AC00000512502F4050020F805002001224309B9
:105AD00003F1804303F50433196800F01F0002FA54
:105AE00000F00843186070470122430903F1804326
:105AF00003F50433196800F01F0002FA00F00143B7
:105B000019601A6822EA000018607047044B1A688E
:105B10009206FCD51A6842F010021A60704700BF66
:105B200004280040044B1A6822F010021A601A6818
:105B30009206FCD5704700BF0428004038B50446E3
:105B400000254FF46770FFF7C1FF40F29B30FFF76D
:105B5000BDFF00F035FB2046FFF702FF0D4C0E4B5A
:105B60001D602560FFF7F4FEFFF7D0FF0B4B0C4ADA
:105B70001D605D601D615D614FF6FF7313605360D2
:105B8000FFF7D0FF236823F00803236023681B0777
:105B9000FCD538BD042800400028004008280040FB
:105BA0002028004008B5FFF7B1FF054B82B2C0F3D3
:105BB00003401A6043F8040CBDE80840FFF7B2BF89
:105BC0000C280040034B186804331B6843EA00406C
:105BD000704700BF1828004008B5FFF797FF044B37
:105BE000020C80B21A605860BDE80840FFF79ABF07
:105BF0001828004008B54FF46770FFF767FF40F2C0
:105C00009B30FFF763FF00F0DBFA064B1A6822F0C7
:105C100008021A601A681107FCD51A689206FCD5AA
:105C200008BD00BF0428004038B505464FF4677032
:105C30000C46FFF74BFF40F29B30FFF747FFFFF7A3
:105C40007FFE18B1BDE83840FFF7D4BF2846FFF704
:105C500075FF2046BDE83840FFF7A4BFC3680B437B
:105C6000C360704703690B4214BF012000207047D6
:105C7000C94301617047036843F0800303607047C4
:105C8000036823F0100303607047036843F00103C7
:105C900003607047036823F001030360704781626B
:105CA0007047C162704706297AD8DFE801F00479AD
:105CB000337963799200836923F0030383618369F5
:105CC0008361836923F070038361072A68D8DFE862
:105CD00002F03304090D1115191D836943F01003F7
:105CE00083617047836943F02003F9E7836943F0D8
:105CF0003003F5E7836943F04003F1E7836943F03C
:105D00005003EDE7836943F06003E9E7836943F0FB
:105D10007003E5E7836923F44073836183698361DA
:105D2000836923F4E0438361072A39D8DFE802F06E
:105D300004060A0E12161A1E8369D1E7836943F41A
:105D40008053CDE7836943F40053C9E7836943F483
:105D50004053C5E7836943F48043C1E7836943F453
:105D6000A043BDE7836943F4C043B9E7836943F4C3
:105D7000E043B5E7C36923F00303C361C369C361AB
:105D8000C36923F07003C361072A09D8DFE802F072
:105D90003304090D1115191DC36943F01003C361C4
:105DA0007047C36943F02003F9E7C36943F0300348
:105DB000F5E7C36943F04003F1E7C36943F05003DB
:105DC000EDE7C36943F06003E9E7C36943F070039B
:105DD000E5E7C36923F44073C361C369C361C36961
:105DE00023F4E043C361072ADAD8DFE802F00406AF
:105DF0000A0E12161A1EC369D1E7C36943F4805311
:105E0000CDE7C36943F40053C9E7C36943F4405382
:105E1000C5E7C36943F48043C1E7C36943F4A043C2
:105E2000BDE7C36943F4C043B9E7C36943F4E04342
:105E3000B5E7062909D8DFE801F0041509190D1D99
:105E40001100036A23F0020303627047036A23F020
:105E50002003F9E7036A23F40073F5E7036A23F4E8
:105E60000053F1E7036A23F00803EDE7036A23F028
:105E70008003E9E7036A23F40063E5E7062909D80C
:105E8000DFE801F0041509190D1D1100036A43F044
:105E9000020303627047036A43F02003F9E7036AD1
:105EA00043F40073F5E7036A43F40053F1E7036A30
:105EB00043F00803EDE7036A43F08003E9E7036A70
:105EC00043F40063E5E706290CD8DFE801F0040B92
:105ED000060B080B0A004263704782637047C26377
:105EE00070470264704743690B4343617047406ADF
:105EF00070474162704703291CD8DFE801F0020BAC
:105F0000131C836923F0F0038361836943EA02125F
:105F100082617047836923F470438361836943EA34
:105F20000232F5E7C36923F0F003C361C36943EAB2
:105F30000212C2617047C36923F47043C361C3692D
:105F400043EA0232F5E701F0FD03012B02F0030200
:105F500004D1531E012B98BF82F0030203291AD8E3
:105F6000DFE801F0020A121A836923F00303836158
:105F700083691A4382617047836923F440738361A4
:105F8000836943EA0222F5E7C36923F00303C3618F
:105F9000C3691A43C2617047C36923F44073C36184
:105FA000C36943EA0222F5E78B000121026A9940A6
:105FB000114301627047836819B143F40043836061
:105FC000704723F40043FAE7836823F007038360F4
:105FD0008368194381607047836823F0700383608E
:105FE0008368194381607047064A074B90421B68DB
:105FF00004BF064B1B6803EB5103B3FBF1F1816057
:10600000704700BF00380140F4050020F80500206B
:10601000C36808290CBF23F4805343F48053C36042
:106020007047036923F440530B4303617047C3680F
:1060300023F4C0630B43C3607047C36823F00C03B1
:106040000B43C3607047436923F440730B434361C0
:106050007047C36843F40053C360704738B50446C3
:106060000D4600F018F829462046BDE8384000F0FB
:106070000AB8436943F0400343617047436943F002
:10608000800343617047C1F3080141607047406875
:10609000C0F30800704703681B06FCD5704703680F
:1060A0000B4214BF012000207047FEE7704700003C
:1060B00038B5DFF8BCD0214B214A22498B4226D388
:1060C0001A46002020498A4226D3204AD81ED21AD6
:1060D00022F00302814238BF00224FF0A531134461
:1060E0001B4A93421BD31B4A1B4C13681B4D43F4A2
:1060F00000731360AC4215D3194C1A4DAC4215D342
:10610000FBF79EFA184C194DAC4213D338BD52F828
:10611000040B43F8040BD1E742F8040BD3E743F830
:10612000041BDEE754F8043B9847E3E754F8043BCC
:106130009847E3E754F8043B9847E5E70000002060
:10614000CC8C0008FC050020000900200309002079
:106150000050002014ED00E0C08C0008C08C000846
:10616000C08C0008CC8C0008CC8C0008CC8C0008BB
:1061700000500020014B024A1A60FEE70CED00E0DF
:106180000400FA05012243099B0003F1604300F07B
:106190001F0003F5614302FA00F018607047000029
:1061A000432893BF00F16040044B00F00F0000F55E
:1061B00064408CBFC1540170704700BF14ED00E013
:1061C000024A136843F48073136070470070004004
:1061D00070B54FF0FF0C4CF4E06C1CEA11541DBF7D
:1061E0001CEA135594EA0C0F95EA0C0F00F0DEF848
:1061F0002C4481EA030621EA4C5123EA4C5350EA2D
:10620000013518BF52EA033541F4801143F480137D
:1062100038D0A0FB02CE4FF00005E1FB02E506F00E
:106220000042E0FB03E54FF00006E1FB03569CF063
:10623000000F18BF4EF0010EA4F1FF04B6F5007F69
:1062400064F5407404D25FEA4E0E6D4146EB0606DB
:1062500042EAC62141EA55514FEAC52040EA5E5064
:106260004FEACE2EB4F1FD0C88BFBCF5E06F1ED80E
:10627000BEF1004F08BF5FEA500E50F1000041EB45
:10628000045170BD06F0004646EA010140EA0200F2
:1062900081EA0301B4EB5C04C2BFD4EB0C0541EA14
:1062A000045170BD41F480114FF0000E013C00F329
:1062B000AB8014F1360FDEBF002001F0004170BD4D
:1062C000C4F10004203C35DA0C341BDC04F1140466
:1062D000C4F1200500FA05F320FA04F001FA05F2F2
:1062E00040EA020001F0004221F0004110EBD370BF
:1062F00021FA04F642EB06015EEA430E08BF20EAEB
:10630000D37070BDC4F10C04C4F1200500FA04F38D
:1063100020FA05F001FA04F240EA020001F000411F
:1063200010EBD37041F100015EEA430E08BF20EA92
:10633000D37070BDC4F1200500FA05F24EEA020EDA
:1063400020FA04F301FA05F243EA020321FA04F009
:1063500001F0004121FA04F220EA020000EBD370C0
:106360005EEA430E08BF20EAD37070BD94F0000FC0
:106370000FD101F00046400041EB010111F4801FF4
:1063800008BF013CF7D041EA060195F0000F18BFA5
:10639000704703F00046520043EB030313F4801FE1
:1063A00008BF013DF7D043EA0603704794EA0C0F9B
:1063B0000CEA135518BF95EA0C0F0CD050EA4106B1
:1063C00018BF52EA4306D1D181EA030101F000412E
:1063D0004FF0000070BD50EA410606BF1046194656
:1063E00052EA430619D094EA0C0F02D150EA013662
:1063F00013D195EA0C0F05D152EA03361CBF1046A3
:1064000019460AD181EA030101F0004141F0FE4141
:1064100041F470014FF0000070BD41F0FE4141F4C5
:10642000780170BD81F0004102E000BF83F00043BD
:1064300030B54FEA41044FEA430594EA050F08BF1F
:1064400090EA020F1FBF54EA000C55EA020C7FEAE3
:10645000645C7FEA655C00F0E2804FEA5454D4EB60
:106460005555B8BF6D420CDD2C4480EA020281EA2A
:10647000030382EA000083EA010180EA020281EA62
:106480000303362D88BF30BD11F0004F4FEA0131B4
:106490004FF4801C4CEA113102D0404261EB4101C3
:1064A00013F0004F4FEA03334CEA133302D0524249
:1064B00063EB430394EA050F00F0A780A4F1010405
:1064C000D5F1200E0DDB02FA0EFC22FA05F280183F
:1064D00041F1000103FA0EF2801843FA05F3594125
:1064E0000EE0A5F120050EF1200E012A03FA0EFCA4
:1064F00028BF4CF0020C43FA05F3C01851EBE371CE
:1065000001F0004507D54FF0000EDCF1000C7EEBEA
:1065100000006EEB0101B1F5801F1BD3B1F5001F28
:106520000CD349085FEA30004FEA3C0C04F1010447
:106530004FEA445212F5800F80F09A80BCF1004F70
:1065400008BF5FEA500C50F1000041EB045141EAF2
:10655000050130BD5FEA4C0C404141EB0101013CBB
:1065600028BFB1F5801FE9D291F0000F04BF0146AA
:106570000020B1FA81F308BF2033A3F10B03B3F17C
:1065800020020CDA0C3208DD02F1140CC2F10C020C
:1065900001FA0CF021FA02F10CE002F11402D8BF6A
:1065A000C2F1200C01FA02F120FA0CFCDCBF41EA36
:1065B0000C019040E41AA2BF01EB0451294330BD05
:1065C0006FEA04041F3C1CDA0C340EDC04F11404E2
:1065D000C4F1200220FA04F001FA02F340EA0300B9
:1065E00021FA04F345EA030130BDC4F10C04C4F1FF
:1065F000200220FA02F001FA04F340EA03002946DF
:1066000030BD21FA04F0294630BD94F0000F83F428
:10661000801306BF81F480110134013D4EE77FEA0B
:10662000645C18BF7FEA655C29D094EA050F08BF57
:1066300090EA020F05D054EA000C04BF1946104638
:1066400030BD91EA030F1EBF0021002030BD5FEA7C
:10665000545C05D14000494128BF41F0004130BDA4
:1066600014F580043CBF01F5801130BD01F00045F8
:1066700045F0FE4141F470014FF0000030BD7FEA6B
:10668000645C1ABF194610467FEA655C1CBF0B4666
:10669000024650EA013406BF52EA033591EA030F7D
:1066A00041F4002130BD00BF90F0000F04BF002175
:1066B000704730B54FF4806404F132044FF00005A8
:1066C0004FF0000150E700BF90F0000F04BF002121
:1066D000704730B54FF4806404F1320410F0004587
:1066E00048BF40424FF000013EE700BF42004FEA82
:1066F000E2014FEA31014FEA02701FBF12F07F43FF
:1067000093F07F4F81F06051704732F07F4208BFB5
:10671000704793F07F4F04BF41F40021704730B5BC
:106720004FF4607401F0004521F000411CE700BF08
:1067300050EA010208BF704730B54FF000050AE08B
:1067400050EA010208BF704730B511F0004502D58C
:10675000404261EB41014FF4806404F132045FEA8E
:10676000915C3FF4D8AE4FF003025FEADC0C18BF37
:1067700003325FEADC0C18BF033202EBDC02C2F129
:10678000200300FA03FC20FA02F001FA03FE40EABB
:106790000E0021FA02F11444BDE600BF4FEA4102A7
:1067A00012F5001215D211D56FF47873B3EB625263
:1067B00012D94FEAC12343F0004343EA505311F08A
:1067C000004F23FA02F018BF404270474FF000001C
:1067D000704750EA013005D111F0004008BF6FF05A
:1067E000004070474FF00000704700BF4A0011D2D0
:1067F00012F5001211D20DD56FF47873B3EB62521B
:106800000ED44FEAC12343F0004343EA505323FA26
:1068100002F070474FF00000704750EA013002D19B
:106820004FF0FF3070474FF0000070474FEA4102D1
:10683000B2F1E04324BFB3F5001CDCF1FE5C0DD9DE
:1068400001F0004C4FEAC0024CEA5070B2F1004F28
:1068500040EB830008BF20F00100704711F0804F2B
:1068600021D113F13872BCBF01F00040704741F4F0
:1068700080114FEA5252C2F11802C2F1200C10FAF4
:106880000CF320FA02F018BF40F001004FEAC123D8
:106890004FEAD32303FA0CFC40EA0C0023FA02F37C
:1068A0004FEA4303CCE77FEA625307D150EA013352
:1068B0001EBF4FF0FE4040F44000704701F0004022
:1068C00040F0FE4040F40000704700BF80F0004000
:1068D00002E000BF81F0004142001FBF5FEA4103B8
:1068E00092EA030F7FEA226C7FEA236C6AD04FEAB8
:1068F0001262D2EB1363C1BFD218414048404140FD
:10690000B8BF5B42192B88BF704710F0004F40F4AE
:10691000000020F07F4018BF404211F0004F41F4CA
:10692000000121F07F4118BF494292EA030F3FD096
:10693000A2F1010241FA03FC10EB0C00C3F12003A9
:1069400001FA03F100F0004302D5494260EB400038
:10695000B0F5000F13D3B0F1807F06D340084FEAA3
:10696000310102F10102FE2A51D2B1F1004F40EB98
:10697000C25008BF20F0010040EA03007047490000
:1069800040EB0000013A28BFB0F5000FEDD2B0FA9D
:1069900080FCACF1080CB2EB0C0200FA0CF0AABFC0
:1069A00000EBC25052421843BCBFD040184370475E
:1069B00092F0000F81F4000106BF80F40000013264
:1069C000013BB5E74FEA41037FEA226C18BF7FEA3B
:1069D000236C21D092EA030F04D092F0000F08BF7D
:1069E0000846704790EA010F1CBF0020704712F064
:1069F0007F4F04D1400028BF40F00040704712F1A3
:106A000000723CBF00F50000704700F0004343F007
:106A1000FE4040F4000070477FEA226216BF08463D
:106A20007FEA23630146420206BF5FEA412390EA00
:106A3000010F40F4800070474FF0000304E000BFF6
:106A400010F0004348BF40425FEA000C08BF7047A7
:106A500043F0964301464FF000001CE050EA01026B
:106A600008BF70474FF000030AE000BF50EA010280
:106A700008BF704711F0004302D5404261EB41016D
:106A80005FEA010C02BF84460146002043F0B64392
:106A900008BFA3F18053A3F50003BCFA8CF2083AB7
:106AA000A3EBC25310DB01FA02FC634400FA02FCC0
:106AB000C2F12002BCF1004F20FA02F243EB0200C7
:106AC00008BF20F00100704702F1200201FA02FC29
:106AD000C2F1200250EA4C0021FA02F243EB02001C
