:020000040800F2
:10100000005000200560000801600008FF5F000834
:10101000FF5F0008FF5F0008FF5F0008000000009E
:101020000000000000000000000000000160000857
:101030000160000800000000016000080160000875
:10104000FF5F0008FF5F0008FF5F0008FF5F000808
:10105000FF5F0008FF5F0008FF5F0008FF5F0008F8
:10106000FF5F0008FF5F0008FF5F0008FF5F0008E8
:10107000FF5F0008FF5F0008FF5F0008FF5F0008D8
:10108000FF5F0008FF5F0008FF5F0008692F00088E
:10109000492F0008592F0008FF5F0008FF5F000874
:1010A000FF5F0008FF5F0008FF5F0008FF5F0008A8
:1010B000A9150008FF5F0008FF5F0008FF5F000838
:1010C000FF5F0008FF5F0008FF5F0008FF5F000888
:1010D000FF5F0008FF5F0008FF5F0008FF5F000878
:1010E000FF5F0008FF5F0008FF5F0008FF5F000868
:1010F000FF5F0008FF5F0008FF5F0008FF5F000858
:10110000FF5F0008FF5F0008FF5F0008FF5F000847
:10111000FF5F0008FF5F0008FF5F0008FF5F000837
:10112000FF5F0008FF5F0008FF5F0008FF5F000827
:10113000FF5F0008FF5F0008FF5F0008952F0008B1
:10114000752F0008852F0008FF5F0008FF5F00086B
:1011500010B404466468084611461A46234610BC7B
:10116000184783681847000070B51424104D2B6889
:10117000013393FBF4F604FB16330E4C24689C42B7
:1011800014D02E680C4C3601A05128680E6804EB70
:10119000001046602868496804EB00108160012057
:1011A00029682B6004EB0114227370BD0020FCE75A
:1011B000BC050020B8050020C0050020024B1B78AC
:1011C0000BB103F01FBE7047A005002010B51F4CE7
:1011D00000224FF40171206801F007FF00224FF454
:1011E0000971206801F001FF00224FF41971206895
:1011F00001F0FBFE00224FF42971206801F0F5FE9A
:1012000000224FF43171206801F0EFFE00224FF40C
:101210006971206801F0E9FE002240F22441206853
:1012200001F0E3FE002240F20451206801F0DDFEEF
:10123000002240F26C71206801F0D7FE2068002285
:10124000BDE8104040F2091101F0CFBEB00500200A
:101250008188006804F078BA8188006804F076BA62
:10126000354B10B59988186804F073FA04F07AFACF
:10127000324B186800F025FC05F03CFB304905F0C6
:1012800041FC01462A2000F07DFC04F045FC01F001
:10129000BDFB04F041FC0146292000F065FC294813
:1012A00001F0BCFA05F026FB274905F02BFC0146AE
:1012B000102000F067FC0D2000F036FCC4B2012CB9
:1012C00018D0042C25D08CB90122204B20481A704C
:1012D000204B1C70FFF7C0FF1F48FFF7B9FF1F48E6
:1012E000FFF7B6FF21460F2000F03EFCBDE810409E
:1012F00003F0E2BD154B16481C70164B1C70FFF72F
:10130000A7FF1648FFF7A4FF1348FFF7A5FF022128
:10131000E9E704F001FC00220C4B10481A7001228E
:101320000C4B1A70FFF798FF0948FFF791FF0A4826
:10133000FFF792FF0321D6E760070020B4050020E5
:10134000000020417C070020026B5F439D050020C8
:1013500040070020A00500203807002030070020AB
:10136000FEE710B5044601780D2000F0FDFB0320D8
:10137000B4F8031000F0F8FB0020B4F8051000F0FA
:10138000F3FBE179022001F00F01013100F0ECFBE9
:10139000E3791B090A2B03D101210E2000F0E4FBA5
:1013A000E3791B090C2B05D1BDE8104000210E206C
:1013B00000F0DABB10BD000010B51C2000F0B4FB3B
:1013C000C4B2002000F0B0FB062C18BF00220A4B6C
:1013D00018BF1A80094A127812B10020188010BD77
:1013E00082B2188890423EBF0A3080B21880824292
:1013F000F5D20A3880B2F1E79E0500209D05002055
:101400007FB5544C544D554E22682B689A4208D1F2
:10141000534B544C1B78002B5FD10023237004B036
:1014200070BD236806EB03130FCB8DE80F00142269
:101430002368B0F5317F03F1010393FBF2F102FB66
:101440001133236039D018D8B0F5097F2DD00AD8D0
:1014500040F2091290423CD0B0F5017FD4D101A8EE
:1014600003F06CF8D0E7B0F5197F22D0B0F5297FF2
:10147000CAD101A803F044F9C6E740F204529042F1
:1014800023D00AD8B0F5697F1BD040F224429042A5
:10149000BAD101A803F05AFAB6E740F26C72904252
:1014A000B2D101A803F09CFAAEE701A803F08CF8D2
:1014B000AAE701A803F0BCF8A6E701A803F0A0F989
:1014C000A2E701A803F03AFA9EE701A803F080FA28
:1014D0009AE701A8FFF745FF96E70A222378B3FBB6
:1014E000F2F102FB1133DBB2052B05D103F0C8FA90
:1014F00003F044FB03F056FC2378142B1DD009D8CD
:101500008BB10A2B14D023780133DBB2632B237009
:1015100083D884E71E2B15D0282BF4D103F006FCCA
:1015200003F016FCEFE703F0D5FA03F0E9FAEAE777
:1015300003F0FCFA03F056FBE5E703F067FB03F06A
:101540008BFBE0E7FFF738FF03F0A8FB03F0DAFBC3
:10155000D9E700BFB8050020BC050020C005002069
:10156000A00500209C0500200A2870B50DD00B288E
:1015700015D10B4B1C6823681D6800F0D5FA2B466B
:10158000C1B22046BDE870401847064B1C6800F009
:10159000CBFAC1B22046BDE8704002F011BA70BD6E
:1015A000B0050020A8050020014B186800F052BAD1
:1015B000B40500202DE9F043ADF63C0D00F014F920
:1015C00000F09EF900226A496A4801F067F9052295
:1015D0006749694801F062F90423082267496848AD
:1015E00000F0CDFE042310226449664800F0C7FED7
:1015F00007234FF400526449644800F0C0FE0723FB
:1016000004225B49624800F0BAFE072308225849C9
:10161000604800F0B4FE07234FF4004257495E488B
:1016200000F0ADFE07234FF4804254495B4800F0C0
:10163000A6FE07234FF400525049594800F09FFE80
:101640004FF4805207234D49564800F098FE01F0B0
:1016500079F800F009F94FF480414FF0007004F080
:1016600069F800F059F900F041F901F0A1F94E4B89
:101670000B2003934D4BBEAC04934D4B0DF25456CF
:10168000059300F051FA0123C2B24A49204601F005
:10169000B3FB494B03A920461C6001F097FCFFF700
:1016A00095FD21460122304602F008F9DFF80C8151
:1016B000434B10AD324621462846424F1E60C8F8C3
:1016C000006002F053F90A203D6000F02DFA012677
:1016D000C1B2284602F074F906ACD8F800203A4BA3
:1016E0004FF0804120461A6000F05EF9374B0DF153
:1016F000CC091C60364A0023CDE9006635494846CE
:10170000DFF8D48000F0E0FA642220463349C8F8BC
:10171000009000F06BF932222046314900F066F962
:10172000324620462F4900F061F904210C2000F0D8
:101730001BFA4FF0000695F888408DF80B6004B155
:1017400030ACD8F8000000F077FC3868436923B962
:101750000DF10B01043002F08FFC002CEBD0204681
:1017600002F046FB2146284602F04DF9E3E700BFB0
:1017700000080140800700207C070020000C014089
:10178000700700206807002000100140600700205B
:10179000580700205007002048070020400700207D
:1017A0003807002030070020506D0008691100083C
:1017B000CD11000800640040B0050020AC050020F9
:1017C000CC070020A8050020C8070020B405002091
:1017D000307F000800480040A40500206112000886
:1017E000BD1100080114000808B504F0D3F84FF04B
:1017F000E0231C4A40F20230C3F80C2D04F010F92B
:1018000040F2033004F00CF94FF4417004F008F991
:1018100040F2053004F004F940F20E3004F000F913
:1018200040F2923004F0FCF84FF4607004F0F8F8E5
:1018300040F2813004F0F4F84FF4207004F0F0F836
:1018400040F2093004F0ECF840F2862004F0E8F8A9
:101850004FF4407004F0E4F8BDE8084040F29930DD
:1018600004F0DEB80003FA05F0B597B003F0F6FD1A
:10187000044600F5FF3000F2FD101422002185021D
:1018800001A800F076FD4FF49033154A1549CDE9D3
:101890000123154BCDE9031303F0C4FD142101A866
:1018A00003F0CEFD15902B6D834217D003F0ECFEB4
:1018B000284603F0A5FE15266FF00307A40204F1E5
:1018C000006401ADA4F6AC3407FB064055F8041BD8
:1018D00003F0F4FE013EF7D103F0E2FE17B0F0BDD5
:1018E00000100140000C01400600010008B51C205A
:1018F00004F0F2FBBDE80840E0211C2004F0FABB34
:1019000008B503204FF2234104F038F9BDE8084040
:10191000002004F00BB9000008B54721214804F06D
:1019200068F94FF6FF711F4804F065F91D4804F08F
:1019300051F904211B4804F0F1FA0121194804F07F
:10194000E4FA5021174804F0F1FA0F22002115485B
:1019500004F07BFA0F220121124804F076FA0122EA
:101960000021104804F099FA01220E48114604F0B3
:1019700094FA00210B4804F006FA0221094804F009
:1019800027FA0021074804F0B9FA0121054804F0BC
:10199000B5FA0448012104F050FABDE808400148B6
:1019A00004F01DB90004004038B50C46054601623C
:1019B000084604F00AF9204604F00CF9094B2046C9
:1019C0001968094B4900B1FBF3F1013904F011F931
:1019D00020464FF6FF7104F00EF9002328466B6293
:1019E00038BD00BF94050020A0860100F8B5436A09
:1019F0000446032B0F462ADC006A02EB8205144ED4
:101A000004F0F2F8636A0122F15C206A04F0F5F850
:101A1000636A0022F15C206A04F0FFF90221636A24
:101A200005EB850503F10802AD0044F823709940E9
:101A300024F81250206A04F0BBF80021206A04F058
:101A400002FA206A04F0CBF8636A01336362F8BDDE
:101A5000586D00082DE9F843044600254FF00208B0
:101A600000F11006636A08FA05F7AB420ADC394652
:101A7000206A04F0A7F80135042D06F10206F1D121
:101A8000BDE8F8833946206A04F096F8A8B1206AC8
:101A900004F0D7F9236A3188343353F8252081467E
:101AA0000A4443F8252054F825309847206A04F06A
:101AB000C8F9A0EB09003081D9E7636AAB42DADCF0
:101AC000D5E7002170B500F10E03446A4FF47A7532
:101AD00008468C4200DC70BD5A8933F8026F6A43B5
:101AE000B2FBF6F201311044F3E7000010B51C24FC
:101AF000084B04FB0033DC688C4209DC1B698B4219
:101B000006DB054B43F82010FFF72EFD002010BD2B
:101B1000FF20FCE7AC00002000000020014B53F840
:101B20002000704700000020024B53F820004011B5
:101B3000704700BF0000002008B5054B53F8200097
:101B400004F0D8FE4FF0745104F028FF08BD00BF28
:101B500000000020034B53F820004011431E584260
:101B60005841704700000020024B490143F8201003
:101B7000704700BF00000020014B43F82010704761
:101B80000000002010B5044608464FF0844104F0E0
:101B900005FF05F053F8024B43F8240010BD00BFC9
:101BA0000000002070B506460024074D31466868E5
:101BB00000F03EFB08B9E0B270BD01342B2C05F1FA
:101BC0001C05F3D12C20F7E7AC0000200023064AC7
:101BD000118B814201D1D8B2704701332B2B02F116
:101BE0001C02F5D12C207047AC0000201C22024BB7
:101BF00002FB0030704700BFAC0000200023064A03
:101C00000649108B10B1506941F8230001332B2B8A
:101C100002F11C02F5D17047AC000020000000204A
:101C2000014B1954704700BF00070020024B1A5C9B
:101C300011431954704700BF00070020024A135C8B
:101C400023EA01031354704700070020014B185C7E
:101C5000704700BF000700201C22024B02FB00332C
:101C6000987E7047AC0000204FF243407047000060
:101C7000024B1A68024BC3F86824704780050020A5
:101C8000AC0000202021806804F0B3B9806804F023
:101C9000A8B910B504464368597A586803F047FC60
:101CA000636804F12A02597A586803F052FC6368A9
:101CB0008022597A586803F05CFC6368BDE81040E4
:101CC000597A586803F02ABC70B5026140F20112DB
:101CD0000D464C498282016001210022817580F805
:101CE000281004460421C0E9062280F82020426220
:101CF0009DF81020856080F829209DF8142003733A
:101D000080F82A22404A42601068A84203D01C3260
:101D100001396260F8D13D490C60002B6FD05069E9
:101D2000138B0222032103F0D5FC28464FF4E13146
:101D300004F004F92846082104F014F928464FF469
:101D4000005104F018F928460C2104F020F9284627
:101D5000002104F016F90021284604F01EF9284657
:101D600004F031F9284604F033F96368197A5868A9
:101D700003F07AFB6368197A586803F0C6FB63685E
:101D80002A1D197A586803F0DBFB63680022197A70
:101D9000586803F097FB63680022197A586803F0CB
:101DA00084FB6368197A586803F099FB6368597A71
:101DB000586803F059FB63682A1D597A586803F084
:101DC000BFFB63680022597A586803F07BFB6368A5
:101DD0000022597A586803F068FB6368597A58689A
:101DE00003F07DFB63685868597A03F097FB20463F
:101DF000FFF74FFF284604F0D6F8204670BDD068A4
:101E0000138A8EE7BC7E0008C07E00082C070020E5
:101E100038B5437D0D4643B10469216819B12846A0
:101E200000F006FA20B9236803B90024204638BD23
:101E30000834F2E738B504460D4663680222197A81
:101E4000586803F028FB18B994F82830002BF4D018
:101E50006368197A586803F06AFB6368AAB2197A52
:101E6000586803F086FB94F82020636804EBC212E4
:101E7000197A5868AA3203F06CFB63680222197A57
:101E8000586803F002FB6368197A586803F046FB50
:101E900094F82030B3FA83F35B0984F820300023F0
:101EA00084F8283038BD10B50446A37D084623B910
:101EB000A068BDE8104004F07BB894F82030626A56
:101EC00004EBC31313440A2802F1010183F8AA00AA
:101ED00001D07F2A05D12046FFF7ACFF00236362C3
:101EE00010BD6162FCE7802A28BF8022002330B445
:101EF000934203D130BC1946FFF79CBF90F82040B5
:101F0000CD5C00EBC4141C4484F8AA500133EFE705
:101F100038B5054608460C4600F0A1F921460246B0
:101F20002846BDE83840FFF7DEBF000010B5044684
:101F3000084600F0E7F900F0CCF9217D227B8142D0
:101F4000636811D1012161755AB158691B8B032156
:101F5000022203F0BFFB2046BDE810400949FFF70D
:101F6000D7BFD8681B8AF2E7002161753AB158697A
:101F70001B8B0122BDE81040002103F0ABBBD868E9
:101F80001B8AF6E7CC79000830B5044685B00846D0
:101F900000F0B8F90378302B26D0322B144D18BF3F
:101FA0004FF46125637DA3B10A22294601A800F000
:101FB00066F920460F49FFF7ABFF20460E49FFF7B1
:101FC000A7FF204601A9FFF7A3FF20460B49FFF713
:101FD0009FFF2946A06803F0B1FF0021A06805B06B
:101FE000BDE8304003F0C7BF4FF4E135DAE700BF8A
:101FF00010552200CB790008D1790008617E0008D5
:1020000010B50446084600F07DF9037823B1303B53
:1020100018BF012384F8293094F829302BB10449E2
:102020002046BDE81040FFF773BF0249F8E700BF44
:10203000E0790008EA7900082DE9F0414368044698
:10204000597A586803F08EFA0546C0F1800710B936
:102050002046FFF71EFE94F82930A06813B1E3690B
:10206000BB4258DB082103F0C4FF10B1A06803F0A5
:10207000B8FF7F2D00F3A180631B93F8A9300A2BD2
:1020800002D00D2B40F086806368597A586803F0BF
:102090004EFA7F2D3AD00022E31983F82A2020211E
:1020A000E26104F12A0000F0E1F890F800800546B2
:1020B000B8F1000F37D10A2104F12A0000F0D6F858
:1020C000054684F8AA812B782BB90D2104F12A004A
:1020D00000F0CCF80546002339492B7004F12A00A2
:1020E000A36100F0A5F820BB204604F5D571FFF7E9
:1020F0001DFF0027A369002B42D0A06803F075FFE5
:10210000A36920465B6804F5D57198472046BDE871
:10211000F041FFF7BEBD5A1CE261234493F82A1038
:1021200003F046FF97E7411C04F5D57000F08EF8E8
:10213000C9E7244904F12A0000F07AF868B994F854
:102140002A322BB1204604F5D571FFF71DFFD0E7E9
:1021500020461D49FFF7DCFECBE71C4904F12A00AD
:1021600000F066F828B9204604F5D571FFF748FF5E
:10217000BFE7204604F12A01FFF74AFEA061B9E754
:10218000012FC3DD637D002BC0D020461049FFF72F
:10219000BFFEBBE794F82A30212B0ED1A36963B1AF
:1021A0002046FFF776FD0023E361A369204604F58E
:1021B000D5715B68BDE8F0411847BDE8F08100BF0C
:1021C000F5790008007A0008097A0008227A0008E8
:1021D000277A0008034BC1B21B681A6818461268B8
:1021E000104700BF2C070020704700F043BC0000E0
:1021F00007B50649D1F8F027D1F8EC37D1F8E81740
:102200000091034900F090FA03B000BD00F0FF1FF9
:10221000427A000810B50446FFF7F0FC2046BDE8FE
:102220001040014900F080BA537A000801F024BF41
:10223000431E013913F8010F11F8012F10B10AB133
:102240009042F7D0801A18BF01207047013911F869
:10225000013F0BB90370704700F8013BF7E700231B
:10226000C25C0AB9184670470133F9E703461A7889
:1022700018461AB18A4203F10103F8D170470029C8
:1022800070B51EDA2D23012400F8013B49420646B1
:1022900091FBF2F302FB131130313170191E3546F8
:1022A00006F10106F4DC00220346201A30443270A5
:1022B000AB420BD21A78297803F8011B05F80129E3
:1022C000F6E704D1302341700370012070BD002473
:1022D000DDE730B503782D2B11D14FF0FF340130FD
:1022E00000210A25431E01E005FB012113F8012FFF
:1022F000303AD0B20928F7D904FB01F030BD0124EF
:10230000EEE7000010B5144C02780146A2F10A0372
:10231000DBB2162B1BD824FA03F3DA0700F1010015
:10232000F2D40846FFF79BFF013808448142044677
:102330000AD203780A3BDBB2162B05D8064A0138CD
:1023400022FA03F3DB07F1D40023637001E0002AD3
:10235000E7D1084610BD00BF09004000002310B5BA
:10236000934200D110BD51F8234040F8234001337F
:10237000F6E702B97047013A40F8041BF9E72DE986
:10238000F041174682800022013B0E4601608271B7
:10239000082B0BD8DFE803F0080E0C1815052426CF
:1023A0001A000024002513E0012383710224F9E7B9
:1023B00001238371022400253946304603F0C4F915
:1023C00006E001248471EDE70124EBE702240325F4
:1023D0003B46224629463046BDE8F04103F07AB933
:1023E0000024F4E701240325E6E700004FF400424F
:1023F000014B1A80704700BF7807002070B50C1E93
:10240000ACBF01234FF0FF335C430133064608BFE6
:102410002D234FF0640208BF06F8013B611104F060
:102420001F040546544330460A22FFF728FF2E2298
:102430006411092C3254D8BF302206EB0003D8BFF8
:102440005A7021464FF00A02CCBF581C981CFFF767
:1024500016FF284670BDF0B5027803462D2A13D129
:102460004FF0FF30013300250A2702E007FB052566
:1024700001331C78A4F13002D6B2092EF6D9A4B9E2
:102480008D4025446843F0BD0120ECE78A4002EB13
:10249000660292FBF6F20CFB06F6144413F8012FC9
:1024A000303AD7B2092FF1D9EAE70A260024B44618
:1024B000F4E72DE9F843141E0646894614DC20276C
:1024C000DB071FD50025C84626E0013219F80210A7
:1024D0000029FAD1A242ACBF0C46A41A13F0020F95
:1024E00014BF30272027EBE70022EFE7336841468F
:1024F00030461B689847013D002DF7DC24EAE4755F
:10250000641BE0E725465FFA87F8F5E73368304655
:102510001B6808F10108984798F800100029F5D1C8
:10252000A5EB09054544A046FFB2B8F1000F05DC54
:10253000002CACBF2819281CBDE8F8833368394645
:1025400030461B68984708F1FF38EEE72DE9F04365
:1025500085B08046DDE90C691C460D4651B9302333
:102560003246ADF8003069464B46FFF7A2FF05B092
:10257000BDE8F08323B10A2A2DD100292BDA4D4280
:1025800000238DF80D300E9B0DF10D0C3A3BB5FB81
:10259000F2F002FB1051CF18092988BF3946AA4230
:1025A00001F130010CF1FF370CF8011C15D954B1C1
:1025B000B6B119F0020F13D0D8F800302D214046E3
:1025C0001B689847013E4B46324639464046FFF766
:1025D00070FF2044CBE70024D2E70546BC46D6E78F
:1025E0002D23002407F8013CACF10207EBE7084675
:1025F000FFF7F0BD2DE9F04380460E461446002556
:102600004FF00A098DB0317819B928460DB0BDE8F0
:10261000F08325296DD171780029F6D0252906F19E
:10262000010065D02D290ABF01270027B01C0378BF
:10263000302B14D0002203780646A3F130015FFA54
:1026400081FCBCF1090F0ED9662B3DD00FD8632B4E
:1026500044D0642B1CD0582B2ED00136D3E7013048
:1026600047F00207E3E709FB02120130E3E7752BAD
:1026700024D0782B19D0732BEFD1216820483B460A
:10268000002908BF014604344046FFF712FF0AE064
:102690006123CDE90173012300920A22216840469B
:1026A0000434FFF753FF0544D7E76123CDE90173F5
:1026B000009200231022F1E74123F7E76123009203
:1026C000CDE901730023E8E7216808A805920434E6
:1026D000FFF794FE3B46059A08A9D5E7236807A9AA
:1026E0008DF81C30002304348DF81D303B46CBE7B9
:1026F0000646D8F8003040461B6898470135ACE7DD
:10270000A57A00080FB407B504AA52F8041B054BBC
:102710006846CDE90032FFF76DFF03B05DF804EBCA
:1027200004B07047A87F00080EB403B503AA52F89E
:10273000041B0192FFF75EFF02B05DF804EB03B0EB
:102740007047000008B5294802F022FC274802F033
:1027500024FC264802F02BFC244802F023FC07212D
:10276000224802F000FC214802F0C6FB1F4802F09C
:10277000DDFB1E4802F0EDFB1D4A02211B4802F062
:102780001BFC1A4802F05BFC4FF46021174802F072
:10279000C3FB0121174A184802F0D2FE0121174A53
:1027A000154802F0D6FE4FF480720121124802F063
:1027B00089FE4FF4806201210F4802F076FE182254
:1027C00001210D4802F0D5FE01210B4802F087FEE1
:1027D0000121094802F08CFE0748012102F09EFE0B
:1027E000BDE80840014802F020BC00BF00240140C1
:1027F000B40700204C240140000002408407002060
:10280000884207DD914203DC01469142A8BF114690
:10281000084670479042F8DD0146F9E737B56D4646
:10282000046804F10C033C3433F8042C33F8081C1E
:1028300033F80C0CFFF7E4FF0C33A34225F8020B2E
:10284000F2D1BDF80230BDF800001844BDF80430E4
:102850001844BDF806301844C0F38F0003B030BDF3
:1028600008B50D4B98420BD003F5806398420BD00E
:10287000A3F5006398420BD1072909DCC8B208BD53
:10288000012905DC0831F9E7052901DC0A31F5E702
:1028900002F03AFB1020F2E7000C0140012370B572
:1028A00093400D46164600220446114628469BB228
:1028B00002F010FF054B246831462846E41AFFF762
:1028C000CFFF034BC4F34F04185570BD840700209D
:1028D000B4070020034B044A1360044A0233136018
:1028E000704700BF84070020800700207C0700207D
:1028F0002DE9F04FADF2044D02F0B0FDFF26054684
:102900004FF0FF3A6FF00302840202FB064303F12B
:10291000006353F8043C013E0AEA030AF5D202F0D0
:1029200081FD31464FF480726846FFF722FDE8468C
:102930006E460027F8B2FFF78FF970B9F8B2FFF7CB
:1029400055F98346F8B2FFF781F9F070BBF81830FB
:10295000F8B23380FFF7E2F8706001372B2F06F1F1
:102960000806E7D1FE21684602F06AFDFE9002F0FB
:102970008BFEBAF1FF3F06D005F5FF3000F2FF10E5
:10298000800202F03DFE002504F10064A4F580649D
:10299000601958F8041B043502F090FEB5F5806FFD
:1029A000F6D102F07DFEFE980DF2044DBDE8F08FE9
:1029B00070B502F053FD00F5FF3404F2FF14A402D9
:1029C00002F030FDFE21204602F03AFDD4F8F83343
:1029D000834217D104F57E762088FFF7F7F82C287C
:1029E00005460AD0FFF738F938B928466168FFF77D
:1029F000C3F82846E178FFF713F90834B442EBD165
:102A0000002070BD4FF0FF30FBE70000014B186065
:102A1000704700BFB8070020032807D8044A02EB1C
:102A2000C0035B6813B112F8300070470020704794
:102A30006005002003289DBF024B03EBC0035868CC
:102A4000002070476005002010B4074B03EBC10263
:102A50001479064A53F8313052F82420014610BC4C
:102A60000348FFF74FBE00BFB87F0008AC7F0008E7
:102A7000AC7A000838B5094C636853B1002560682A
:102A800030B114F8081B0135FFF7DEFF042DF6D135
:102A900038BD0348BDE83840FFF734BE600500206C
:102AA000BC7A000830B50C24002361430B4A8BB07C
:102AB00054185258A568CDE90332CDE90733CDE962
:102AC0000133646806950594009301221946D0F8F5
:102AD000580202F0C5FA0BB030BD00BFE47F000819
:102AE000F7B504460E4615461F4672B60121D0F8CA
:102AF000580202F0C4FBCDE90075B6F5006F34BF93
:102B00000022012200233146D4F8580202F0BCFB17
:102B1000002818DAD4F85432132B07DD0121D4F839
:102B2000580202F0A8FB62B603B0F0BD04EB03123A
:102B3000C2E9456729680133C2F81C116968C2F807
:102B40002011C4F85432D4F85432002BEBDDE5E701
:102B50000128DABF024B53F820000020704700BF65
:102B6000BC070020F0B5044600278BB0CDB20DF1B4
:102B70001A0303930DF11B0302930DF11903019343
:102B800008AE06AB00930597049601222946D4F8B7
:102B9000580207AB02F0EFFB08B90BB0F0BD3246AC
:102BA00020469DF81A30079900F052FA02F0B4FF5F
:102BB000C4F8F800DBE773B5044640F2FF7600F591
:102BC0008A75D4F85432002B1CDD03F18053013B8D
:102BD0001A0105EB0313A95803F1080201921B79AE
:102BE000B142009394BF002201220023D4F858027E
:102BF00002F04AFB002805DBD4F85432013BC4F84C
:102C00005432DEE7D4F854323BB90121D4F85802EB
:102C100002B0BDE8704002F032BB02B070BDF0B54A
:102C20001C460127106885B09B8815460E466288B1
:102C30002188029707400197E7885B017F01BFB2B7
:102C4000520149019BB292B289B2009702F0F6FAA2
:102C5000002333602A6801322A60E380A380638006
:102C6000238005B0F0BDF0B51C460125106885B085
:102C70009B8816460F46628821880295054001957B
:102C8000E5885B016D01ADB2520149019BB292B280
:102C900089B2009502F0C2FA00233B60326801322B
:102CA0003260A380238040F2FF73E380638005B02D
:102CB000F0BD73B5106815460E465A6819681C4673
:102CC0000123D200C900009342F00402034041F006
:102CD000040102F0C3FA002333602A6801322A603B
:102CE000C4E9003302B070BD70B50446002300256E
:102CF00026463E498AB00868496806AA03C2D4F845
:102D000058223B49CDE908338A42CDE90433CDE965
:102D1000003302931EBF374BD3F8003AC3F30523A9
:102D20000393C2F81C52D4F8F430009AAB421BDC77
:102D3000002A05DD6946204604AB03AAFFF76FFFB2
:102D4000019B002B05DD204606AB03AA02A9FFF775
:102D50008AFF029B002B05DD204608AB03AA02A9CF
:102D6000FFF7A7FF0AB070BD56F8043FB3F5006F38
:102D700026D3029A0AA901EB820123F060430132B3
:102D800041F8083C0292009B042B05D1694620467D
:102D900004AB03AAFFF743FF019B022B05D120469A
:102DA00006AB03AA01A9FFF75EFF029B022B05D128
:102DB000204608AB03AA02A9FFF77BFF0135B2E763
:102DC000B16F51B1019A0AA800EB420020F8103C03
:102DD000931C019320F80E1CD5E70AA901EB4201D0
:102DE000013221F8183C0092CDE700BF2080000896
:102DF0000064004000600040F8B504460E461D46E1
:102E0000174600F0CFF800214A4BC4E9951623601D
:102E1000494B9E421AD003F580639E4253D0D4F8AA
:102E2000580202F011F939462046FFF73BFE2046D2
:102E3000FFF75AFFD4F85802022102F01CFAD4F826
:102E40005802102102F017FA2046F8BD4DB34FF496
:102E500080730222394802F03DFC4FF480713748FC
:102E600002F072FC4FF4007302220321334802F097
:102E700031FC142003F030F9F021142003F03AF96A
:102E8000152003F029F9F021152003F033F9132060
:102E900003F022F9F021132003F02CF9284B1C60D9
:102EA000BDE74FF4006302222946264802F012FCD7
:102EB0004FF40061234802F047FC4FF48053022294
:102EC00003212048D3E735B3202302221B4802F018
:102ED00001FC2021194802F037FC40230222032183
:102EE000164802F0F7FB402003F0F6F8F0214020EE
:102EF00003F000F9412003F0EFF8F021412003F046
:102F0000F9F83F2003F0E8F8F0213F2003F0F2F851
:102F10000B4B5C6083E74FF480530222294607483D
:102F200002F0D8FB4FF48051044802F00DFC4FF43E
:102F30000053D3E7D87F000800640040000C014034
:102F4000BC07002000080140024B00211868FFF771
:102F500009BE00BFBC070020024B01211868FFF723
:102F600001BE00BFBC070020014B1868FFF723BE5D
:102F7000BC070020024B00215868FFF7F3BD00BFDB
:102F8000BC070020024B01215868FFF7EBBD00BFD2
:102F9000BC070020014B5868FFF70DBEBC0700209E
:102FA00070477047074B03600023C0F8F430C0F847
:102FB000FC30054BC0E94033C0E94233C0F8103162
:102FC000704700BF3080000884050020D0F8FC3036
:102FD000042BDFBF03F14002013340F82210C0F898
:102FE000FC30D4BF012000207047D0F8F43070B519
:102FF0001D2B15DC05460024A3420BDC00EB8304EB
:103000006160E2670133C0F8F43003689B68984759
:10301000012070BD55F8046F8E4201D00134EBE7FA
:103020000020F6E770B50546002455F8FC3BC0F8D3
:10303000F4409B6806469847D6F8FC30A34200DC73
:1030400070BD55F8040F013403685B689847F3E7D7
:103050002DE9F04705460F4690469946002400F1B9
:10306000FC06D5F8FC00A04201DCBDE8F08756F86C
:10307000040F424603683946D3F800A04B46D047B8
:103080000134EEE7F8B5064600F1440700F14804C4
:1030900014F8023C322B10D034F8043CE51BC3F387
:1030A000C02123F400630022706803EB4171FFF735
:1030B0009CFF382D04F10404EADDF8BDF0B591B1B0
:1030C00002F111040F2A00EB84040AD8A578322DEE
:1030D00007D00C27002107FB050580356E7AFF2EEF
:1030E00003D1002007E0941CECE70BBB21B14E722A
:1030F000FF2301206B72F0BD322E15D1C2F10F02F9
:10310000A61E8A4204D04B1C16F8230032280DD18B
:103110000139C9B204EB81039A78A27034F82120F6
:10312000228032229A70E3E7A670E1E71946E8E7C9
:1031300007FB0606013B2946DBB206F18005CDE719
:103140002DE9F0414FF0020C88464FF00C0E0021A3
:1031500000F108073D4600220CE000230EFB0404AA
:103160008034667AFF2E0FD10435EB1B0132382BE9
:10317000D2B202DCAC78322CEFD101218C4500F1C7
:1031800044070FD08C46E5E7A488444505D00EFBE4
:103190000606013306F18004E3E7DBB2BDE8F04147
:1031A000FFF78CBF0020BDE8F0812DE9F04100243D
:1031B0004FF00C0EDDF824C000F108078CF8004039
:1031C0003D4609E00EFB04048034667AFF2E11D1DF
:1031D0000435EC1B382C02DCAC78322CF2D1012502
:1031E0009CF8004000F144078CF80050002CE7D018
:1031F000002019E0B4F80480884517D12988C1F36C
:10320000C02021F4006141EA407101201160E2799F
:103210001A7094F90820069B1A702268079B1A609E
:1032200094F90620089B1A70BDE8F0810EFB060693
:1032300006F18004C9E730B5044691B102F11101ED
:103240000F2A04EB81010AD88A78322A07D00C258C
:1032500005FB024202F18000427AFF2A03D10020DE
:103260000BE0911CECE74BB90B88C3F3C02223F4AD
:10327000006343EA4273039A136030BD013BDBB243
:10328000E6E72DE9F04F06464FF002094FF000083F
:103290004FF00C0A87B0059100F108073D1D15F8A5
:1032A000024CAB46322C1AD126E035F8040C94F9C6
:1032B0000830E27920F4006CC0F3C0212079CDF809
:1032C000088094F906E04CEA4171CDF804E0D4F8A6
:1032D00000E0DDF814C0CDF800E0E047647A0AFBB6
:1032E000046494F889308034FF2BDED1ABEB070304
:1032F000382B05F10405D2DD4FF00108C14506F178
:10330000440701D0C146C9E707B0BDE8F08F3222BB
:1033100001F13C038A7004319942FBD1FF2200F590
:10332000197380F889200C309842FAD1704710B593
:10333000044600F10801FFF7EAFF204604F14401CA
:10334000FFF7E5FF6068BDE81040FFF76BBE2DE9B1
:10335000F041002488461F462646151FBC4202DB6A
:103360003046BDE8F08155F8040F02F063F8296893
:10337000064608EB840002F0A1F90134EEE70846A6
:103380008378322B08D00388534033F4006304D091
:103390000430431A382BF3DD002070472DE9F84341
:1033A000414B06461B78154673B90A4600F14401A5
:1033B000FFF7E5FF40B10C230127847803FB046489
:1033C0008034637AFF2B01D1BDE8F88394F908C0FB
:1033D000E3798CEAEC71A1EBEC71BCF1000FC9B29E
:1033E00043DA1F2B2DD82A6812BAC3F11F03DBB2B0
:1033F00007FA01F0DA400138104003F077FA81460D
:1034000094F9060003F076FA494603F0BFF9216803
:1034100003F0C4FA81462079FEF71EFC002838D15B
:103420004FF08441484603F0B9FA03F007FC014627
:103430002079FEF75BFB0C23647A03FB0464803481
:10344000BFE79C44BCF11F0F6A6801DD203BCBE75E
:10345000013328685B1ADBB2D840C3F1200302FABB
:1034600003F340EA03024B1EBEE71F2B02D96A6832
:10347000203BBCE79C44BCF1200F2A68B8DD68689B
:10348000C3F1200CDA4000FA0CFC00234CEA0202E3
:10349000AEE72079FEF7E0FB0128C1D0494620794C
:1034A000FEF770FBC7E700BFC4070020F8B59DF921
:1034B0001C40164605461A469DF81870002C5ED032
:1034C00084EAE470A0EBE470C0B2202857D8002C46
:1034D00005DD3B19402B07DD6FF0010018E03F2FA1
:1034E000FAD83B190133F7DB2846FFF748FF0028DD
:1034F0004AD18C4601F13C039CF802E06046BEF1E3
:10350000320F3FD00CF1040C9C45F5D16FF0030055
:10351000F8BD0CF1010CBCF1320F3BD16FF004008F
:10352000F6E75A4302F1800E2A4492F88920AE440D
:10353000322AF6D103FB0C53089DA3F88460C3F82C
:1035400080509DF9245083F8877083F8865083F863
:10355000884083F88920BEF1000F0DD180F802C0A9
:103560000B4600209A78322AD2D004335A1A382ACD
:1035700000F10100F6DDCBE78EF809C0F0E76FF04F
:103580000200C5E7ACF800204FF0000C4FF00C0E25
:1035900005F189020EFB0CF3D35CFF2BB9D14FF080
:1035A000000E0C238278C3E730B5B2F5006F85B00A
:1035B00010D29DF928500395099D02959DF9205040
:1035C000CDE9003513460A4600F10801FFF76EFF0A
:1035D00005B030BD4FF0FF30FAE7F0B5154622F0E8
:1035E0000052B2F5006F064685B01AD29DF93070D0
:1035F000C5F3407403970B9F02979DF92870CDE99E
:10360000003742EAC4230A4600F14401FFF74EFFA7
:103610000022044629467068FFF7E7FC204605B003
:10362000F0BD4FF0FF34F9E72DE9F04F0E460027CB
:103630008DB0CDE90923089001F132054FF6FF73F3
:1036400035F8322CA8469A423DD0A5F1300AA5F1B2
:103650002A0414F9013CA146002B2DDD34F8060C98
:10366000FEF7B4FA089B0B901B6834F9040C059321
:1036700035F8323C14F901BC069314F8023C079368
:1036800003F038F90A9A034622B14FF0745103F05F
:1036900085F903460293079B0B9A00930999069BB1
:1036A00005980397CDF804B0FFF700FFA9EB0A03D4
:1036B0002A2B04F10604CCDDA8EB0603B3F5E17F69
:1036C00005F13205BADD0DB0BDE8F08F08B501F0A7
:1036D000C5FE00F5FF3000F5FF70800208BD73B530
:1036E00005460190FFF7F2FF0446D0F8E86301F0C9
:1036F00099FEFA21204601F0A3FE864211D1002353
:10370000214605F1080201A8FFF78EFF01A8012359
:1037100005F1440204F5FA71FFF786FF012002B0BB
:1037200070BD0020FBE72DE9F041074688460D46B5
:103730000C26AC78322C06D111E02079FEF756FA2F
:10374000038BA380647A06FB047494F88930803478
:10375000FF2BF2D10435A5EB0803382BE9DDBDE8DA
:10376000F0812DE9F041074688460D460C26AC78DD
:10377000322C05D110E0A088FEF728FAA080647AE8
:1037800006FB047494F889308034FF2BF3D10435A0
:10379000A5EB0803382BEADDBDE8F0812DE9F34104
:1037A0000446FFF793FF0122054603464FF0FF361C
:1037B000274F3A7000F5806253F8041B934206EAE3
:1037C0000106F9D101F02EFE01F05EFF022001F0AA
:1037D00051FF013602D0284601F012FF204604F1C5
:1037E0000801FFF7A0FF204604F14401FFF79BFF0B
:1037F000294604F108020F232046FFF7A8FD04F133
:10380000440205F13C010F232046FFF7A0FD04F11F
:10381000800205F1780196232046FFF798FD0123E9
:1038200001AA05F5377101902046FFF790FD01F0E0
:1038300037FF204604F10801FFF793FF204604F10B
:103840004401FFF78EFF00233B7002B0BDE8F0811A
:10385000C4070020F8B50446FFF738FF0546D0F846
:10386000DC6201F0DFFDB421284601F0E9FD86426B
:1038700004D02046BDE8F840FFF731BF04F1080747
:10388000294638460F22FEF769FD05F13C0104F197
:1038900044000F22FEF762FD962205F1780104F143
:1038A0008000FEF75BFD39462046FFF75AFF2046B1
:1038B00004F14401FFF755FF0120F8BD38B5044677
:1038C00015460D4B0846C4E900312146FFF77EFB43
:1038D000204604F10801FFF71AFD204604F14401D7
:1038E000FFF715FD15B12046FFF7B4FF2046FFF79F
:1038F000C9FB204638BD00BF5480000810B50446FF
:10390000017C002201F5C0618068FFF76EFB617CDD
:103910003F2907D8A0680022BDE8104001F5B0613A
:10392000FFF763BB10BD036E9BB14FF47A73036660
:10393000826DC36D9A4202D1036E002BF8DC836D59
:103940005A1C03F03F030344826519764FF0FF339E
:1039500043617047A0F10400FFF7E5BF10B40368AE
:103960005C680823A44610BC6047000010B50446FC
:10397000124BE26023601433C4E901314FF6017346
:1039800023824FF0FF33402263610023A365E26589
:103990004FF47A7222662C22A36684F8642084F89D
:1039A0007830E36784F8883008462146FFF70EFB3D
:1039B0002046FFF7A3FF204610BD00BF648000082B
:1039C00001748068FFF72EBB13B5ADF801309DF888
:1039D000103004468DF80330059B8DF800100193DC
:1039E000437C934203D042748068FFF71BFB0023A3
:1039F000617C6A46A06884F8783001F5C061FFF701
:103A0000ADFF02B010BD10B50A46017C044601F5B9
:103A1000B0618068FFF7A2FF002384F8883010BDF2
:103A200045F20103B1F8012010B59A4216D10A7887
:103A3000402A01D0002010BD4FF0FF3341240B710C
:103A40004B710C7000234FF47A748B71CB71046648
:103A50008365C265CB7843610120ECE7012380F8E0
:103A600088300B7880F88030B1F80130A0F88130D0
:103A7000CB7880F883304B68C0F88430DAE70000F8
:103A80002DE9FF41CE78B1F80120731EC3F347033F
:103A9000002E18BF1E460C4603AB0093C2F3C0189D
:103AA000334607464146C06802F03F02FFF7C3FBBA
:103AB00023780546402B2ED108B30079FEF796F8FF
:103AC000E37823B9039B63604323237020E0DB0783
:103AD00008D595F90830EA791B0643EA0243028BC0
:103AE0001343F0E71549286802F058FF03F0A6F8E1
:103AF00095F9063020F07F4040EA0363E3E7802336
:103B000023700023237163710223A3710623E371E1
:103B100004B0BDE8F081232BF1D10028EFD0636819
:103B2000002BECD1B4F8012033464146F86802F08E
:103B30003F02FFF7C3FA6023C7E700BF00007A44E3
:103B40002DE9F0430B780446232B0D46914685B0B2
:103B50000DD1CB78DBB94B68B3F1005F04D323F010
:103B60000052B2F5006F05D2A36660232B7005B03A
:103B7000BDE8F0834FF0FF33836680232B70002372
:103B80002B716B710223AB710623EB71EFE7876E2C
:103B90007A1C14D0012B12D1486880B2FEF716F8B7
:103BA000A4F870006B682A28C3F3054384F87330C7
:103BB0006B684FEA236384F87430DED8D5E794F954
:103BC0007480B8F1000FD8D0022BD6D16E6846F3BE
:103BD000170002F08FFE124902F094FF8446361659
:103BE000E06694F87010E06894F8733084F87260BE
:103BF0003A460296CDF804C0CDF80080B9F1000F26
:103C00000AD0FFF7EAFC002384F874304FF0FF334A
:103C10000028A366A9DAB0E7FFF7C6FCF3E700BF08
:103C200000007A44F8B50A78054602F06003602B7C
:103C30000C4621D1012302F010020A70EA6DA96D31
:103C4000521A402A0AD0EA6D511C02F03F02E9657F
:103C50002A44127EE2540133082BEFD1EA6DA96D9C
:103C6000521A402A2FD12278C3F1080342EA4303B3
:103C700043F00103237026E0B1F80130B3F5005F93
:103C800015D003F47F46B6F5045F32D1C8781B0225
:103C90009BB21844FDF79AFF2A2823D82378232BB8
:103CA00019D16168FDF722FF18B96023E2E7C878EF
:103CB000F2E78023237030232371002363710923EB
:103CC000A3710623E371297C2246A86801F5B0613F
:103CD000FFF744FE3CE0402BF5D1FDF71FFF4323E7
:103CE0006060C7E780232370002323716371022380
:103CF000E6E7C76897B1B3F5405F03D10022FFF74D
:103D00001FFFE0E743F20107BB4201D10122F6E7C2
:103D1000B6F5445F02D1FFF7B3FED4E745F20301E5
:103D20008B4205D1402ADDD1E078FEF775FED6E75B
:103D300045F204018B4205D1402AD3D1E078FEF749
:103D400079FECCE721462846FFF76AFE0028BAD163
:103D5000F8BD0000F7B5037C044603F5C0638B4251
:103D6000154605D1114603B0BDE8F040FFF75ABF34
:103D7000467C06F5B0638B4221D1B2F80170A7F5FD
:103D80004053012B13D8D378DBB990F9741090F815
:103D90007330090641EA0341B0F8703032461943E6
:103DA00001230191009323213B46FFF70DFE2B7861
:103DB000803B18BF012384F878306B68E36703B059
:103DC000F0BD012BF3D10949C06E02F0E7FD02F00E
:103DD00035FF94F97230324640EA036002230190C5
:103DE000009323213B462046DFE700BF00007A44D2
:103DF000B0F8013010B5B3F5A04F04461CD10378DC
:103E0000402B4CD143230370C378032B47D8DFE802
:103E100003F002070B0F264BD3F8E837636010BDA1
:103E2000234BD3F8EC37F9E7214BD3F8F037F5E71C
:103E3000FDF71AFF6060F2E745F2020293422ED1CD
:103E40000378232B2BD160230370C378032B26D850
:103E5000DFE803F002172022164B1B784BB172B635
:103E6000154B186808B1FFF799FCFEF741FD62B6E3
:103E7000D5E7802203714371837108230270E371D7
:103E8000CDE772B6FEF794FD62B6BDE810402B2078
:103E9000FDF76ABB02F018F9FDF7B0FEF5E78023E5
:103EA00023700023237163710223A3710623E6E7C5
:103EB00000F0FF1F88050020C80700202DE9F0430F
:103EC00085B00E46174698469DF83890FDF78EFE51
:103ED000124C456812492068FEF726FC2068B9F1AB
:103EE000000F18D00F49FEF71FFC9DF934304FF03A
:103EF00084410C98039302F051FD02F09FFECDE93E
:103F00000180009733462A4607492068FEF70CFCDB
:103F100005B0BDE8F0830549E5E700BFD007002004
:103F20000F7B0008147B00081C7B0008187B00082E
:103F300070B504460846FEF7E5F920210546FEF770
:103F400095F903782BB910492046BDE87040FEF77B
:103F5000EBBB0023052100F8013BFEF77CFA064687
:103F60002846FDF71FFE2C2807D03146FDF7BEFD81
:103F700008B90649E8E70649E6E72A462046BDE8CB
:103F800070400449FEF7D0BB307B00084B7B000833
:103F9000547B0008697B0008F8B507460846FEF721
:103FA000B1F904462C212046FEF760F9002306787B
:103FB000054603702046FDF7F5FD2C280CD0FDF7D3
:103FC000ADFD024606492C463846FEF7ADFB2C2EC9
:103FD00004F8016BE6D0F8BD22460249F3E700BFC2
:103FE000807B0008857B00082DE9F04106460846E5
:103FF000FEF788F920218046FEF738F90378044659
:104000002BB918493046BDE8F041FEF78DBB0025BD
:1040100005704046FDF7C6FD2C2807461AD0637888
:10402000212B0AD07E2B08D02F2B06D0611C0E48E6
:10403000FEF7FEF820B10D49E4E70125A11CF6E7E3
:10404000012138461DB1FDF7F9FD0949DAE7FDF711
:10405000EDFDFAE742463046BDE8F0410549FEF77E
:1040600063BB00BF9F7B0008AF7B0008B67B0008E6
:10407000C57B0008697B00082DE9F04F04468DB030
:104080000846FEF73FF9464990F800802046FEF7C3
:104090004BFB00274FF0200BDFF80891FEB23046B3
:1040A000FDF7A4FD05463046FDF7D0FDC30702D558
:1040B000B8F1680F56D16B68AA68298B3046079310
:1040C00006920591FDF72AFD0599069A079B029035
:1040D0000191009234495A462046FEF725FB0DF126
:1040E000270303930DF1260302930BAB01930DF10C
:1040F000250300933146D9F8000009AB0AAAFFF75F
:1041000054F800B39DF925304FF084410B98059386
:1041100002F044FC02F092FD244B9DF827C0244A93
:104120009DF92610BCF1000F18BF1A469DF824B067
:10413000059BCDE902120190009320465B460A9A46
:104140001C49FEF7F1FA3046FDF786FDD8B130463E
:10415000FDF782FD012816D020461749FEF7E4FA44
:104160004FF02C0B01372B2F98D1144B2046D3F84E
:10417000F0271349FEF7D8FA204612490DB0BDE8E2
:10418000F04FFEF7D1BA02972B68204601936B6976
:104190000D490093D5E90323FEF7C6FAE0E700BF17
:1041A000E17B0008CC070020E37B0008D67B0008F9
:1041B000DB7B0008117C0008D67C000800F0FF1FA4
:1041C000AC7C0008E77C00085E7C00082DE9F04F1D
:1041D0000D468BB00DF11409142200210446484607
:1041E00002F072FD2846FEF78DF80778702F0BD18C
:1041F000554B564D186856492C60FFF742F800237E
:104200002B600BB0BDE8F08F632F0AD14E4B1868BE
:10421000FFF78DF84F4920460BB0BDE8F04FFEF791
:1042200083BA2021FEF722F803780BB94A49F2E756
:10423000FEF768F820218046FEF718F803780BB9DE
:10424000642FF3D106460025404606F8015BFDF7D2
:10425000A9FC82463046FEF755F8BAF12C0F80468D
:1042600001D13E49D7E7642F0CD1374B514618682E
:10427000FEF766FF02463A4920460BB0BDE8F04F14
:10428000FEF752BA4FF07E5620214046FDF7EEFF72
:10429000037883460BB9022DC8DD002340468BF816
:1042A0000030FEF716F8032D2DD110214046FEF701
:1042B000D2F802F01FFB4FF05E5102F06FFB064692
:1042C0000BF10100FEF71EF80135052D8046DBD10C
:1042D000DDE90598079D1C4B9DF924106AB2742FE7
:1042E00018680291009251464A465FFA88F3019697
:1042F0000CD1FFF759F9431D042B18D8DFE803F060
:1043000012150F0C090049F82500D9E7FFF765F9E8
:10431000F1E74A461349AFE742461349ACE72A465C
:104320001249A9E74A461249A6E7124973E7124A19
:10433000124B13490128D8BF1346024620460BB042
:10434000BDE8F04FFEF7F0B9CC070020D007002001
:10435000BD3E0008ED7C00080F7D0008227D0008AE
:10436000367D00084B7D00085F7D0008737D0008E6
:10437000877D0008AF7D0008637E0008946D00080B
:10438000CB7D00080E4B10B51B78044693B172B676
:104390000C4B1868FFF702FA0B492046FEF7C4F9E8
:1043A000FEF7A6FA024662B608492046BDE810406C
:1043B000FEF7BAB90649BDE81040FEF7B5B900BF2F
:1043C00089050020CC070020F57D0008057E000847
:1043D000217E000810B5044672B6FEF7E9FA62B60F
:1043E00040B92B20FDF7C0F803492046BDE8104036
:1043F000FEF79AB90149F8E7647E0008787E000864
:1044000008B501F061FE2DE9F04700240546894614
:104410001746A0462C212846FDF728FF90F800A05B
:10442000064680F800802846FDF7BCFB2C2886F85D
:1044300000A018BF09F80400337818BF01342C2BF2
:1044400003D1BC4206F10105E4D32046BDE8F08764
:104450002DE9FF4707460846FDF754FF0446FDF7E0
:1044600038FF202105462046FDF700FF037833B9C9
:1044700038461C4904B0BDE8F047FEF755B90DF1C8
:1044800004090A2249460130FFF7BDFF824638463B
:10449000FDF7FCFB3846FDF7F5FB18B985421CDC3F
:1044A0006B1C1AD004B0BDE8F08719F80400FDF7C2
:1044B00035FB424603460C493846FEF735F9DFF82E
:1044C0002C8001345445F0DB38460949FEF72CF9BD
:1044D0006A1C18BF05F1FF35DCE70446DFF81480DD
:1044E000F0E700BF8E7E0008AD7E0008F97A000874
:1044F000617E0008637E000808B5C0F30903A3F2DB
:10450000FF3210F4806F92B218BF134618B202F057
:1045100085F807A3D3E9002301F004FE0022064B2F
:1045200001F030FF02F0E4F800B208BDAFF3008004
:104530009A9999999999B93F0000444038B5C17941
:104540001C4DC1F3C10104461B202970FDF70CFB73
:104550002B781BB930211120FDF706FB2B78012B9E
:1045600003D120211120FDF7FFFA2B78022B03D174
:1045700010211120FDF7F8FA21780F4B01F00F01FF
:104580001C201970FDF7F0FAE07802F0B3F90B493E
:1045900002F004FA0A4B014618601D20FDF7F2FAFA
:1045A0002178084B890919701E20BDE83840FDF7B5
:1045B000DBBA00BFEA070020E9070020CDCCCC3DE4
:1045C0001C080020EB07002010B54088144CC0F3F5
:1045D0000B0002F023F810A3D3E9002301F0A2FDA1
:1045E00002F0AEF880B2208002F080F90146192076
:1045F000FDF7C8FA208802F07DF90A4B196802F02D
:10460000CDF9BDE81040084B014618601320FDF7B6
:10461000B9BA00BFAFF300809A9999999999B93FB7
:10462000260800200C0800201808002000000000C8
:104630002DE9F041044680882B4DC0F3090001F0BC
:10464000EDFF25A3D3E9002301F06CFD02F078F81B
:104650002880E07802F04EF9244902F09FF9244BBB
:10466000804618602088234FC0F30D0001F0D6FF6C
:104670001BA3D3E9002301F055FD02F061F8388057
:10468000A37860781C4E40EA4320C00901F0C6FFC1
:1046900011A3D3E9002301F045FD02F051F8414692
:1046A00030801220FDF76EFA388802F01FF90146BB
:1046B0001620FDF767FA308802F018F90146172036
:1046C000FDF760FA288802F011F9BDE8F0410146D3
:1046D0001A20FDF757BA00BF9A9999999999B93F4D
:1046E0004C37894160E5A03F24080020CDCCCC3D6B
:1046F00020080020140800201208002000000000FC
:104700002DE9F84F384B068802791E80B0F8013049
:10471000364DC778DB102B80D303817843EAC7136B
:10472000477990F806A0324CDFF8C890C08843EA79
:10473000510342EA07225B1152102380A9F800209E
:10474000C00901F06BFF26A3D3E9002301F0EAFCC6
:1047500001F0F6FFDFF8A080DFF8A0B047EA0A27F3
:10476000A8F800003F113046ABF80070FFF7C4FE18
:1047700002F0C0F801461F20FDF704FA2888FFF771
:10478000BBFE02F0B7F801462020FDF7FBF92088B8
:10479000FFF7B2FE02F0AEF801462120FDF7F2F974
:1047A000B9F80000FFF7A8FE02F0A4F801462220A5
:1047B000FDF7E8F9B8F8000002F098F80146232068
:1047C000FDF7E0F9BBF80000FFF796FE02F092F863
:1047D000BDE8F84F01462420FDF7D4B9AFF30080BF
:1047E000D927806264C9D23FF4070020F207002075
:1047F000F0070020EE070020EC070020F60700205D
:104800002DE9F0410378424F03F0DF02C62A044647
:10481000404E414D3B7039D14088C0F30B0001F050
:10482000FDFE39A3D3E9002301F07CFC01F088FFF1
:1048300030806378207840EA4320800902F05AF8FB
:10484000364902F0ABF80022354B28601A703088E8
:1048500002F04CF801461420FDF794F92968152060
:10486000FDF790F92578DFF8BC8005F01F053D7055
:104870002D4E2E4F15BB207902F03CF82C4902F04A
:104880008DF8386001222B4B1A7023E0042BDED107
:10489000234B1B78002BDAD0C088C0F3CB0001F08B
:1048A000BDFE19A3D3E9002301F03CFC01F048FF51
:1048B00030801020FDF740F92860C8E7012D19D19C
:1048C000207902F017F81A4902F068F8194BC8F875
:1048D00000001D70D8F80010386801F057FF3168EB
:1048E00001F054FFBDE8F041134B01461860182059
:1048F000FDF748B9022DEDD1207901F0FBFF0C49FD
:1049000002F04CF83060BDE7DE91B1DAFCBFC23F87
:10491000E8070020100800200C0800200000203DBF
:104920008A05002004080020000800200808002054
:10493000CDCCCC3D2C080020FC0700200378024A97
:1049400003F00F0313707047E4070020F8B51A4D09
:104950000378044609202B70FDF7FCF880B1174A54
:104960002F781078164E411CC9B20A298CBF00233B
:104970000B46375488BF194627201370FDF7F4F80B
:104980002B781E2B11D1B4F803200E4B0E491A8040
:10499000A37803F007030B7040F2B2218A4204D1DE
:1049A000022B03D10122094B1A70F8BD012BFCD157
:1049B0000022064BF8E700BFE3070020E2070020D3
:1049C000D4070020E0070020DE0700202D0800208B
:1049D000C179024B25201970FDF7C6B8E607002003
:1049E00070B5204A037813701F4A1278002A37D115
:1049F0000C2B1E4D1E4E1F4C18D1B0F80100C0F3F9
:104A0000090001F077FF1C4901F0C8FF28603168F8
:104A1000286801F0BBFE216801F0B8FEBDE87040D7
:104A2000164B014618601820FDF7ACB8162B0AD1BA
:104A3000B0F80100C0F3090001F05CFF0E4901F07D
:104A4000ADFF3060E3E7202BE1D1B0F80100C0F307
:104A5000090001F04FFF084901F0A0FF2060D6E7F0
:104A600070BD00BFE70700202C08002008080020C8
:104A700004080020000800200AD7233BFC07002080
:104A800013B50220FDF750F8114C400020700E20A5
:104A9000FDF74AF800280CBF0A2305238DF80030E3
:104AA000237800208DF8013041F6AA23ADF80230BA
:104AB00040F2FF23ADF80430FEF74AF803686A4677
:104AC0005C6840F23D110623A04702B010BD00BF54
:104AD000F807002013B5094B002000934FF48C73A6
:104AE000ADF80430FEF734F803686A465C6840F2BB
:104AF0000A210623A04702B010BD00BFF6150982A7
:104B000013B5084A084B0020CDE90023FEF720F832
:104B100003686A465C6840F212210823A04702B08D
:104B200010BD00BFB91C94ADC315066313B50620B4
:104B3000FCF7FAFF00280CBF2D235D2302208DF81F
:104B40000030FCF7F1FF002440008DF80100022046
:104B50008DF80240FCF7E8FF074B8DF80300204674
:104B60000193FDF7F5FF03686A465C6840F21D217A
:104B70000823A04702B010BD8000601013B50F20BD
:104B8000FCF7D2FF0023ADF80430154B10F0FF0006
:104B90001B8812D11A018DF806201B0900208DF800
:104BA0000730FDF7D5FF036840F22A215C68042333
:104BB0000DEB0302A04702B010BD012803D11A017A
:104BC00042F00502E7E7022803D11A0142F0090288
:104BD000E1E70328E1D11A0142F00D02DBE700BF53
:104BE0001008002040F2CB4313B5074A0020CDE95E
:104BF0000023FDF7ADFF03686A465C6840F232218E
:104C00000823A04702B010BD0A02D50913B502203F
:104C1000FCF78AFF0F4C400020700E20FCF784FF49
:104C200000280CBF0A2305238DF8043023780020C8
:104C30008DF8053040F6FF73ADF80630FDF788FFBC
:104C4000036840F23D215C6804230DEB0302A0479A
:104C500002B010BDF807002013B50620FCF764FF72
:104C600000280CBFD923D8238DF800308C238DF871
:104C700001304BF20153ADF80230074B0020019395
:104C8000FDF766FF03686A465C6840F25D21082311
:104C9000A04702B010BD00BF4AC10AE0174B13B5D0
:104CA0001880174BADF800001C780E20BCB9FCF73B
:104CB0003BFF001B18BF012040008DF8020020467A
:104CC0008DF803408DF80440FDF742FF03685C68EF
:104CD00005236A4640F2B221A04702B010BDFCF79E
:104CE00023FF003818BF012040008DF8020000208B
:104CF000FDF72EFF03685C680323EAE72A0800201B
:104D00002D08002047F6027313B5074A0020CDE9AD
:104D10000023FDF71DFF03686A465C6840F22131FD
:104D20000823A04702B010BD2CB6A87F13B5074BCF
:104D300000200193FDF70CFF036840F233315C68FB
:104D400004230DEB0302A04702B010BD0430290775
:104D500013B50720FCF7F0FE0F4901F01FFE01F02C
:104D600093FF0E4B8DF80200188046F20923000ACB
:104D7000ADF8003060F06600094B8DF803000020AC
:104D80000193FDF7E5FE03686A465C6840F2A131D5
:104D90000823A04702B010BD0000C8422808002028
:104DA000082C125A37B5134C207888B1124A134B8D
:104DB0000020CDE90023FDF7CBFE03686A465D685D
:104DC00040F2B2310823A8470023237003B030BD5E
:104DD0000B4B009303F1D86303F629030193FDF70E
:104DE000B7FE03686A465D6840F2B2310823A847FF
:104DF0000123EAE78C050020E50DEBFF0C66BB11F3
:104E0000E35DFBFF73B5284C284D22782B78120107
:104E10005BB3274B42F00A02009340F29F13ADF8B8
:104E2000043000238DF8062069461A4611F8010B5C
:104E30000132072A0344F9D103F24A5300208DF8C6
:104E40000730FDF785FE03686A465E6840F245510B
:104E50000823B04700232B7023780133DBB2102BDB
:104E600028BF0023237002B070BD12498DF80620C0
:104E7000009119211A46ADF80410694611F8010B8A
:104E80000132072A0344F9D103F24A5300208DF876
:104E90000730FDF75DFE03686A465E6840F24551E3
:104EA0000823B0470123D6E7E50700208B05002043
:104EB00014003F700319643238B50820FCF734FE43
:104EC0000B4D295C2620FCF74FFE0920FCF742FE23
:104ED000044658B9074B014618702720FCF744FEDA
:104EE000234601340A2C05F8013BFAD138BD00BF36
:104EF000D4070020E20700208368DB075EBF8368D9
:104F000043F0010383607047024A136843F40003CF
:104F10001360704708240140836823F460230B4327
:104F20008360836843F4801383607047836800F173
:104F3000080243F00803836013681B07FCD4704722
:104F4000836843F00403836070478068C0F3800087
:104F5000704708B50246FFF7F3FF1046FFF7F5FF6D
:104F60000028FAD108BD0022134610B501FA02F458
:104F700003321E2A43EA0403F8D10022036101FA36
:104F800002F40332182A43EA0403F8D1C36010BDC7
:104F9000836823F0010383607047436843F48073A0
:104FA00043607047836823F40063836070478368BD
:104FB00043F00203836070471029F0B50CD8002637
:104FC000012337463546DCB2A14206D2013945EA13
:104FD0000155C56207634663F0BD062C15D892F8EB
:104FE00000C003EB830EAEF1050E0CFA0EFC46EA90
:104FF0000C060D3C052C15D8147803EB830CACF192
:10500000410C04FA0CF425430CE0A4F1070CBCF1AC
:10501000050FEED8147803EB830CACF1230C04FAE3
:105020000CF4274301330132CDE7836800F1080215
:1050300043F48003836013685B02FCD47047836889
:1050400043F4807383607047044B98420CBF40F276
:10505000192040F21A2000F0F1BC00BF00640040AB
:105060002DE9F3410468884624F0020404600468D2
:10507000964644F0010404604FF6FF749DF820C08A
:105080009DF824109DF828209DF83C609DF8407004
:105090000194019C051D013C019414B14468E4078E
:1050A000F7D52C68E4076ED50024C4610468B8F114
:1050B000000F4FD044F0800404600468BEF1000F7C
:1050C0004BD044F040040460002B49D0036843F007
:1050D000200303600368BCF1000F45D043F01003C8
:1050E00003600368002942D043F0080303600368AB
:1050F000002A3FD043F004030360C369002F3CD073
:1051000043F00043C361C369002E39D043F08043AC
:10511000C3610E9B0D99013BC3F309030B430C992B
:10512000C2690B430B990B431343C361036823F01C
:10513000010303604FF6FF730193019B013B019351
:1051400013B12B68DB07F8D4286800F0010002B027
:10515000BDE8F08124F08004AEE724F04004B2E71B
:10516000036823F02003B4E723F01003B8E723F02B
:105170000803BBE723F00403BEE723F00043C1E7C5
:1051800023F08043C4E70120E1E70000F0B50124EB
:105190001E4D96461A462B689DF81C7043F001037D
:1051A0002B60EB69844023EA04031C352B60E64343
:1051B000174B09B319682143196016490B68BEF1F2
:1051C000000F1CD0234300F1006000F6C8400B60C4
:1051D000C000059B0260069A43600F4B8AB11A68B3
:1051E00022431A6017B12B681C432C60074A1368CE
:1051F00023F001031360F0BD19683140DCE7334050
:10520000E1E71A6816401E60ECE700BF0066004048
:105210000C660040046600401466004030B4BDF8DF
:1052200008409DF8105043EA0443029341EA0243C8
:1052300000220495114630BCFFF7A8BF30B4BDF87A
:1052400008409DF8105044EA0344049542EA0143A3
:105250000294012230BC0021FFF798BF1FB50092D5
:1052600001229DF81840CDE901340B461146FFF7A5
:105270008DFF04B010BD43690B4343617047436920
:1052800023EA0103436170472DE9F04180468068BD
:105290009DF818E04501079E2AD4D8F808000401BB
:1052A0002AD4D8F80800C00050D54FF4D075022099
:1052B00005EB080422B3C90041F0040145F80810C9
:1052C0001BB1236843F002032360636823F00F03DC
:1052D000636062680EF00F03134363600EF1FF33E7
:1052E000072B2AD8DFE803F02623201B1815120EFF
:1052F0004FF4C0750020DBE74FF4C8750120D7E7F5
:105300004905DBE70027F37963F31F67B37963F39C
:105310001747737963F30F27337963F307074FF068
:10532000000CF37863F31F6CB37863F3174C737856
:1053300063F30F2C337863F3070CC4F808C0E760FD
:10534000236843F001032360BDE8F0814FF0FF3094
:10535000FAE721B9C36843F02003C36070470369CB
:1053600043F020030361704719B9C06800F00300DF
:1053700070470069FAE72DE9F347DDF828A00446F5
:10538000DDE90E568846FFF7EFFF4FF4E0718146E6
:105390004FF4D870CDE9000102A901EB880151F862
:1053A000081C6058671810F0040015BF01208AF827
:1053B00000008AF80000605816BF6058400DC00811
:1053C000186061580B9BC1F34001197079680C9B00
:1053D000090A197079680D9B01F00F01197016B157
:1053E0007B681B0C3380BE68FB68C6F307216970BD
:1053F000C6F30741A970C3F307212E702B71C6F3C2
:1054000007666971C3F30741C3F30763EE70A971BF
:10541000EB711AB141462046FFF79BFF484602B0A8
:10542000BDE8F087024A136843F001031360704738
:1054300008300240014B1860186870470030024085
:10544000002310B5044A8B4201DB106810BD50F8F0
:10545000234001331460F6E700300240014B188806
:10546000704700BFE0F7FF1F14230022013903FB40
:1054700001039A60DA601A615A610F234268890059
:1054800003FA01F11143416070470139890002FAC2
:1054900001F14160704701390368890002FA01F1A6
:1054A000194214BF01200020704710B54C1E142172
:1054B000614308300C5824F440640C500B581343DB
:1054C0000B5010BD10B54C1E1421614308300C5810
:1054D00024F440740C500B5813430B5010BD4B1E5A
:1054E0001421594308300B5843F080030B50704788
:1054F0004B1E1421594308300B5843F020030B5026
:105500000B5823F480430B5070474B1E1421594312
:1055100008300B5843F010030B5070474B1E1421FA
:10552000594308300B5843F001030B5070474B1E92
:105530001421594308300B5823F001030B507047D6
:105540001423013903FB01008368DB0758BF0261A4
:1055500070471423013903FB01008368DB0758BF40
:10556000426170474B1E142159430C30085880B2D9
:1055700070474B1E142159430C300A5070470000ED
:10558000064B10B51C68FFF769FFB0F5007F82BFBE
:10559000034B1868044304F0350010BD0C20024092
:1055A0004C20024038B504460D4600F081F8FFF764
:1055B00055FFB0F5007F18D90E4B9C4215D90E4A05
:1055C000136843F001031360258000F071F8FFF7C2
:1055D00045FFB0F5007F0AD9064B9C4207D9064A21
:1055E000136823F00103136038BD044AE8E7034A57
:1055F000F6E700BFFFFF07085020024010200240DE
:1056000010B5044600F054F8FFF728FFB0F5007F0E
:105610001DD9134B9C421AD9124B1A6842F0020250
:105620001A60114A14601A6842F040021A6000F0D1
:105630003FF8FFF713FFB0F5007F0FD9084B9C42EE
:105640000CD9084A136823F00203136010BD074BFE
:105650001A6842F002021A60054AE3E7034AF1E7DA
:10566000FFFF070850200240542002401020024053
:1056700014200240034A136823F007030343136016
:10568000704700BF00200240034B044A1A6002F139
:1056900088321A60704700BF04200240230167452A
:1056A000024A136843F080031360704710200240E1
:1056B00008B5FFF765FFC307FBD408BD38B505463D
:1056C0000C4689B2FFF76EFF210CA81CBDE83840DC
:1056D000FFF768BF2DE9F0414FF00F0C0025076878
:1056E000466843FA05F4E4071CD5072D94BFBE466F
:1056F000B646ACB24FEA84048ABF203CA4B2A4B23E
:105700000CFA04F82EEA080804F1020E02FA0EFE62
:1057100001FA04F44EEA040444EA0804072D94BF95
:10572000274626460135102DDBD107604660BDE8CF
:10573000F0810000034A136823F0E0630B43034346
:105740001360704704000140016170470904016162
:105750007047C36801EA030221EA030141EA0241FA
:10576000016170474AF6AA22014B1A60704700BFD8
:1057700000300040024A136843F0807313607047A2
:1057800000100240062822D8DFE800F004090E13BA
:10579000181D1F000F4B1868C0F3406070470D4B79
:1057A0001868C0F3C06070470A4B1868C0F34070B7
:1057B0007047084B1868C0F340407047054B1868A5
:1057C000C0F340007047044BF9E7044BF7E70020B3
:1057D000704700BF00100240201002402410024019
:1057E000024608B51046FFF7CDFF0028FAD008BDE5
:1057F00006280CD8DFE800F004060C11161B1D006B
:10580000FFF7B8BF0C4A136843F08063136070471A
:10581000094A136843F08053F8E7074A136843F4D2
:105820008033F3E7044A136843F00103EEE7034AC9
:10583000F9E7034AF7E700BF0010024020100240DA
:1058400024100240034A136823F003030343136048
:10585000704700BF04100240034A136823F470131A
:1058600043EA80431360704704100240034A136800
:1058700023F4803343EA004313607047041002406E
:10588000034A136823F4003343EA4043136070472C
:1058900004100240024B186800F40040704700BF3B
:1058A00020100240024A136843F40043136070471B
:1058B0002010024006283DD8DFE800F037373726B1
:1058C000370415001C4B1A6842F001021A601A686E
:1058D0009007FCD51A6822F440721A601A6842F4E4
:1058E00080721A607047154B1A6842F001021A6004
:1058F0001A689107FCD5104B1A6822F440721A609E
:105900001A6842F40072ECE70D4B1A6842F48032D8
:105910001A601A689203FCD5074B1A6822F4407289
:105920001A601A6842F44072DBE7034A136823F4F2
:1059300040731360704700BF2010024024100240E3
:1059400000100240034A136823F4404343EA8033C3
:105950001360704704100240034A136823F4605335
:1059600043EAC0231360704704100240034A1368DF
:1059700023F4E06343EA00231360704704100240FD
:10598000034A136823F0F00343EA001313607047DF
:105990000410024008B50420FFF72AFF0420FFF797
:1059A0001FFF0020FFF74EFF0320FFF721FF03201A
:1059B000FFF716FF0120FFF745FF0020FFF7E0FF8C
:1059C0000320FFF7BFFF0420FFF7D0FF0020FFF701
:1059D000C3FF0220FFF74EFE0720FFF73DFF012027
:1059E000FFF744FF0020FFF74BFFFFF7C3FE002047
:1059F000FFF7F6FE0220FFF725FF044B044A054996
:105A00001360054A1160054A136008BD00A24A04EC
:105A100090050020005125029405002098050020E3
:105A20000122430903F1804303F50433196800F0B0
:105A30001F0002FA00F00843186070470122430972
:105A400003F1804303F50433196800F01F0002FAE4
:105A500000F0014319601A6822EA000018607047DC
:105A6000044B1A689206FCD51A6842F010021A60BC
:105A7000704700BF04280040044B1A6822F010024F
:105A80001A601A689206FCD5704700BF04280040CF
:105A900038B5044600254FF46770FFF7C1FF40F2A8
:105AA0009B30FFF7BDFF00F035FB2046FFF702FFFC
:105AB0000D4C0E4B1D602560FFF7F4FEFFF7D0FF85
:105AC0000B4B0C4A1D605D601D615D614FF6FF73FD
:105AD00013605360FFF7D0FF236823F008032360AF
:105AE00023681B07FCD538BD04280040002800406F
:105AF000082800402028004008B5FFF7B1FF054BFB
:105B000082B2C0F303401A6043F8040CBDE80840B9
:105B1000FFF7B2BF0C280040034B186804331B6822
:105B200043EA0040704700BF1828004008B5FFF75F
:105B300097FF044B020C80B21A605860BDE8084021
:105B4000FFF79ABF1828004008B54FF46770FFF7B9
:105B500067FF40F29B30FFF763FF00F0DBFA064B74
:105B60001A6822F008021A601A681107FCD51A6830
:105B70009206FCD508BD00BF0428004038B5054694
:105B80004FF467700C46FFF74BFF40F29B30FFF776
:105B900047FFFFF77FFE18B1BDE83840FFF7D4BFDD
:105BA0002846FFF775FF2046BDE83840FFF7A4BF41
:105BB000C3680B43C360704703690B4214BF0120E5
:105BC00000207047C94301617047036843F08003B8
:105BD00003607047036823F0100303607047036895
:105BE00043F0010303607047036823F0010303607F
:105BF000704781627047C162704706297AD8DFE832
:105C000001F00479337963799200836923F0030307
:105C1000836183698361836923F070038361072A49
:105C200068D8DFE802F03304090D1115191D8369E6
:105C300043F0100383617047836943F02003F9E761
:105C4000836943F03003F5E7836943F04003F1E7EC
:105C5000836943F05003EDE7836943F06003E9E7AC
:105C6000836943F07003E5E7836923F4407383613C
:105C700083698361836923F4E0438361072A39D808
:105C8000DFE802F004060A0E12161A1E8369D1E735
:105C9000836943F48053CDE7836943F40053C9E734
:105CA000836943F44053C5E7836943F48043C1E704
:105CB000836943F4A043BDE7836943F4C043B9E774
:105CC000836943F4E043B5E7C36923F00303C36189
:105CD000C369C361C36923F07003C361072A09D88C
:105CE000DFE802F03304090D1115191DC36943F0F3
:105CF0001003C3617047C36943F02003F9E7C36928
:105D000043F03003F5E7C36943F04003F1E7C369AB
:105D100043F05003EDE7C36943F06003E9E7C3696B
:105D200043F07003E5E7C36923F44073C361C369BB
:105D3000C361C36923F4E043C361072ADAD8DFE80B
:105D400002F004060A0E12161A1EC369D1E7C369CF
:105D500043F48053CDE7C36943F40053C9E7C369F3
:105D600043F44053C5E7C36943F48043C1E7C369C3
:105D700043F4A043BDE7C36943F4C043B9E7C36933
:105D800043F4E043B5E7062909D8DFE801F004153C
:105D900009190D1D1100036A23F002030362704705
:105DA000036A23F02003F9E7036A23F40073F5E79D
:105DB000036A23F40053F1E7036A23F00803EDE7D5
:105DC000036A23F08003E9E7036A23F40063E5E74D
:105DD000062909D8DFE801F0041509190D1D110085
:105DE000036A43F0020303627047036A43F020032F
:105DF000F9E7036A43F40073F5E7036A43F40053D9
:105E0000F1E7036A43F00803EDE7036A43F0800318
:105E1000E9E7036A43F40063E5E706290CD8DFE805
:105E200001F0040B060B080B0A0042637047826303
:105E30007047C26370470264704743690B43436114
:105E40007047406A70474162704703291CD8DFE8F9
:105E500001F0020B131C836923F0F0038361836953
:105E600043EA021282617047836923F470438361BD
:105E7000836943EA0232F5E7C36923F0F003C361A3
:105E8000C36943EA0212C2617047C36923F47043D5
:105E9000C361C36943EA0232F5E701F0FD03012B58
:105EA00002F0030204D1531E012B98BF82F00302BB
:105EB00003291AD8DFE801F0020A121A836923F0D5
:105EC0000303836183691A4382617047836923F402
:105ED00040738361836943EA0222F5E7C36923F0D3
:105EE0000303C361C3691A43C2617047C36923F4E2
:105EF0004073C361C36943EA0222F5E78B000121C5
:105F0000026A9940114301627047836819B143F4F2
:105F100000438360704723F40043FAE7836823F06B
:105F2000070383608368194381607047836823F0A7
:105F3000700383608368194381607047064A074B8A
:105F400090421B6804BF064B1B6803EB5103B3FB75
:105F5000F1F18160704700BF0038014094050020D6
:105F600098050020C36808290CBF23F4805343F42C
:105F70008053C3607047036923F440530B430361AC
:105F80007047C36823F4C0630B43C3607047C368A2
:105F900023F00C030B43C3607047436923F4407341
:105FA0000B4343617047C36843F40053C3607047B9
:105FB00038B504460D4600F018F829462046BDE8DD
:105FC000384000F00AB8436943F04003436170472A
:105FD000436943F0800343617047C1F308014160A6
:105FE00070474068C0F30800704703681B06FCD583
:105FF000704703680B4214BF012000207047FEE782
:106000007047000038B5DFF8BCD0214B214A224947
:106010008B4226D31A46002020498A4226D3204AA2
:10602000D81ED21A22F00302814238BF00224FF05C
:10603000A53113441B4A93421BD31B4A1B4C1368C4
:106040001B4D43F400731360AC4215D3194C1A4D29
:10605000AC4215D3FBF7AEFA184C194DAC4213D332
:1060600038BD52F8040B43F8040BD1E742F8040B97
:10607000D3E743F8041BDEE754F8043B9847E3E713
:1060800054F8043B9847E3E754F8043B9847E5E7A6
:1060900000000020888000089C05002030080020B7
:1060A000330800200050002014ED00E07C80000840
:1060B0007C8000087C8000088880000888800008B8
:1060C0008880000800500020014B024A1A60FEE759
:1060D0000CED00E00400FA05012243099B0003F1E6
:1060E000604300F01F0003F5614302FA00F01860FE
:1060F00070470000432893BF00F16040044B00F05C
:106100000F0000F564408CBFC1540170704700BFA0
:1061100014ED00E0024A136843F480731360704783
:106120000070004070B54FF0FF0C4CF4E06C1CEABE
:1061300011541DBF1CEA135594EA0C0F95EA0C0F7D
:1061400000F0DEF82C4481EA030621EA4C5123EAF0
:106150004C5350EA013518BF52EA033541F480111F
:1061600043F4801338D0A0FB02CE4FF00005E1FBD2
:1061700002E506F00042E0FB03E54FF00006E1FB1C
:1061800003569CF0000F18BF4EF0010EA4F1FF045F
:10619000B6F5007F64F5407404D25FEA4E0E6D419F
:1061A00046EB060642EAC62141EA55514FEAC520B0
:1061B00040EA5E504FEACE2EB4F1FD0C88BFBCF52C
:1061C000E06F1ED8BEF1004F08BF5FEA500E50F1DD
:1061D000000041EB045170BD06F0004646EA0101A3
:1061E00040EA020081EA0301B4EB5C04C2BFD4EBD5
:1061F0000C0541EA045170BD41F480114FF0000ECE
:10620000013C00F3AB8014F1360FDEBF002001F03B
:10621000004170BDC4F10004203C35DA0C341BDCB5
:1062200004F11404C4F1200500FA05F320FA04F087
:1062300001FA05F240EA020001F0004221F00041BB
:1062400010EBD37021FA04F642EB06015EEA430E2E
:1062500008BF20EAD37070BDC4F10C04C4F120055E
:1062600000FA04F320FA05F001FA04F240EA020011
:1062700001F0004110EBD37041F100015EEA430EE2
:1062800008BF20EAD37070BDC4F1200500FA05F202
:106290004EEA020E20FA04F301FA05F243EA020381
:1062A00021FA04F001F0004121FA04F220EA020090
:1062B00000EBD3705EEA430E08BF20EAD37070BDD6
:1062C00094F0000F0FD101F00046400041EB0101B6
:1062D00011F4801F08BF013CF7D041EA060195F098
:1062E000000F18BF704703F00046520043EB030352
:1062F00013F4801F08BF013DF7D043EA060370473F
:1063000094EA0C0F0CEA135518BF95EA0C0F0CD049
:1063100050EA410618BF52EA4306D1D181EA03018F
:1063200001F000414FF0000070BD50EA410606BF89
:106330001046194652EA430619D094EA0C0F02D1CE
:1063400050EA013613D195EA0C0F05D152EA033613
:106350001CBF104619460AD181EA030101F0004131
:1063600041F0FE4141F470014FF0000070BD41F07A
:10637000FE4141F4780170BD81F0004102E000BFB0
:1063800083F0004330B54FEA41044FEA430594EAF5
:10639000050F08BF90EA020F1FBF54EA000C55EA30
:1063A000020C7FEA645C7FEA655C00F0E2804FEA01
:1063B0005454D4EB5555B8BF6D420CDD2C4480EAE3
:1063C000020281EA030382EA000083EA010180EA13
:1063D000020281EA0303362D88BF30BD11F0004F61
:1063E0004FEA01314FF4801C4CEA113102D0404297
:1063F00061EB410113F0004F4FEA03334CEA1333D2
:1064000002D0524263EB430394EA050F00F0A780E9
:10641000A4F10104D5F1200E0DDB02FA0EFC22FAE4
:1064200005F2801841F1000103FA0EF2801843FAD8
:1064300005F359410EE0A5F120050EF1200E012AC9
:1064400003FA0EFC28BF4CF0020C43FA05F3C01807
:1064500051EBE37101F0004507D54FF0000EDCF180
:10646000000C7EEB00006EEB0101B1F5801F1BD329
:10647000B1F5001F0CD349085FEA30004FEA3C0C2D
:1064800004F101044FEA445212F5800F80F09A8023
:10649000BCF1004F08BF5FEA500C50F1000041EB27
:1064A000045141EA050130BD5FEA4C0C404141EB2B
:1064B0000101013C28BFB1F5801FE9D291F0000F26
:1064C00004BF01460020B1FA81F308BF2033A3F1D5
:1064D0000B03B3F120020CDA0C3208DD02F1140CCC
:1064E000C2F10C0201FA0CF021FA02F10CE002F107
:1064F0001402D8BFC2F1200C01FA02F120FA0CFC00
:10650000DCBF41EA0C019040E41AA2BF01EB045148
:10651000294330BD6FEA04041F3C1CDA0C340EDC46
:1065200004F11404C4F1200220FA04F001FA02F389
:1065300040EA030021FA04F345EA030130BDC4F147
:106540000C04C4F1200220FA02F001FA04F340EA3C
:106550000300294630BD21FA04F0294630BD94F0ED
:10656000000F83F4801306BF81F480110134013DD4
:106570004EE77FEA645C18BF7FEA655C29D094EA45
:10658000050F08BF90EA020F05D054EA000C04BFC3
:106590001946104630BD91EA030F1EBF00210020AE
:1065A00030BD5FEA545C05D14000494128BF41F04D
:1065B000004130BD14F580043CBF01F5801130BDB1
:1065C00001F0004545F0FE4141F470014FF000003C
:1065D00030BD7FEA645C1ABF194610467FEA655CED
:1065E0001CBF0B46024650EA013406BF52EA03358F
:1065F00091EA030F41F4002130BD00BF90F0000F7D
:1066000004BF0021704730B54FF4806404F13204B8
:106610004FF000054FF0000150E700BF90F0000F71
:1066200004BF0021704730B54FF4806404F1320498
:1066300010F0004548BF40424FF000013EE700BF68
:1066400042004FEAE2014FEA31014FEA02701FBFF8
:1066500012F07F4393F07F4F81F06051704732F02A
:106660007F4208BF704793F07F4F04BF41F4002181
:10667000704730B54FF4607401F0004521F00041DF
:106680001CE700BF50EA010208BF704730B54FF069
:1066900000050AE050EA010208BF704730B511F06A
:1066A000004502D5404261EB41014FF4806404F1A2
:1066B00032045FEA915C3FF4D8AE4FF003025FEA28
:1066C000DC0C18BF03325FEADC0C18BF033202EBAC
:1066D000DC02C2F1200300FA03FC20FA02F001FA06
:1066E00003FE40EA0E0021FA02F11444BDE600BFA9
:1066F0004FEA410212F5001215D211D56FF47873EA
:10670000B3EB625212D94FEAC12343F0004343EA8C
:10671000505311F0004F23FA02F018BF4042704767
:106720004FF00000704750EA013005D111F00040F1
:1067300008BF6FF0004070474FF00000704700BF87
:106740004A0011D212F5001211D20DD56FF47873F0
:10675000B3EB62520ED44FEAC12343F0004343EA45
:10676000505323FA02F070474FF00000704750EA90
:10677000013002D14FF0FF3070474FF000007047FA
:1067800080F0004002E000BF81F0004142001FBFE6
:106790005FEA410392EA030F7FEA226C7FEA236CEF
:1067A0006AD04FEA1262D2EB1363C1BFD2184140E4
:1067B00048404140B8BF5B42192B88BF704710F07A
:1067C000004F40F4000020F07F4018BF404211F01D
:1067D000004F41F4000121F07F4118BF494292EA85
:1067E000030F3FD0A2F1010241FA03FC10EB0C00B1
:1067F000C3F1200301FA03F100F0004302D549423E
:1068000060EB4000B0F5000F13D3B0F1807F06D3EA
:1068100040084FEA310102F10102FE2A51D2B1F1E2
:10682000004F40EBC25008BF20F0010040EA0300D7
:106830007047490040EB0000013A28BFB0F5000F57
:10684000EDD2B0FA80FCACF1080CB2EB0C0200FA0D
:106850000CF0AABF00EBC25052421843BCBFD0405C
:106860001843704792F0000F81F4000106BF80F4D6
:1068700000000132013BB5E74FEA41037FEA226C99
:1068800018BF7FEA236C21D092EA030F04D092F064
:10689000000F08BF0846704790EA010F1CBF002098
:1068A000704712F07F4F04D1400028BF40F00040F5
:1068B000704712F100723CBF00F50000704700F015
:1068C000004343F0FE4040F4000070477FEA22623C
:1068D00016BF08467FEA23630146420206BF5FEA0D
:1068E000412390EA010F40F4800070474FF000030D
:1068F00004E000BF10F0004348BF40425FEA000CD4
:1069000008BF704743F0964301464FF000001CE07B
:1069100050EA010208BF70474FF000030AE000BFD1
:1069200050EA010208BF704711F0004302D540420F
:1069300061EB41015FEA010C02BF84460146002081
:1069400043F0B64308BFA3F18053A3F50003BCFA9C
:106950008CF2083AA3EBC25310DB01FA02FC634449
:1069600000FA02FCC2F12002BCF1004F20FA02F250
:1069700043EB020008BF20F00100704702F1200243
:1069800001FA02FCC2F1200250EA4C0021FA02F2A4
:1069900043EB020008BF20EADC7070474FF0FF0CA9
:1069A0001CEAD0521EBF1CEAD15392EA0C0F93EAA4
:1069B0000C0F6FD01A4480EA010C400218BF5FEA46
:1069C00041211ED04FF0006343EA501043EA5111B9
:1069D000A0FB01310CF00040B1F5000F3EBF4900B3
:1069E00041EAD3715B0040EA010062F17F02FD2AB7
:1069F0001DD8B3F1004F40EBC25008BF20F001009A
:106A0000704790F0000F0CF0004C08BF49024CEAB0
:106A1000502040EA51207F3AC2BFD2F1FF0340EA42
:106A2000C250704740F400004FF00003013A5DDCB3
:106A300012F1190FDCBF00F000407047C2F10002F4
:106A4000410021FA02F1C2F1200200FA02FC5FEAE1
:106A5000310040F1000053EA4C0308BF20EADC702B
:106A6000704792F0000F00F0004C02BF400010F49D
:106A7000000F013AF9D040EA0C0093F0000F01F04A
:106A8000004C02BF490011F4000F013BF9D041EA6C
:106A90000C018FE70CEAD15392EA0C0F18BF93EA6E
:106AA0000C0F0AD030F0004C18BF31F0004CD8D198
:106AB00080EA010000F00040704790F0000F17BF1F
:106AC00090F0004F084691F0000F91F0004F14D065
:106AD00092EA0C0F01D142020FD193EA0C0F03D1BD
