:020000040800F2
:1010000000500020CD630008C9630008C7630008D2
:10101000C7630008C7630008C7630008000000003A
:10102000000000000000000000000000C96300088C
:10103000C963000800000000C9630008C963000814
:10104000C7630008C7630008C7630008C7630008D8
:10105000C7630008C7630008C7630008C7630008C8
:10106000C7630008C7630008C7630008C7630008B8
:10107000C7630008C7630008C7630008C7630008A8
:10108000C7630008C7630008C76300084930000849
:101090002930000839300008C7630008C76300081A
:1010A000C7630008C7630008C7630008C763000878
:1010B000E9140008C7630008C7630008C763000895
:1010C000C7630008C7630008C7630008C763000858
:1010D000C7630008C7630008C7630008C763000848
:1010E000C7630008C7630008C7630008C763000838
:1010F000C7630008C7630008C7630008C763000828
:10110000C7630008C7630008C7630008C763000817
:10111000C7630008C7630008C7630008C763000807
:10112000C7630008C7630008C7630008C7630008F7
:10113000C7630008C7630008C7630008773000086A
:101140005730000867300008C7630008C76300080D
:1011500010B504460846114664681A46A04710BDFB
:1011600008B58368984708BD08B5054B1B7803B9D7
:1011700008BD03F091FD03F03BFE03F0BDFFF7E770
:101180003806002008B5034B1B7803B908BD04F0EE
:1011900007F8FBE73806002010B5212000F084FC9A
:1011A000112000F081FCC0B201281DD0042834D0E9
:1011B00000B110BD274B01221A700024264B1C7071
:1011C000264B9988186804F0A5FC254B9988186867
:1011D00004F09EFC234B9988186804F099FC214682
:1011E0000B2000F083FCE4E701231A4A13701A4A2B
:1011F00013701A4B9988186804F08AFC194B998867
:10120000186804F085FC164B9988186804F082FC75
:1012100002210B2000F06AFCCBE704F061FE0D4BCD
:1012200000221A700C4B01221A700E4B9988186814
:1012300004F070FC094B9988186804F069FC084BAD
:101240009988186804F066FC03210B2000F04EFC1E
:10125000AFE700BF4C0600203806002090060020B3
:1012600098060020B806002010B51F4C00224FF44D
:101270000171206801F02DFF00224FF409712068F0
:1012800001F027FF00224FF41971206801F021FFBF
:1012900000224FF42971206801F01BFF00224FF457
:1012A0003171206801F015FF00224FF46971206848
:1012B00001F00FFF002240F22441206801F009FFF5
:1012C000002240F20451206801F003FF002240F2A6
:1012D0006C71206801F0FDFE002240F209112068C7
:1012E00001F0F7FE10BD00BF3C060020FEE7000045
:1012F00010B5212000F0D8FBC4B2002000F0D4FBD0
:10130000C0EB401300EB8303DB009BB2062C02D042
:101310000D4A002111800D4A12782AB10A4B002291
:101320001A80094B188810BD074A12889A4202D2C7
:101330000A3205490A80044A12889A42F1D90A3AC7
:10134000014B1A80EDE700BF440600204C06002048
:1013500008B5244B9988186804F0DFFB04F0E6FB1D
:10136000214B186800F04BFB05F08EFC1F4905F07F
:1013700093FD01462F2000F0C7FB04F0B1FD01F002
:101380009DFB04F0ADFD01462E2000F0AFFB184898
:1013900001F098FA05F078FC164905F07DFD01464C
:1013A000142000F0B1FBFFF7F7FE03F067FF124BCC
:1013B0001B7803B908BD03F09FFC03F0BFFC03F0EA
:1013C000E5FC03F05BFD03F07FFD03F0ABFDFFF7F1
:1013D0008FFF03F0D5FD03F017FE03F03BFE03F093
:1013E00055FEE7E7B006002050060020000020412F
:1013F000D8060020026B5F433806002010B5044673
:101400000178112000F072FB2179E37843EA012191
:10141000032000F06BFBA179637943EA01210020EE
:1014200000F064FBE17901F00F010131022000F0CE
:101430005DFBE3791B110A2B04D0E3791B110C2B04
:1014400005D010BD0121132000F050FBF5E700216D
:10145000132000F04BFBF4E708B503460846B3F54C
:10146000297F22D00BD940F22442934223D013D9B2
:1014700040F20452934221D003F0B8FB0CE0B3F5E4
:10148000097F0FD002D903F0C7F905E040F2091235
:10149000934216D003F040F9B3F5317F08D003F042
:1014A00059FBF9E703F084F9F6E703F021FAF3E7D3
:1014B00003F0A2FAF0E703F055FBEDE703F08CFB35
:1014C000EAE7FFF79BFFE7E70F2800D0704710B56A
:1014D000044B1C6800F0E8FAC1B2204602F034FB6D
:1014E00010BD00BF4006002008B5024B186800F090
:1014F0004DFA08BD5006002000B5ADF6140D00F001
:1015000007F900F096F9664D00222946654801F07A
:101510001DFA05222946644801F018FA634C042399
:1015200008222146624800F002FF042310222146CF
:10153000604800F0FCFE07234FF400525E495F480C
:1015400000F0F5FE0723042229465D4800F0EFFE77
:101550000723082229465B4800F0E9FE07234FF4E1
:1015600000422146584800F0E2FE07234FF4804233
:101570002146564800F0DBFE07234FF40052214677
:10158000534800F0D4FE07234FF4805221465148BF
:1015900000F0CDFE01F010F900F0FAF84FF48041B0
:1015A0004FF0007004F0AAFA00F04EF900F038F99C
:1015B00001F055FA0820FFF787FF0120FFF784FFAD
:1015C0000DF2E454012500950023434A4349204687
:1015D00000F03CFB424B1C60424BCDF8D835424BEF
:1015E000CDF8DC35414BCDF8E035DFAC00230222ED
:1015F0003F49204601F060FC3E4E34600DF5BB6172
:10160000204601F057FDFFF72FFE306803F07EF80B
:101610002FAE2A462146304602F032FA364B1E6083
:101620000DAD32462146284602F072FA334B1D605A
:101630000F2000F039FAC1B2284602F085FA03AC57
:101640004FF08041204600F047F92D4B1C6064228A
:101650002C49204600F064F932222B49204600F044
:101660005FF90A222949204600F05AF90221102088
:1016700000F03CFA3020FFF727FF04E00DF10B01EA
:101680000EA802F081FD00238DF80B30144B186872
:1016900000F0B0FC194B1B685B69002BF3D1EDE740
:1016A000000801400C070020D8060020000C014073
:1016B000C0060020A806002000100140B00600204F
:1016C000C806002088060020A00600209006002002
:1016D00098060020B8060020F07E00080048004070
:1016E00048060020647000085914000869120008B8
:1016F000006400403C060020240700204006002033
:1017000050060020511300088511000869110008D7
:1017100008B504F023FB1C4B1C4A1A6040F202304F
:1017200004F062FB40F2033004F05EFB4FF44170C2
:1017300004F05AFB40F2053004F056FB40F20E3044
:1017400004F052FB40F2923004F04EFB4FF4607014
:1017500004F04AFB40F2813004F046FB4FF4207065
:1017600004F042FB40F2093004F03EFB40F28620D8
:1017700004F03AFB4FF4407004F036FB40F299302D
:1017800004F032FB08BD00BF0CED00E00003FA05D9
:1017900030B597B004F046F81E4D0544AD02142252
:1017A000002101A800F0BDFD1B4B01934FF4005335
:1017B000ADF8083001228DF80A2000238DF80B3097
:1017C000164903910621ADF810108DF812208DF8FE
:1017D000133004F00BF8142101A804F015F815904B
:1017E0002B6D834201D117B030BD04F031F928468A
:1017F00004F0EAF8002407E001AB53F8241005EBED
:10180000840004F03FF90134142CF5D904F02CF9CC
:10181000E9E700BFFDFF410000100140000C01405E
:1018200008B51C2004F022FEE0211C2004F02CFE50
:1018300008BD08B54FF22341032004F083FB0020CC
:1018400004F058FB08BD000010B5224C472120468B
:1018500004F0B3FB4FF6FF71204604F0B0FB2046C6
:1018600004F09CFB0421204604F03CFD01212046AD
:1018700004F02FFD5021204604F03CFD0F220021F2
:10188000204604F0C6FC0F220121204604F0C1FCD2
:1018900001220021204604F0E4FC012211462046EA
:1018A00004F0DFFC0021204604F051FC0221204618
:1018B00004F072FC0021204604F004FD01212046C2
:1018C00004F000FD0121204604F09BFC204604F0BA
:1018D0006AFB10BD0004004038B505460C460162A5
:1018E000084604F056FB204604F058FB0A4B1968E2
:1018F000C1F31A11094BA3FB0131C9090139204673
:1019000004F05BFB4FF6FF71204604F058FB002308
:101910006B62284638BD00BF30060020C55A7C0ADD
:10192000F8B5436A032B00DDF8BD04460E461546A4
:10193000006A04F03DFB636A134F0122F95C206AE0
:1019400004F03FFB636A0022F95C206A04F049FC62
:10195000636A44F8236003F1080105EB850202EB9A
:101960008202920024F8112002219940206A04F09A
:1019700003FB0021206A04F04AFC206A04F013FBF8
:10198000636A01336362CFE76C700008F8B50546FF
:1019900000242AE00226A6403146286A04F0F0FA24
:1019A00040B3286A04F031FC87B22B6A03EB84034E
:1019B00004F1080235F812105A6B0A445A6355F8BC
:1019C00024309847286A04F020FCC01B04F10C0363
:1019D00025F813003146286A04F0D8FA04E0022101
:1019E000A140286A04F0D2FA0134032C06DC6B6AA9
:1019F000A342CFDC6B6AA342F6DCF0E7F8BD0146F8
:101A0000002210464B6A934215DD10B402F10C031C
:101A100031F813404FF47A7303FB04F302F1080426
:101A200031F8144093FBF4F3184401324B6A9342AB
:101A3000ECDC10BC70477047012800D070474FF6AF
:101A4000FF739942FAD1034B1A68034BC3F8F4248D
:101A5000F4E700BF20060020C000002008B5C0EB5E
:101A6000C0020C4B03EB8203DB688B420FDC134696
:101A7000084A02EB83031B698B4201DAFF2007E06F
:101A8000054B43F82010FFF71FFD002000E0FF206A
:101A900008BD00BFC000002000000020014B53F82B
:101AA0002000704700000020024B53F82000401136
:101AB000704700BF0000002008B5054B53F8200018
:101AC00005F0E2F84FF0745105F032F908BD00BF9F
:101AD00000000020044B53F820004011012814BFDF
:101AE00000200120704700BF000000204901024B88
:101AF00043F82010704700BF00000020014B43F85E
:101B0000201070470000002010B5044608464FF032
:101B1000844105F00DF905F05BFA024B43F824000F
:101B200010BD00BF0000002070B506460024074D20
:101B30002F2C09DC3146686800F052FB10B10134EB
:101B40001C35F5E7E0B270BD3120FCE7C000002095
:101B50000023064A2F2B07DC118B814202D0013370
:101B60001C32F7E7D8B2704731207047C000002020
:101B7000C0EBC000014B03EB80007047C0000020A9
:101B800038B50024074D05E06969E0B2FFF7B6FFFC
:101B900001341C352F2C03DC2B8B002BF8D0F3E702
:101BA00038BD00BFC0000020014B1954704700BF72
:101BB00054060020024B1A5C11431954704700BFB1
:101BC00054060020024A135C23EA010313547047B1
:101BD00054060020014B185C704700BF54060020DB
:101BE000C0EBC000024B03EB8000807E704700BF5B
:101BF000C000002008B54FF6FF710120FFF71CFF61
:101C000008BD08B52021806804F0D7FB08BD08B5E1
:101C1000806804F0CAFB08BD10B504464368597AD1
:101C2000586803F068FE636804F12A02597A58681C
:101C300003F073FE63688022597A586803F07DFED2
:101C40006368597A586803F04DFE10BD70B50446BC
:101C50000D465049016085600373026101210175E1
:101C60004175817500228261C26180F82020426244
:101C700080F828109DF8101080F82910464941601E
:101C8000032A07D861680868A84203D01C31616044
:101C90000132F5E7414A1460002B74D06268506944
:101CA000002B73D063681B8B0222032103F0F6FE26
:101CB0004FF4E131284604F025FB0821284604F0C2
:101CC00035FB4FF40051284604F039FB0C2128461F
:101CD00004F041FB0021284604F037FB0021284690
:101CE00004F03FFB284604F052FB284604F054FB66
:101CF0006368197A586803F09BFD6368197A58681D
:101D000003F0E7FD63682E1D3246197A586803F028
:101D1000FBFD63680022197A586803F0B7FD636819
:101D20000022197A586803F0A4FD6368197A58688C
:101D300003F0B9FD6368597A586803F079FD636868
:101D40003246597A586803F0DFFD63680022597AF9
:101D5000586803F09BFD63680022597A586803F0C5
:101D600088FD6368597A586803F09DFD6368597A65
:101D7000586803F0B7FD2046FFF74EFF284604F0F1
:101D8000F6FA204670BD6268D06889E763681B8AEE
:101D90008AE700BF647E0008EC7D0008840600200E
:101DA00038B50D460469437D5BB1216829B12846E9
:101DB00000F016FA08B10834F7E723681BB1204693
:101DC00038BD0024FBE71C46F9E738B504460D464C
:101DD00063680222197A586803F041FD18B994F833
:101DE0002830002BF4D06368197A586803F083FD1B
:101DF0006368AAB2197A586803F09FFD636894F883
:101E00002020D201A83222440232197A586803F005
:101E100084FD63680222197A586803F01AFD63682A
:101E2000197A586803F05EFD94F82030B3FA83F312
:101E30005B0984F82030002384F8283038BD10B5C1
:101E40000446837D73B10A2910D0436A7F2B0DD0DD
:101E500090F8202000EBC2121A4482F8AA10013335
:101E6000436210BD806804F087FAFAE794F82030E6
:101E7000626A04EBC313134483F8AA10511C204672
:101E8000FFF7A3FF00236362EBE770B50E46802ADD
:101E900028BF8022114600248C4209D290F82030BD
:101EA000355D00EBC313234483F8AA500134F3E7F4
:101EB000FFF78BFF70BD38B505460C46084600F0AD
:101EC000A6F9024621462846FFF7DFFF38BD00008D
:101ED00010B50446084600F0EFF900F0D4F9237D70
:101EE00083420DD000236375237B0BB36268506976
:101EF0000BB363681B8B0122002103F0CFFD10BDE3
:101F000001236375237B6BB1626850696BB16368B1
:101F10001B8B0222032103F0C1FD08492046FFF775
:101F2000CAFFECE76268D068F0E763681B8AF0E7F5
:101F30006268D068DCE763681B8ADCE79081000890
:101F400030B585B00446084600F0B6F90378302B6A
:101F500011D0322B0DD04FF46125637D73B9294622
:101F6000A06804F0CFF90021A06804F0E8F905B0FA
:101F700030BD0D4DF1E74FF4E135EEE70A22294679
:101F800001A800F053F909492046FFF794FF0849DA
:101F90002046FFF790FF01A92046FFF78CFF054977
:101FA0002046FFF788FFDAE710552200807D000801
:101FB000887D00085084000810B50446084600F0EB
:101FC0007BF9037823B1303B18BF012384F8293013
:101FD00094F8293023B105492046FFF76CFF10BD66
:101FE00003492046FFF767FFF9E700BF987D000827
:101FF000A47D0008F8B504464368597A586803F090
:1020000095FC0646C0F1800570B194F829307BB18B
:10201000E369AB420CDA5A1CE261234493F82A10BC
:10202000A06804F0A9F9F0E72046FFF7F5FDECE71A
:102030000821A06804F0C1F9E0B9002D28DDC6F13F
:102040007F06264496F82A300A2B17D00D2B15D080
:1020500094F82A30212B1BD1A369CBB12046FFF77E
:10206000DBFD0023E361A3695B6804F5D5712046BD
:1020700098470DE0A06804F098F9DEE76368597AA4
:10208000586803F038FC012D03DC2046FFF7C4FD3F
:10209000F8BD6319002283F82A20E26104F12A07BF
:1020A0002021384600F0BAF8064603781BBB0A2107
:1020B000384600F0B3F80646002384F8AA31337896
:1020C000FBB100233370A3612549384600F088F83E
:1020D0000646E0B904F5D5712046FFF7F9FEA3697D
:1020E000A3B3A06804F065F9A3695B6804F5D57132
:1020F00020469847C9E7411C04F5D57000F07EF8EA
:10210000DDE70D21384600F089F80646D9E7154984
:10211000384600F065F8064628B904F5D571204622
:10212000FFF70EFFDBE71049384600F059F8064686
:1021300028B904F5D5712046FFF73EFFCFE73946B1
:102140002046FFF72DFEA0612E46C8E7012E9CDD3C
:10215000637D002B99D005492046FFF7ACFE94E73C
:10216000B07D0008BC7D0008C87D0008D07D000857
:1021700008B5044B1B681A681268C1B2184690472C
:1021800008BD00BF84060020704708B500F0B2FC0F
:1021900008BD000000B583B0064B1A68043B1B68FD
:1021A000054909680091054900F0E4FA03B05DF8BB
:1021B00004FB00BFF0F7FF1FE8F7FF1F687E000871
:1021C00010B50446FFF7DCFC0249204600F0D2FAC5
:1021D00010BD00BF7C7E000808B501F0D5FF08BD2A
:1021E000431E013913F8010F11F8012F10B10AB184
:1021F0009042F7D0801A18BF01207047013911F8BA
:10220000013F0BB90370704700F8013BF7E7034645
:1022100000201A5C02B970470130FAE703461846FD
:1022200013F8012B0AB18A42F9D1704700290346FD
:10223000F0B520DA2D2003F8010B012049421D469C
:10224000C71A91FBF2FC02FB1C11303129702C469D
:10225000BCF1000105F101051E4605EB0700F0DCAD
:1022600000232B70B4420BD93378227806F8012B67
:1022700004F80139F6E704D13022417002700120E0
:10228000F0BD0020DBE730B503782D2B11D14FF0E6
:10229000FF34013000210A25431E01E005FB012126
:1022A00013F8012F303AD0B20928F7D904FB01F016
:1022B00030BD0124EEE7000010B5134C0278014652
:1022C000A2F10A03DBB2162B00F1010017D9A2B16B
:1022D0000846FFF79CFF0C4C013808448142024637
:1022E00009D2137801380A3BDBB2162B03D824FA43
:1022F00003F3DB07F2D400235370084610BD24FA21
:1023000003F3DA07DAD4E3E709004000002310B54D
:10231000934200D110BD51F8234040F823400133CF
:10232000F6E7013A00D2704740F8041BF9E7F8B528
:102330000D4616461C460160828000238371631E91
:10234000082B06D8DFE803F0092D0F14181D2125EE
:102350002900002302241F4625E001238371002366
:1023600002241F461FE001238371022400271AE084
:10237000002301241F4616E00124847100231F4618
:1023800011E000231C461F460DE000231C460327D6
:1023900009E001231C46032705E00023022403274C
:1023A00001E00123002733B9334622463946284647
:1023B00003F074FBF8BD3146284603F0A9FBF3E7B0
:1023C000012800D070474FF6FF739942FAD1024BB3
:1023D0004FF400421A80F5E7D006002008B54FF60A
:1023E000FF710120FFF7ECFF08BD0029B4BF4FF0DB
:1023F000FF32012270B5642401FB02F3591103F08E
:102400001F03634301324FEA6314054604BF2D23C3
:1024100005F8013B06460A222846FFF707FF2E2350
:10242000092C2B54D8BF302305EB0002CEBF501C23
:102430005370901C21460A22FFF7F8FE304670BD0B
:10244000F0B503782D2B17D14FF0FF360130002463
:102450004FF00A0C02E018460CFB0454034613F834
:10246000012BA2F13005EFB2092FF4D9AAB98C40A3
:10247000224406FB02F0F0BD0126E8E78B4003EBA7
:10248000650393FBF5F30CFB05F51A4410F8013FC7
:10249000303BDFB2092FF1D9E9E70A250022AC462B
:1024A000F4E72DE9F04105460F46161E11DD0A46F8
:1024B0000021107810B101310132FAE7B14206DA99
:1024C000761A13F0020F13D14FF0200803E0002614
:1024D000F7E74FF0200813F001040CD1002E0BDDBC
:1024E0002B681B684146284698470134013EF5E7B2
:1024F0004FF03008EFE70024397831B12B681B68C2
:102500002846984701340137F6E7002E07DD2B688F
:102510001B684146284698470134013EF5E72046AE
:10252000BDE8F0812DE9F04184B00746DDF8288050
:102530000C9859B11E460C4613B10A2A13D0002636
:1025400000238DF80D300DF10D0518E030238DF8C6
:10255000003000238DF801300B9B42466946384617
:10256000FFF79FFF32E0002901DB0026E8E74C423D
:102570000126E5E7303105F8011DB4FBF2F44CB15A
:10258000B4FBF2F102FB11410929F3DDA0F13A039A
:102590001944EFE79EB1B8F1000F0BD00B9B13F07D
:1025A000020F07D03B681B682D213846984708F179
:1025B000FF3804E02D2305F8013C013D00260B9B6C
:1025C000424629463846FFF76CFF304404B0BDE868
:1025D000F08108B50846FFF7CBFD08BD70B584B0A3
:1025E000044615461E466846FFF7FFFE33462A4658
:1025F00069462046FFF755FF04B070BDF0B589B0BD
:1026000007460C460592002685E0A21C01238FE0B8
:1026100000222178A1F13005EDB2092D06D802EB98
:102620008202303901EB42020134F2E773291AD0F9
:10263000642923D0782930D058293DD075294AD033
:10264000662957D0632965D10599081D0590096849
:102650008DF81C1000218DF81D1007A93846FFF7D2
:1026600020FF064456E00599081D0590096801B948
:1026700035493846FFF715FF06444BE00599081D1C
:1026800005900968612002900193009201230A22BB
:102690003846FFF747FF06443CE00599081D0590C2
:1026A00009686120029001930092002310223846AD
:1026B000FFF738FF06442DE00599081D05900968CD
:1026C0004120029001930092002310223846FFF728
:1026D00029FF06441EE00599081D05900968612040
:1026E00002900193009200230A223846FFF71AFF56
:1026F00006440FE00599081D059009683846FFF764
:102700006DFF064406E014463B681B682178384696
:1027100098470136013423789BB1252BF4D1621CF4
:10272000637873B1252BEED02D2B3FF46EAF0023D1
:1027300014462278302A7FF46BAF013443F0020351
:10274000F7E7304609B0F0BD607F00080FB400B570
:1027500083B004AA52F8041B054B0193009201A810
:10276000FFF74CFF03B05DF804EB04B0704700BF07
:10277000707F00080EB400B582B003AA52F8041BA3
:102780000192FFF73BFF02B05DF804EB03B0704726
:10279000012800D070474FF6FF739942FAD1034BDE
:1027A000034A13600233034A1360F3E7DC06002098
:1027B0000C070020D806002030B583B0324B93E8D8
:1027C000030002AB03E903000025002D2EDC02AB61
:1027D00003EB850353F8084C204602F0BDFD20466C
:1027E00002F0BFFD204602F0C6FD204602F0BEFD0D
:1027F0000721204602F09BFD204602F061FD2046A5
:1028000002F078FD204602F088FD204A02EB4502E6
:102810000221204602F0B4FD204602F0F4FD4FF400
:102820006021204602F05CFD0135CEE7184C194AC4
:102830000121204603F068F8174A0121204603F0E1
:102840006CF84FF480720121204603F01FF84FF41A
:1028500080620121204603F00CF818220121204655
:1028600003F06BF80121204603F01DF801212046FA
:1028700003F022F80121204603F034F8074802F063
:10288000B8FD03B030BD00BF747F0008D40600203F
:10289000000002404C240140DC06002000240140DE
:1028A000884205DD914209DC90420ADD10467047FE
:1028B000904206DC914203DD10467047084670479F
:1028C0000846704730B583B0046800250BE02289C4
:1028D000A1882088FFF7E4FF02AB03EB450323F850
:1028E000080C01350C34032DF1DDBDF80000BDF8F6
:1028F00002301844BDF804301844BDF806301844BE
:10290000C0F38F0003B030BD08B50F4B98420FD015
:1029100003F58063984211D0A3F50063984203D079
:1029200002F0D6FC102008BD0729F9DCC8B2FAE78E
:102930000129F5DCC9B20831C8B2F4E70529EFDC9A
:10294000C9B20A31C8B2EEE7000C014070B50446C6
:102950000D461646012393409BB20022114628469D
:1029600003F09CF82468054BE41A641031462846AD
:10297000FFF7CAFFA4B2024B185570BDDC06002059
:10298000D406002008B54FF6FF710120FFF700FFC5
:1029900008BD000008B502F045FF024B0344980251
:1029A00008BD00BFFFFF41002DE9F043ADF2044D2B
:1029B000FFF7F0FF0746024600234FF0FF35FF2BDD
:1029C00004DC52F8041B0D400133F8E702F00EFF5F
:1029D0004FF480724FF0FF316846FFF7A2FC0024ED
:1029E00014E03046FFF7C4F880463046FFF7F2F8AF
:1029F0000DEBC40989F80300B8F818302DF834300D
:102A00003046FFF74BF8C9F8040001342F2C06D8E4
:102A1000E6B23046FFF7E4F80028F6D1E1E7FE2100
:102A2000684602F0F1FEFE9003F012F8B5F1FF3FA8
:102A30000AD10024FF2C0BD85DF8241007EB84008A
:102A400003F020F80134F5E7384602F0BDFFF0E767
:102A500003F00AF8FE980DF2044DBDE8F083F8B5D6
:102A6000FFF798FF064602F0C1FEFE21304602F055
:102A7000CBFED6F8F83383421AD100250AE006EBE4
:102A8000C50779682046FFF739F8F9782046FFF73F
:102A90008BF801357E2D0ED836F83500FFF758F843
:102AA00004463128F5D0FFF79BF80028F1D1E6E77E
:102AB0004FF0FF3000E00020F8BD0000014B18602F
:102AC000704700BF1007002010B5074B03EBC10291
:102AD000147953F83130054A52F82420014604484D
:102AE000FFF734FE10BD00BFEC7F00080480000833
:102AF0007C7F000810B50B4B5B6873B10024032C7E
:102B00000ED8084B03EBC403586848B1054B13F8C3
:102B10003410FFF7D9FF0134F1E70348FFF716FE41
:102B200010BD00BF000600208C7F000810B58AB0E1
:102B30000F4B01EB410203EB820453F8222064683F
:102B400001EB410103EB81018B68D0F858020021B1
:102B500008910791069305940492039102910191C3
:102B600000910B46012202F05FFC0AB010BD00BFCD
:102B700018800008F0B583B004460D4616461F467F
:102B80000121D0F8580202F05EFD01960097002363
:102B9000B5F5006F34BF002201222946D4F858024F
:102BA00002F056FD002805DBD4F85432002B17DC68
:102BB00003B0F0BDD4F85432132BF5DC03F111024D
:102BC00004EB021255609760316804EB0312C2F8FF
:102BD0001C117168C2F820110133C4F85432E3E7C4
:102BE0000121D4F8580202F02AFDE1E7012801DDB5
:102BF00000207047014B53F8200070471407002055
:102C000030B58BB004460D460023059306AB049304
:102C10000DF12103039308AB02930DF122030193FD
:102C20000DF12303009309AB0122E9B2D4F8580255
:102C300002F085FD58B19DF8213006AA0999204679
:102C400000F080FA03F04CF9C4F8F800DCE70BB0B0
:102C500030BD30B583B0044600F58A75D4F85432DF
:102C6000002B1DDD03F18053013B1A0105EB03131B
:102C7000A95803F1080201921B7900930023B1F5D2
:102C8000006F34BF00220122D4F8580202F0E0FCA9
:102C9000002805DBD4F85432013BC4F85432DDE798
:102CA000D4F854320BB103B030BD0121D4F858022E
:102CB00002F0C9FCF7E7F0B585B00F4615461C4693
:102CC00010681E885A889B88B4F806C05B019BB2C6
:102CD000520192B27601B1B20126029606400196E7
:102CE0004FEA4C16B6B2009602F08CFC00233B6013
:102CF0002A6801322A60E380A3806380238005B0C4
:102D0000F0BDF0B585B00F4615461C4610681E880C
:102D10005A889B88B4F806C05B019BB2520192B2FC
:102D20007601B1B201260296064001964FEA4C1692
:102D3000B6B2009602F056FC00233B602A680132CE
:102D40002A60A380238040F2FF73E380638005B094
:102D5000F0BD70B582B00E4615461C461068196865
:102D6000C9005A68D20001230093034042F00402D4
:102D700041F0040102F056FC002333602A6801325E
:102D80002A606360236002B070BD000070B58AB035
:102D90000546002308930993454906AA03C982E81A
:102DA000030004930593039302930193D5F85822EB
:102DB000404B9A4209D003F5C0631B68C3F3052357
:102DC00000930024C2F81C421FE00023F8E704F13E
:102DD0001E0205EB8202516861B3029A501C0AAED2
:102DE00006EB420626F8103C023202920AAB03EBD5
:102DF000400323F8101C039B042B24D0029B022BBE
:102E000028D0019B022B2CD00134D5F8F430A342FA
:102E10002EDD05EB84035B68B3F5006FD7D3019A11
:102E200023F060430AA901EB820141F8183C01320A
:102E30000192E0E7039A0AA901EB420121F8083C5C
:102E400001320392D7E708AB6A4603A92846FFF789
:102E500032FFD3E706AB6A4602A92846FFF751FFC7
:102E6000CFE704AB6A4601A92846FFF772FFCBE71C
:102E7000039B002B07DC029B002B0BDC019B002B30
:102E80000FDC0AB070BD08AB6A4603A92846FFF7FD
:102E900012FFF0E706AB6A4601A92846FFF731FFAB
:102EA000ECE704AB6A4601A92846FFF752FFE8E7C2
:102EB0001080000800640040F8B504460D46164630
:102EC0001F4600F0E1F8534B23600023C4F854324E
:102ED000C4F85852504B9D421AD003F580639D426E
:102EE00058D0D4F8580202F093FA31462046FFF742
:102EF0001DFE2046FFF74AFF0221D4F8580202F0D7
:102F00009EFB1021D4F8580202F099FB2046F8BD30
:102F10005FB3424D4FF4807302220021284602F035
:102F2000BDFD4FF48071284602F0F2FD4FF40073AE
:102F300002220321284602F0B1FD142003F096FA84
:102F4000F021142003F0A0FA152003F08FFAF021ED
:102F5000152003F099FA132003F088FAF0211320CA
:102F600003F092FA2E4B1C60BBE72E4D4FF400632A
:102F700002220021284602F091FD4FF4006128460C
:102F800002F0C6FD4FF4805302220321284602F0CE
:102F900085FDD2E747B3214D202302220021284698
:102FA00002F07CFD2021284602F0B2FD40230222DF
:102FB0000321284602F072FD402003F057FAF02169
:102FC000402003F061FA412003F050FAF021412043
:102FD00003F05AFA3F2003F049FAF0213F2003F0B2
:102FE00053FA0F4B5C607CE70C4D4FF48053022288
:102FF0000021284602F052FD4FF48051284602F08D
:1030000087FD4FF4005302220321284602F046FDBB
:10301000D2E700BF5C80000800640040000C014063
:10302000140700200008014008B50020FFF7DEFD6E
:103030000021FFF7E5FD08BD08B50020FFF7D6FD2C
:103040000121FFF7DDFD08BD08B50020FFF7CEFD2B
:10305000FFF7FFFD08BD08B50120FFF7C7FD002100
:10306000FFF7CEFD08BD08B50120FFF7BFFD012128
:10307000FFF7C6FD08BD08B50120FFF7B7FDFFF754
:10308000E8FD08BD70477047084B03600023C0F897
:10309000F430C0F8FC30042B06DC03F14002044994
:1030A00040F822100133F6E7704700BF7080000837
:1030B00024060020D0F8FC30042B01DD00207047EE
:1030C00003F1400240F822100133C0F8FC30012027
:1030D000704738B5D0F8F4501D2D19DC00239D42FF
:1030E00006DD00EB830464688C4213D00133F6E7FD
:1030F00000EB8503596005F11E0300EB83035A6062
:103100000135C0F8F45003689B689847012000E03F
:10311000002038BD0020FCE738B505460024C0F883
:10312000F44003689B689847D5F8FC30A34208DD5B
:1031300004F1400355F8230003685B6898470134A5
:10314000F2E738BD2DE9F8430546894690461F460B
:103150000024D5F8FC00A0420BDD04F1400355F833
:10316000230003681E683B4642464946B047013487
:10317000EFE7BDE8F88370B5054600F13006344648
:10318000A31B242B0FDCA378322B0CD034F8043B88
:10319000C3F3C02123F40063002203EB417168688C
:1031A000FFF797FFECE770BD70B4D9B102F10C05E1
:1031B00000EB85050A2A3AD8A97832293AD001EBE2
:1031C0004104A400583404440026617AFF2933D016
:1031D00063B1013BDBB201EB410189005831264666
:1031E0004418F2E7951C00EB8505E3E726B1717200
:1031F000FF23637201201BE0322901D0A970F7E799
:103200009918092907DC05EB83018978322902D056
:103210000133DBB2F4E7013BDBB205EB83029178CB
:10322000A97035F823302B8032239370E0E700201B
:1032300070BC70470020FBE70020F9E72DE9F04162
:103240000E4600F1080C4FF0000E724673467146B0
:1032500053BB67460022A7EB0C04242C1FDCBC7870
:10326000322C1CD004EB4404A400583405194FF050
:10327000000E6C7AFF2C0ED0B5F80480B5B2A845CC
:1032800012D00EF1010E5FFA8EFE04EB4404A4008E
:1032900058340519EDE70132D2B20437DBE700F10B
:1032A000300C0B460121D3E713B10020BDE8F081BB
:1032B0007346FFF779FFF9E72DE9F041DDF8248047
:1032C000002488F8004000F1080E002C3ED1F4469E
:1032D000ACEB0E04242C31DC9CF80240322C2DD0B7
:1032E00004EB4404A400583405196C7AFF2C22D056
:1032F000AF888EB2B74205D004EB4404A400583422
:103300000519F2E7BCF80010C1F3C02021F40061F8
:1033100041EA40711160EA791A7095F90820069B1C
:103320001A702A68079B1A6095F90620089B1A7084
:103330000120BDE8F0810CF1040CC9E798F80040C9
:10334000012588F8005000F1300EBEE70020F0E7BC
:1033500010B40446C9B102F10C0100EB81010A2A44
:1033600021D88A78322A20D002EB420292005832C9
:10337000A018427AFF2A1AD05BB1013BDBB202EB04
:10338000420292005832A018F3E7911C00EB810131
:10339000E5E70B88C3F3C02223F4006343EA4273DA
:1033A000019A136004E0002002E0002000E0002009
:1033B00010BC70472DE9F04385B00646884600F101
:1033C000080900273B462CE02B88C3F3C02023F4D8
:1033D0000061029794F9063001932368009394F9F1
:1033E0000830E27941EA40712079C047647A04EB01
:1033F0004404A40058343444637AFF2BE4D10435E8
:10340000A5EB0903242B08DCAB78322B05D003EBAA
:103410004304A40058343444EEE706F130093B4637
:1034200001270BB94D46EBE705B0BDE8F08310B4BA
:103430000023092B05DC01EB830232249470013355
:10344000F7E70023322B08DC03EB430200EB820298
:10345000FF2182F861100133F4E710BC704710B50A
:10346000044600F10801FFF7E2FF04F130012046B5
:10347000FFF7DDFF6068FFF74FFE10BD2DE9F0415B
:10348000884615461F4600242646BC420BDA2868AB
:1034900002F0B4F9064655F8041B08EB840002F06C
:1034A000F1FA0134F1E73046BDE8F081084600E06A
:1034B0000430431A242B08DC8378322B07D003888E
:1034C000534033F40063F3D102E000207047002042
:1034D000704700004B4B1B7803B170472DE9F0415A
:1034E000054616460A4600F13001FFF7DFFF0028C7
:1034F00000F08680837803EB4304A40058342C4406
:1035000042E01F2B53D83068C0F30727020642EA77
:103510000742C0F3074742EA072242EA1062C3F1BA
:103520001F03DBB201208840013822FA03F3184060
:1035300003F0A6FB074694F9060003F0A5FB394605
:1035400003F0EEFA0146206803F0F2FB074620790B
:10355000FEF746FB20B12079FEF742FB01284AD155
:10356000B4F804804FF08441384603F0E1FB03F0E7
:103570002FFD01465FFA88F0FEF770FA647A04EBDB
:103580004404A40058342C44637AFF2B38D0E379E8
:1035900094F9082082EAE270A0EBE270C1B2002A3E
:1035A000AFDB1F2B18D97268203BDBB2BAE71A4495
:1035B0001F2A03DD7068203BDBB2A5E75F1AFFB26C
:1035C0000137FFB23268FA407068C7F12007B8408F
:1035D00010434B1EDBB297E71A44202A01DC326805
:1035E000A0E73268DA407768C3F1200307FA03F3F3
:1035F0001A43002396E739462079FEF785FABDE79E
:10360000BDE8F0811C0700202DE9F8439DF82080DB
:103610009DF92460002E77D004460D461746994642
:1036200086EAE673A3EBE673DBB2202B70D8002E9C
:1036300017DD08EB0603402B6DDC4A462946204681
:10364000FFF734FF8446C0B10022312A26DC02EBAA
:10365000420304EB830393F86130FF2B1ED0013249
:10366000F3E7B8F13F0F59D84FFA88F33344B3F179
:10367000FF3FE2DA6FF0010048E00022092A07DC90
:1036800005EB82039978322901D00132F6E79C4696
:10369000BCF1000F45D0ACF80090D5E7322A43D0FA
:1036A0009CF802300021322B0BD003EB4301890040
:1036B0005831214403EB430304EB830393F8613057
:1036C000F1E702EB420004EB8004A4F85C700A9B73
:1036D000A3659DF92C3084F85E3084F85F8084F80F
:1036E0006060322384F8613059B14A722B46002061
:1036F0005A1B242A0ADC9A78322A07D00130043374
:10370000F6E78CF80220F1E76FF00200BDE8F883DD
:103710006FF00200FAE76FF00100F7E76FF00100C9
:10372000F4E76FF00300F1E76FF00400EEE7B2F5A5
:10373000006F12D210B584B09DF920400394079C0D
:1037400002949DF918400194009313460A4600F133
:103750000801FFF759FF04B010BD4FF0FF3070476C
:1037600070B584B005461446C2F3407022F0005292
:10377000B2F5006F19D29DF928600396099E029652
:103780009DF920600196009342EAC0230A4605F1A4
:1037900030012846FFF738FF0646002221466868B8
:1037A000FFF797FC304604B070BD4FF0FF36F9E7E5
:1037B00008B502F037F8024B0344980208BD00BF79
:1037C000FEFF41002DE9F04F87B007460590FFF757
:1037D000EFFF0546D0F8E84302F008F8FA21284642
:1037E00002F012F8844203D0002007B0BDE8F08F49
:1037F000A946059B03F1080B2E4600E03236A6EBE6
:103800000903B3F5E17F29DC32884FF6FF739A4252
:1038100024D006F102084446A4EB08032A2BEDDC71
:1038200094F90530002BE9DD2088FEF791F904902A
:10383000B6F800A0B4F902000023039303F024FAC1
:10384000029094F905300193237900935346049A2A
:1038500059463846FFF7D8FE0634DDE705F5FA7518
:10386000059B03F1300A2E4600E03236731BB3F598
:10387000E17F2DDC32884FF6FF739A422AD006F1A1
:1038800002094C46A4EB09032A2BEEDC94F905301F
:10389000002BEADD2088FEF75BF98046B6F800B021
:1038A000B4F9020003F0F0F9002303934FF07451D0
:1038B00003F03EFA029094F90530019323790093C6
:1038C0005B46424651463846FFF79EFE0634D9E72E
:1038D00001208AE7012088E7F8B505460F460E4625
:1038E00000E00436F31B242B16DCB378322B13D004
:1038F00003EB4304A40058342C44637AFF2BF0D02C
:103900002079FEF735F9038BA380647A04EB440435
:10391000A40058342C44F0E7F8BDF8B505460F462E
:103920000E4600E00436F31B242B15DCB378322B53
:1039300012D003EB4304A40058342C44637AFF2BC9
:10394000F0D0A088FEF704F9A080647A04EB440468
:10395000A40058342C44F1E7F8BD0000F0B583B062
:103960000546FFF725FF064602462A4B012119703E
:1039700000234FF0FF34FF2B04DC52F8041B0C40F3
:103980000133F8E701F032FF02F062F8022002F0A2
:1039900055F8B4F1FF3F38D105F1080739462846FC
:1039A000FFF79AFF05F1300421462846FFF794FF00
:1039B0000A233A4631462846FFF760FD0A2322468D
:1039C00006F128012846FFF759FD0190962305F1DD
:1039D000580206F150012846FFF750FD01900123DF
:1039E00001AA06F52D712846FFF748FD02F03CF8C4
:1039F00039462846FFF791FF21462846FFF78DFFFD
:103A0000044B00221A7003B0F0BD304601F0DCFF19
:103A1000C2E700BF1C070020F8B50546FFF7C8FE47
:103A20000446D0F8B46201F0E1FEAA21204601F07C
:103A3000EBFE864203D02846FFF7C4FEF8BD05F131
:103A400008070A2221463846FEF760FC05F13006D9
:103A50000A2204F128013046FEF758FC962204F1B0
:103A6000500105F15800FEF751FC39462846FFF792
:103A700054FF31462846FFF750FF0120DEE70000E3
:103A800038B50446084615460C4B23606160214654
:103A9000FFF710FB04F108012046FFF7C8FC04F112
:103AA00030012046FFF7C3FC25B92046FFF763FB32
:103AB000204638BD2046FFF7AFFFF6E794800008A8
:103AC000826DC36D9A42FBD0836D5A1C826503F0F0
:103AD0003F03034419764FF0FF3343617047A0F171
:103AE0000400FFF7EDBF10B50446017C002201F58C
:103AF000C0618068FFF7EDFA617C3F2900D910BDF5
:103B0000002201F5B061A068FFF7E3FAF7E70000D3
:103B100010B5044608460B4B03F1080121601C3325
:103B20006360A060E26001232374FF2363744FF09D
:103B3000FF3363612146FFF7BDFA2046FFF7D3FF4D
:103B4000204610BD9C80000808B501748068FFF70E
:103B5000E3FA08BD10B582B004468DF80010ADF848
:103B600001309DF810308DF80330059B0193437CA4
:103B700093420DD1002384F87430A068617C0368FF
:103B80005C6808236A4601F5C061A04702B010BD19
:103B900042748068FFF7C0FAECE7B1F8012045F203
:103BA00001039A4211D0012380F884300B7880F809
:103BB0007C30B1F80130A0F87D30CB7880F87F30D0
:103BC0004B68C0F88030002070470B78402B01D044
:103BD000002070474FF0FF330B714B7100238B7146
:103BE000CB7141220A7083654023C365CB78436162
:103BF000012070472DE9F04184B006460C46B1F82B
:103C00000120C2F3C017CD7825B1013D05EBD57574
:103C1000C5F3470503AB00932B4602F03F0239463C
:103C2000F068FFF795FB80462378402B0DD0232BBF
:103C30003DD0802323700023237163710223A3717D
:103C40000623E37104B0BDE8F08130B30079FDF7DD
:103C50008FFF028BE37823B9039B636043232370B8
:103C6000F0E713F0010F09D098F8073042EA034259
:103C700098F9083042EA03626260EFE71349D8F826
:103C8000000003F055F803F0A3F920F07F4398F902
:103C9000062043EA02636360E0E780232370002389
:103CA000237163710223A3710623E371CAE700281D
:103CB000BFD06368002BBCD1B4F801202B4602F0C2
:103CC0003F023946F068FFF76FFABBE700007A441D
:103CD0000B78232B00D070472DE9F04184B00646C5
:103CE0000C461546CB7883B94B68B3F1005F04D31B
:103CF00023F00052B2F5006F03D273666023237085
:103D000019E04FF0FF3343660CE0476EB7F1FF3F19
:103D100001D0012B12D096F97080B8F1000F01D0BC
:103D2000022B1ED080232370002323716371022392
:103D3000A3710623E37104B0BDE8F081486880B246
:103D4000FDF706FF80B2A6F86C006368C3F3054375
:103D500086F86F3063681B1686F870302F28CDD92F
:103D6000E0E7606840F3170002F08EFF154903F0AA
:103D700093F8B06663681B1686F86E30A5B102939F
:103D80000190CDF8008096F86F303A4696F86C10A6
:103D9000F068FFF7E5FC002386F870304FF0FF3342
:103DA00073660028AADABDE702930190CDF800807F
:103DB00096F86F303A4696F86C10F068FFF7B7FC4B
:103DC000E9E700BF00007A4438B504460D460B7899
:103DD00003F06002602A1DD0B1F80130B3F5005F36
:103DE00045D003F47F42B2F5045F40D0C16811B101
:103DF000B3F5405F70D019B143F20100834270D037
:103E000011B1B2F5445F72D029462046FFF7C5FED6
:103E1000D0B922E003F010030B700122072A0EDC58
:103E2000E36DA16D5B1A402B09D0E36D591CE16570
:103E300003F03F0323441B7EAB540132EEE7E36DF6
:103E4000A16D5B1A402B09D0A068217C03685C68D7
:103E500008232A4601F5B061A04738BD2B7843F00E
:103E60000103C2F1080243EA42022A70ECE7E87853
:103E700003F47F42B2F5045F0CD02F2822D82B78B0
:103E8000232B0DD0402BDFD1FDF708FE68604323C4
:103E90002B70D9E71B029BB21844FDF759FEECE7E3
:103EA0006968FDF7DBFD10B960232B70CCE7802338
:103EB0002B7030232B7100236B710923AB71062308
:103EC000EB71C1E780232B7000232B716B710223F0
:103ED000AB710623EB71B7E700222946FFF7F8FE26
:103EE000B2E7012229462046FFF7F2FEACE7294659
:103EF0002046FFF77FFEA7E7F0B583B004461546DE
:103F0000037C03F5C0638B4206D0467C06F5B063A4
:103F10008B4205D003B0F0BD1146FFF755FFF9E71E
:103F2000B2F80170A7F540539BB2012B08D92B784A
:103F3000803B18BF012384F874306B68A367E9E7FE
:103F4000D378ABB1012BF2D11349806E02F0F0FEB1
:103F500003F03EF894F96E3040EA036301930223C4
:103F600000933B46324623212046FFF7F3FDDEE770
:103F7000B0F86C3090F86F2043EA024390F970205B
:103F800043EA02630193012300933B463246232117
:103F9000FFF7E0FDCBE700BF00007A442DE9F041D8
:103FA00084B00C4615461E469DF83070FDF7E0FDC6
:103FB000D0F804801449154B1868FEF7DBFBE7B115
:103FC0001349124B1868FEF7D5FB4FF084410A984D
:103FD00002F0AEFE0D4B1F689DF92C30039302F0EA
:103FE000F7FF02900196009523464246094938465C
:103FF000FEF7C0FB04B0BDE8F0810749034B186829
:10400000FEF7B8FBE1E700BFBC80000820070020F6
:10401000C4800008CC800008C880000870B5044641
:104020000846FEF749F905462021FEF7F7F8037820
:10403000A3B1002300F8013B0521FEF701FA064673
:104040002846FDF771FD312812D03146FDF706FDF7
:1040500048B90A492046FEF78DFB03E0084920468F
:10406000FEF788FB70BD07492046FEF783FBF9E7A2
:104070002A4605492046FEF77DFBF3E7FC80000851
:10408000E08000080881000820810008F8B5074694
:104090000846FEF711F905460BE0FDF7FFFC024666
:1040A0000E493846FEF766FB254605F8016B2C2EB7
:1040B00012D12C212846FEF7B1F8044606780023D9
:1040C00003702846FDF730FD3128E6D12A46044921
:1040D0003846FEF74FFBE7E7F8BD00BF3881000820
:1040E000408100082DE9F04107460846FEF7E4F854
:1040F00080462021FEF792F803789BB104460646DD
:10410000002306F8013B4046FDF70EFD0546312829
:1041100029D06378212B0AD07E2B08D02F2B06D0F4
:10412000002406E013493846FEF724FB0FE0A61CE6
:10413000012431461048FEF753F850B974B10121FB
:104140002846FDF73FFD0D493846FEF713FBBDE855
:10415000F0810B493846FEF70DFBF8E701212846B0
:10416000FDF728FDEFE7424606493846FEF702FB19
:10417000EDE700BF5C8100086C81000884810008C5
:1041800074810008208100082DE9F04F8BB00746AC
:104190000846FEF791F80378059346493846FEF73E
:1041A000E9FA00264FF0200822E0434A03920293E6
:1041B0000190CDF800A04B46424640493846FEF7F4
:1041C000D9FA2846FDF70CFD20B12846FDF708FD79
:1041D00001285AD1E268236961692068029601903A
:1041E000009137493846FEF7C5FA4FF02C080136E2
:1041F0002F2E51D8F5B22846FDF7BAFC04462846C2
:10420000FDF7E8FC10F0010F02D0059B682BEED102
:10421000D4F80490D4F808A0B4F818B02846FDF7F4
:104220003DFC0290CDF804B0CDF800A04B464246CC
:1042300024493846FEF79EFA0DF11F0303930DF152
:104240001E03029309AB01930DF11D03009307AB0D
:1042500008AA29461C480068FFF72EF80028B0D0AD
:10426000DDF820809DF81C909DF91DA04FF0844141
:10427000099802F05DFD02F0ABFE9DF91E309DF83D
:104280001F20002A91D0114A90E711493846FEF7C5
:1042900071FA4FF02C08AAE70E4B1A680E493846FF
:1042A000FEF768FA0D493846FEF764FA0BB0BDE830
:1042B000F08F00BFA881000898810008DC81000809
:1042C00040820008AC81000824070020A08100087B
:1042D0002C820008F0F7FF1F90820008CC820008B3
:1042E0002DE9F0478AB0044600230593069307930F
:1042F000089309930846FDF7DFFF0578702D3AD043
:10430000632D46D02021FDF789FF0378002B49D08B
:10431000FDF7D2FF07462021FDF780FF0646037810
:104320000BB9642D45D1002306F8013B09933846AB
:10433000FDF7FAFB81463046FDF7BEFF0646B9F1B0
:10434000310F3BD0642D3ED04FF000084FF07E5A25
:10435000B8F1040F62DC20213046FDF75FFF07460D
:104360000378002B3AD1B8F1020F37DC55492046CB
:10437000FEF700FA1AE0544B1B68002BFBD1524D9C
:104380002C605249524B1868FFF714F800232B6039
:104390000CE04F4B1868FFF762F84E492046FEF7D5
:1043A000E9F903E047492046FEF7E4F90AB0BDE821
:1043B000F08744492046FEF7DDF9F7E746492046F5
:1043C000FEF7D8F9F2E74946414B1868FEF736FF89
:1043D000024642492046FEF7CDF9E7E700233B704D
:1043E0003046FDF750FFB8F1030F0BD00AAB03EBDB
:1043F000880343F8140C781CFDF75EFF064608F1AD
:104400000108A5E710213046FEF71AF802F03CFC3F
:104410004FF05E5102F08CFC8246ECE7742D17D011
:104420009DF924300293CDF804A09DF91C3000932F
:104430009DF81830059A494625480068FFF790F91D
:10444000431D042B32D8DFE803F0262C201A140079
:104450009DF924300293CDF804A09DF91C300093FF
:104460009DF81830059A494619480068FFF75FF92A
:10447000E6E7059A1A492046FEF77CF996E7069A80
:1044800018492046FEF776F990E7079A1649204624
:10449000FEF770F98AE7059A14492046FEF76AF993
:1044A00084E713492046FEF765F97FE7012806DD1A
:1044B000104B024610492046FEF75CF976E70F4B99
:1044C000F7E700BFF8820008200700209D3F0008A2
:1044D00024070020D48200080C83000820830008F1
:1044E000388300084C830008608300087483000848
:1044F0009C830008B0730008B8830008948100080A
:1045000010B504460C4B1B788BB172B60B4B186878
:10451000FFF724FA0A492046FEF72CF9FEF744FA81
:10452000024662B607492046FEF724F910BD064947
:10453000FEF720F9FAE700BF280600202407002034
:10454000E4830008F48300081084000810B50446D2
:1045500072B6FEF784FA62B638B93020FCF7B4FFC1
:1045600004492046FEF706F910BD03492046FEF730
:1045700001F9F9E7548400086884000808B501F0DF
:104580006DFF2DE9F843054688461746002607E0EB
:1045900008F80600013623782C2B13D1BE4211D225
:1045A0002C212846FDF73AFE044690F8009000239F
:1045B00003702846FDF7B8FA254605F8019B312817
:1045C000E6D1E8E73046BDE8F88300002DE9F04188
:1045D00084B006460846FDF76FFE0446FDF753FE1D
:1045E000804620212046FDF719FE03784BB10A22B0
:1045F00001A90130FFF7C5FF07463046FDF707FB6D
:1046000015E018493046FEF7B5F804B0BDE8F08172
:10461000B8F1FF3FF9D1144D002412E013493046A0
:10462000FEF7A8F8B8F1FF3F01D008F1FF38304697
:10463000FDF7E7FA0028E8D1B8F1000FE8DD0A4DF0
:104640000024BC42EADA04AB234413F80C0CFDF757
:1046500025FA03462A4606493046FEF78BF8013410
:10466000044DEEE78084000894810008508400081F
:10467000A0840008D07F000800231A46062B0DDC1A
:1046800010B4C45C224492B20133062BF9DD01EB75
:10469000212188B21044C0B210BC704701EB212127
:1046A00088B21844C0B2704708B50346C0F3090089
:1046B00013F4806F01D0A0F2FF3002F079F906A365
:1046C000D3E9002301F0F8FE0022054B02F024F8A4
:1046D00002F0D8F900B208BD9A9999999999B93F11
:1046E0000000444040F2B223984200D070470229B3
:1046F00005D00129FAD1044B00221A70F6E7024BCB
:1047000001221A70F5E700BF7A070020014B1860FC
:10471000704700BF8807002038B50446C179C1F34F
:10472000C1011D4D29702020FDF7E0F92B781BB346
:10473000194B1B78012B24D0174B1B78022B25D04B
:10474000217801F00F01154B19702120FDF7CEF9EA
:10475000E07802F099FA124902F0EAFA0146114BA8
:1047600018602220FDF7D0F9217889090E4B1970C5
:104770002320FDF7BBF938BD30211520FDF7B6F930
:10478000D6E720211520FDF7B1F9D5E71021152036
:10479000FDF7ACF9D4E700BF7607002075070020CD
:1047A000CDCCCC3D44070020730700200000000062
:1047B00010B5C378807840EA0320C0F30B0002F004
:1047C000F7F80FA3D3E9002301F076FE02F082F997
:1047D00080B20D4C208002F053FA01461E20FDF7F6
:1047E00093F9208802F050FA084B196802F0A0FAF9
:1047F0000146074B18601720FDF786F910BD00BF72
:104800009A9999999999B93F4A0700206C07002015
:104810005007002000000000F8B5044643790079F5
:1048200040EA0320C0F3090002F0C2F826A3D3E94E
:10483000002301F041FE284E02F04CF93080E07870
:1048400002F022FA254902F073FA0546244B18605B
:104850006378207840EA0320C0F30D0002F0A8F846
:104860001BA3D3E9002301F027FE1E4F02F032F90B
:104870003880A378607840EA4320C01102F098F8AD
:1048800011A3D3E9002301F017FE174C02F022F91F
:10489000208029461620FDF737F9388802F0F0F914
:1048A00001461B20FDF730F9208802F0E9F90146A6
:1048B0001C20FDF729F9308802F0E2F901461F209B
:1048C000FDF722F9F8BD00BF9A9999999999B93FD6
:1048D0004C37894160E5A03F2C070020CDCCCC3D72
:1048E00030070020340700202807002000000000C7
:1048F0002DE9F0474378047844EA0324384B1C80C0
:104900008178427842EA0122D210364D2A8002791B
:10491000C378DB0143EAC23343EA61035B11324FE0
:104920003B80467942EA06225210DFF8C080A8F8A0
:104930000020C37990F806A04AEA0320C00902F0DB
:1049400037F825A3D3E9002301F0B6FDDFF8A090E6
:1049500002F0C0F8A9F8000046EA0A263611DFF88E
:1049600094A0AAF800602046FFF79EFE02F08CF9A2
:1049700001462420FDF7C8F82888FFF795FE02F0CD
:1049800083F901462520FDF7BFF83888FFF78CFE34
:1049900002F07AF901462620FDF7B6F8B8F80000D3
:1049A000FFF782FE02F070F901462720FDF7ACF810
:1049B000B9F8000002F064F901462820FDF7A4F8D8
:1049C000BAF80000FFF770FE02F05EF901462920F8
:1049D000FDF79AF8BDE8F087D927806264C9D23F15
:1049E000360700203E070020400700205607002021
:1049F0004C0700203C07002010B5044603784A4AC3
:104A00001370E62B1ED0C62B1CD0042B3AD1474B7B
:104A10001B78002B36D0C379807940EA0320C0F39D
:104A2000CB0001F0C5FF3EA3D3E9002301F044FD14
:104A300002F050F83E4B18801420FDF73DF83D4B36
:104A400018601FE0E378A07840EA0320C0F30B0071
:104A500001F0AEFF32A3D3E9002301F02DFD02F0F7
:104A600039F8334B18806378207840EA432080116E
:104A700002F00AF9304902F05BF92E4B18602B4B1B
:104A800000221A702A4B188802F0FAF80146182002
:104A9000FDF73AF8274B19681A20FDF735F8237807
:104AA00003F01F03204A1370DBB9207902F0ECF801
:104AB000224902F03DF9224B1860224B01221A7064
:104AC000214B19681E4B186802F02AF81F4B196811
:104AD00002F026F801461E4B18601D20FDF714F861
:104AE00010BD012B0DD0022BEAD1207902F0CCF8B9
:104AF000124902F01DF9154B1860124B01221A7071
:104B0000DEE7207902F0C0F80C4902F011F90E4BF3
:104B100018600C4B01221A70D2E700BFAFF300807F
:104B2000DE91B1DAFCBFC23F8C07002029060020CD
:104B30005A0700206C0700200000203DCDCCCC3D62
:104B40005C07002058070020600700206407002051
:104B500068070020037803F00F03014A13707047C1
:104B60007107002010B504460278164B1A700E200B
:104B7000FCF7B0FF90B1144A137812490878134932
:104B8000C8540133DBB213700A2B02D9134600223A
:104B90001A700D4B19782C20FCF7A8FF094B1B78D5
:104BA0001E2B00D010BD2379E07840EA0320084B8B
:104BB0001880A17801F00701064B1970FFF792FDEC
:104BC000F0E700BF70070020740700207C0700207A
:104BD000380700203A07002008B5C179024B197048
:104BE0002A20FCF783FF08BD7207002008B5037870
:104BF000224A1370224A1278002A30D10C2B11D08D
:104C0000162B2DD0202B1AD18378407840EA032030
:104C1000C0F3090002F038F81A4902F089F81A4B7B
:104C200018600CE08378407840EA0320C0F3090064
:104C300002F02AF8134902F07BF8144B1860144B69
:104C40001968124B186801F06BFF0F4B196801F0DF
:104C500067FF01460F4B18601D20FCF755FF08BD8C
:104C60008378407840EA0320C0F3090002F00CF892
:104C7000044902F05DF8064B1860E0E78D0700205C
:104C8000580700200AD7233B640700205C07002058
:104C9000600700206807002010B582B00220FCF7F2
:104CA00003FF4000124B18701320FCF7FDFEE8B123
:104CB00005238DF800300E4B1B788DF80130AA23A8
:104CC0008DF802301A238DF80330FF238DF804305D
:104CD00002238DF80530074B186803685C680623CB
:104CE0006A4640F23D11A04702B010BD0A23E0E73A
:104CF0002A0700208807002010B582B0F6238DF81F
:104D0000003015238DF8013009238DF802308223FD
:104D10008DF8033018238DF8043001238DF8053009
:104D2000054B186803685C6806236A4640F20A214E
:104D3000A04702B010BD00BF8807002010B582B0A8
:104D4000B9238DF800301C238DF8013094238DF8A1
:104D50000230AD238DF80330C3238DF804301523C2
:104D60008DF8053006238DF8063063238DF8073063
:104D7000054B186803685C6808236A4640F21221F4
:104D8000A04702B010BD00BF8807002010B582B058
:104D90000A20FCF789FE30B35D238DF80030022035
:104DA000FCF782FE40008DF8010000248DF80240DF
:104DB0000220FCF779FE8DF8030080238DF8043083
:104DC0008DF8054060238DF8063010238DF80730EC
:104DD000064B186803685C6808236A4640F21D2188
:104DE000A04702B010BD2D23D7E700BF88070020E1
:104DF00010B582B00B20FCF757FE00238DF804306D
:104E00008DF8053010F0FF0004D11A4B1B881B01F0
:104E10008DF80630012814D002281AD0032820D09B
:104E2000144B1B881B118DF80730134B186803684F
:104E30005C6804230DEB030240F22A21A04702B074
:104E400010BD0C4B1B881B0143F005038DF8063089
:104E5000E2E7084B1B881B0143F009038DF806307D
:104E6000DCE7044B1B881B0143F00D038DF8063073
:104E7000D6E700BF5A0700208807002010B582B08F
:104E80000A238DF8003002238DF80130D5238DF8E8
:104E9000023009238DF80330CB238DF8043004232E
:104EA0008DF8053000238DF806308DF80730054B5E
:104EB000186803685C6808236A4640F23221A047FC
:104EC00002B010BD8807002010B582B00220FCF7A8
:104ED000EBFD4000114B18701320FCF7E5FD13208B
:104EE000FCF7E2FDC0B105238DF804300B4B1B78B5
:104EF0008DF80530FF238DF806300F238DF807302D
:104F0000074B186803685C6804230DEB030240F24A
:104F10003D21A04702B010BD0A23E5E72A07002083
:104F20008807002010B582B00A20FCF7BDFD10B341
:104F3000D8238DF800308C238DF8013001238DF8B3
:104F40000230B5238DF803304A238DF80430C12395
:104F50008DF805300A238DF80630E0238DF80730F0
:104F6000064B186803685C6808236A4640F25D21B6
:104F7000A04702B010BDD923DBE700BF880700209F
:104F800010B582B01D4B18801D4B1B78EBB98DF806
:104F9000000000128DF801001320FCF785FD90B190
:104FA00002238DF8023000238DF803308DF8043091
:104FB000144B186803685C6805236A4640F2B22106
:104FC000A04702B010BD0023EBE78DF800000012EF
:104FD0008DF801001320FCF767FD60B102238DF806
:104FE0000230084B186803685C6803236A4640F285
:104FF000B221A047E5E70023F1E700BF78070020D2
:105000007A0700208807002010B582B02C238DF885
:105010000030B6238DF80130A8238DF802307F23AD
:105020008DF8033002228DF804208DF8053000231E
:105030008DF806308DF80730054B186803685C68FA
:1050400008236A4640F22131A04702B010BD00BFDC
:105050008807002010B582B004238DF80430302278
:105060008DF8052029228DF8062007228DF80720CB
:10507000054A1068026854680DEB030240F23331B0
:10508000A04702B010BD00BF8807002010B582B055
:105090000C20FCF711FD154901F04AFE01F0BEFF9E
:1050A00080B2134B188009238DF8003062238DF8ED
:1050B00001308DF80200001240F099008DF80300D5
:1050C00008238DF804302C228DF8052012228DF84B
:1050D00006205A228DF80720064A10680268546894
:1050E0006A4640F2A131A04702B010BD0000C8429C
:1050F000540700208807002010B582B0264B1B788B
:105100002BB3E5238DF800300D238DF80130EB2310
:105110008DF80230FF238DF803300C238DF8043016
:1051200066238DF80530BB238DF8063011238DF8EA
:1051300007301A4B186803685C6808236A4640F217
:10514000B231A047144B00221A7002B010BDE32305
:105150008DF800305D238DF80130FB238DF802308F
:10516000FF238DF803300C238DF8043066238DF86F
:105170000530BB238DF8063006238DF80730074B2A
:10518000186803685C6808236A4640F2B231A04799
:10519000014B01221A70D8E72A0600208807002058
:1051A00030B583B0324B1B78002B36D014238DF8EA
:1051B000003000248DF801403F238DF80230702329
:1051C0008DF803309F238DF8043001238DF80530CE
:1051D000284B1B781B0143F00A038DF8063040F280
:1051E00045516846FFF748FA8DF80700224B1868CA
:1051F00003685D6808236A4640F24551A8471C4B86
:105200001C701C4A13780133DBB213700F2B02D9C8
:10521000134600221A7003B030BD03238DF800300E
:1052200019238DF8013064228DF8022032228DF886
:1052300003208DF8043000238DF805300D4B1B78CA
:105240001B018DF8063040F245516846FFF714FA0D
:105250008DF80700084B186803685C6808236A46E5
:1052600040F24551A047024B01221A70C9E700BF26
:105270002B060020480700208807002010B50D20CD
:10528000FCF712FC0C4B195C2B20FCF72FFC0E20BA
:10529000FCF720FC00B110BD0024084B1C70214617
:1052A0002C20FCF723FC21460929F4DC024B0022C8
:1052B0005A540131F8E700BF7C0700207407002032
:1052C0008368DB075EBF836843F001038360704738
:1052D000024A136843F40003136070470824014036
:1052E000836823F460230B438360836843F4801353
:1052F00083607047836800F1080243F0080383600D
:1053000013681B07FCD47047836843F00403836071
:1053100070478068C0F38000704708B50246FFF709
:10532000F3FF1046FFF7F5FF0028FAD108BD002271
:10533000134610B501FA02F403321E2A43EA0403AD
:10534000F8D10022036101FA02F40332182A43EA79
:105350000403F8D1C36010BD836823F001038360A8
:105360007047436843F4807343607047836823F455
:10537000006383607047836843F002038360704773
:105380001029F0B50CD80026012337463546DCB28B
:10539000A14206D2013945EA0155C5620763466359
:1053A000F0BD062C15D892F800C003EB830EAEF1C9
:1053B000050E0CFA0EFC46EA0C060D3C052C15D821
:1053C000147803EB830CACF1410C04FA0CF4254384
:1053D0000CE0A4F1070CBCF1050FEED8147803EB38
:1053E000830CACF1230C04FA0CF427430133013293
:1053F000CDE7836800F1080243F4800383601368FB
:105400005B02FCD47047836843F480738360704709
:10541000044B98420CBF40F2192040F21A2000F0D1
:10542000F1BC00BF006400402DE9F34104688846E8
:1054300024F0020404600468964644F00104046009
:105440004FF6FF749DF820C09DF824109DF8282089
:105450009DF83C609DF840700194019C051D013C45
:10546000019414B14468E407F7D52C68E4076ED5BD
:105470000024C4610468B8F1000F4FD044F08004E8
:1054800004600468BEF1000F4BD044F04004046097
:10549000002B49D0036843F0200303600368BCF18C
:1054A000000F45D043F0100303600368002942D089
:1054B00043F0080303600368002A3FD043F004036D
:1054C0000360C369002F3CD043F00043C361C3694C
:1054D000002E39D043F08043C3610E9B0D99013BF0
:1054E000C3F309030B430C99C2690B430B990B439C
:1054F0001343C361036823F0010303604FF6FF7396
:105500000193019B013B019313B12B68DB07F8D496
:10551000286800F0010002B0BDE8F08124F08004AA
:10552000AEE724F04004B2E7036823F02003B4E7B9
:1055300023F01003B8E723F00803BBE723F00403CC
:10554000BEE723F00043C1E723F08043C4E7012016
:10555000E1E70000F0B501241E4D96461A462B687F
:105560009DF81C7043F001032B60EB69844023EA33
:1055700004031C352B60E643174B09B3196821431C
:10558000196016490B68BEF1000F1CD0234300F1CF
:10559000006000F6C8400B60C000059B0260069AE0
:1055A00043600F4B8AB11A6822431A6017B12B6807
:1055B0001C432C60074A136823F001031360F0BDFD
:1055C00019683140DCE73340E1E71A6816401E6095
:1055D000ECE700BF006600400C6600400466004037
:1055E0001466004030B4BDF808409DF8105043EAFE
:1055F0000443029341EA024300220495114630BC61
:10560000FFF7A8BF30B4BDF808409DF8105044EA39
:105610000344049542EA01430294012230BC002174
:10562000FFF798BF1FB5009201229DF81840CDE901
:1056300001340B461146FFF78DFF04B010BD4369DE
:105640000B4343617047436923EA01034361704799
:105650002DE9F041804680689DF818E04501079EDD
:105660002AD4D8F8080004012AD4D8F80800C000C9
:1056700050D54FF4D075022005EB080422B3C900C1
:1056800041F0040145F808101BB1236843F0020300
:105690002360636823F00F03636062680EF00F03FA
:1056A000134363600EF1FF33072B2AD8DFE803F0C2
:1056B0002623201B1815120E4FF4C0750020DBE7BF
:1056C0004FF4C8750120D7E74905DBE70027F379D8
:1056D00063F31F67B37963F31747737963F30F2796
:1056E000337963F307074FF0000CF37863F31F6C13
:1056F000B37863F3174C737863F30F2C337863F349
:10570000070CC4F808C0E760236843F00103236076
:10571000BDE8F0814FF0FF30FAE721B9C36843F0EC
:105720002003C3607047036943F02003036170479F
:1057300019B9C06800F0030070470069FAE72DE965
:10574000F347DDF828A00446DDE90E568846FFF74A
:10575000EFFF4FF4E07181464FF4D870CDE90001BE
:1057600002A901EB880151F8081C6058671810F075
:10577000040015BF01208AF800008AF80000605874
:1057800016BF6058400DC008186061580B9BC1F3EC
:105790004001197079680C9B090A197079680D9B92
:1057A00001F00F01197016B17B681B0C3380BE68C5
:1057B000FB68C6F307216970C6F30741A970C3F3FC
:1057C00007212E702B71C6F307666971C3F3074179
:1057D000C3F30763EE70A971EB711AB1414620461D
:1057E000FFF79BFF484602B0BDE8F087024A136806
:1057F00043F001031360704708300240014B18600A
:105800001868704700300240002310B5044A8B42EC
:1058100001DB106810BD50F8234001331460F6E737
:1058200000300240014B1888704700BFE0F7FF1FAF
:1058300014230022013903FB01039A60DA601A6124
:105840005A610F234268890003FA01F11143416054
:1058500070470139890002FA01F14160704701394E
:105860000368890002FA01F1194214BF01200020E7
:10587000704710B54C1E1421614308300C5824F4B5
:1058800040640C500B5813430B5010BD10B54C1E08
:105890001421614308300C5824F440740C500B5808
:1058A00013430B5010BD4B1E1421594308300B58A5
:1058B00043F080030B5070474B1E142159430830AE
:1058C0000B5843F020030B500B5823F480430B502C
:1058D00070474B1E1421594308300B5843F01003F6
:1058E0000B5070474B1E1421594308300B5843F09E
:1058F00001030B5070474B1E1421594308300B58BD
:1059000023F001030B5070471423013903FB0100FE
:105910008368DB0758BF026170471423013903FB1A
:1059200001008368DB0758BF426170474B1E14219A
:1059300059430C30085880B270474B1E142159430C
:105940000C300A5070470000064B10B51C68FFF77A
:1059500069FFB0F5007F82BF034B1868044304F071
:10596000350010BD0C2002404C20024038B50446E2
:105970000D4600F081F8FFF755FFB0F5007F18D90C
:105980000E4B9C4215D90E4A136843F00103136075
:10599000258000F071F8FFF745FFB0F5007F0AD9C8
:1059A000064B9C4207D9064A136823F00103136093
:1059B00038BD044AE8E7034AF6E700BFFFFF0708DF
:1059C000502002401020024010B5044600F054F868
:1059D000FFF728FFB0F5007F1DD9134B9C421AD961
:1059E000124B1A6842F002021A60114A14601A68D7
:1059F00042F040021A6000F03FF8FFF713FFB0F5E5
:105A0000007F0FD9084B9C420CD9084A136823F039
:105A10000203136010BD074B1A6842F002021A60BD
:105A2000054AE3E7034AF1E7FFFF07085020024079
:105A3000542002401020024014200240034A136800
:105A400023F0070303431360704700BF00200240A8
:105A5000034B044A1A6002F188321A60704700BF93
:105A60000420024023016745024A136843F0800383
:105A7000136070471020024008B5FFF765FFC307A9
:105A8000FBD408BD38B505460C4689B2FFF76EFF5A
:105A9000210CA81CBDE83840FFF768BF2DE9F04194
:105AA0004FF00F0C00250768466843FA05F4E40739
:105AB0001CD5072D94BFBE46B646ACB24FEA84044F
:105AC0008ABF203CA4B2A4B20CFA04F82EEA08085B
:105AD00004F1020E02FA0EFE01FA04F44EEA040486
:105AE00044EA0804072D94BF274626460135102DA9
:105AF000DBD107604660BDE8F0810000034A13680F
:105B000023F0E0630B43034313607047040001403C
:105B100001617047090401617047C36801EA03022B
:105B200021EA030141EA0241016170474AF6AA22D3
:105B3000014B1A60704700BF00300040024A1368F2
:105B400043F080731360704700100240062822D88B
:105B5000DFE800F004090E13181D1F000F4B186832
:105B6000C0F3406070470D4B1868C0F3C0607047C9
:105B70000A4B1868C0F340707047084B1868C0F3B0
:105B800040407047054B1868C0F340007047044B15
:105B9000F9E7044BF7E70020704700BF0010024010
:105BA0002010024024100240024608B51046FFF7BC
:105BB000CDFF0028FAD008BD06280CD8DFE800F099
:105BC00004060C11161B1D00FFF7B8BF0C4A136822
:105BD00043F0806313607047094A136843F08053B1
:105BE000F8E7074A136843F48033F3E7044A13687D
:105BF00043F00103EEE7034AF9E7034AF7E700BF82
:105C0000001002402010024024100240034A136892
:105C100023F0030303431360704700BF04100240E6
:105C2000034A136823F4701343EA804313607047F8
:105C300004100240034A136823F4803343EA00430C
:105C40001360704704100240034A136823F40033C2
:105C500043EA40431360704704100240024B186847
:105C600000F40040704700BF20100240024A136851
:105C700043F40043136070472010024006283DD8CB
:105C8000DFE800F037373726370415001C4B1A6859
:105C900042F001021A601A689007FCD51A6822F4D3
:105CA00040721A601A6842F480721A607047154B8D
:105CB0001A6842F001021A601A689107FCD5104B6D
:105CC0001A6822F440721A601A6842F40072ECE713
:105CD0000D4B1A6842F480321A601A689203FCD5A0
:105CE000074B1A6822F440721A601A6842F4407234
:105CF000DBE7034A136823F440731360704700BF67
:105D0000201002402410024000100240034A136891
:105D100023F4404343EA8033136070470410024089
:105D2000034A136823F4605343EAC02313607047A7
:105D300004100240034A136823F4E06343EA00239B
:105D40001360704704100240034A136823F0F00305
:105D500043EA0013136070470410024008B50420A2
:105D6000FFF72AFF0420FFF71FFF0020FFF74EFF79
:105D70000320FFF721FF0320FFF716FF0120FFF7A5
:105D800045FF0020FFF7E0FF0320FFF7BFFF0420DF
:105D9000FFF7D0FF0020FFF7C3FF0220FFF74EFE02
:105DA0000720FFF73DFF0120FFF744FF0020FFF72A
:105DB0004BFFFFF7C3FE0020FFF7F6FE0220FFF7C0
:105DC00025FF044B044A05491360054A1160054A42
:105DD000136008BD00A24A042C06002000512502D1
:105DE00030060020340600200122430903F18043DD
:105DF00003F50433196800F01F0002FA00F00843AD
:105E0000186070470122430903F1804303F504330E
:105E1000196800F01F0002FA00F0014319601A68C7
:105E200022EA000018607047044B1A689206FCD5FD
:105E30001A6842F010021A60704700BF0428004040
:105E4000044B1A6822F010021A601A689206FCD5F8
:105E5000704700BF0428004038B5044600254FF4C1
:105E60006770FFF7C1FF40F29B30FFF7BDFF00F006
:105E70001BFB2046FFF702FF0D4C0E4B1D602560FB
:105E8000FFF7F4FEFFF7D0FF0B4B0C4A1D605D607F
:105E90001D615D614FF6FF7313605360FFF7D0FF24
:105EA000236823F00803236023681B07FCD538BD53
:105EB0000428004000280040082800402028004016
:105EC00008B5FFF7B1FF054B82B2C0F303401A607B
:105ED00043F8040CBDE80840FFF7B2BF0C280040AF
:105EE000034B186804331B6843EA0040704700BF47
:105EF0001828004008B5FFF797FF044B020C80B24A
:105F00001A605860BDE80840FFF79ABF18280040A3
:105F100008B54FF46770FFF767FF40F29B30FFF75B
:105F200063FF00F0C1FA064B1A6822F008021A60FB
:105F30001A681107FCD51A689206FCD508BD00BF87
:105F40000428004038B505464FF467700C46FFF74B
:105F50004BFF40F29B30FFF747FFFFF77FFE18B182
:105F6000BDE83840FFF7D4BF2846FFF775FF20464D
:105F7000BDE83840FFF7A4BFC3680B43C360704758
:105F800003690B4214BF012000207047C94301611F
:105F90007047036843F0800303607047036823F091
:105FA000100303607047036843F001030360704708
:105FB000036823F001030360704781627047C16288
:105FC000704706297AD8DFE801F0047933796379DC
:105FD0009200836923F0030383618369836183698A
:105FE00023F070038361072A68D8DFE802F03304E6
:105FF000090D1115191D836943F010038361704762
:10600000836943F02003F9E7836943F03003F5E740
:10601000836943F04003F1E7836943F05003EDE700
:10602000836943F06003E9E7836943F07003E5E7C0
:10603000836923F44073836183698361836923F4F3
:10604000E0438361072A39D8DFE802F004060A0E2C
:1060500012161A1E8369D1E7836943F48053CDE792
:10606000836943F40053C9E7836943F44053C5E7A8
:10607000836943F48043C1E7836943F4A043BDE7E8
:10608000836943F4C043B9E7836943F4E043B5E768
:10609000C36923F00303C361C369C361C36923F008
:1060A0007003C361072A09D8DFE802F03304090D41
:1060B0001115191DC36943F01003C3617047C3690B
:1060C00043F02003F9E7C36943F03003F5E7C36900
:1060D00043F04003F1E7C36943F05003EDE7C369C0
:1060E00043F06003E9E7C36943F07003E5E7C36980
:1060F00023F44073C361C369C361C36923F4E043FC
:10610000C361072ADAD8DFE802F004060A0E121685
:106110001A1EC369D1E7C36943F48053CDE7C3694D
:1061200043F40053C9E7C36943F44053C5E7C36967
:1061300043F48043C1E7C36943F4A043BDE7C369A7
:1061400043F4C043B9E7C36943F4E043B5E7062924
:1061500009D8DFE801F0041509190D1D1100036AC3
:1061600023F0020303627047036A23F02003F9E778
:10617000036A23F40073F5E7036A23F40053F1E79D
:10618000036A23F00803EDE7036A23F08003E9E7DD
:10619000036A23F40063E5E7062909D8DFE801F084
:1061A000041509190D1D1100036A43F0020303626F
:1061B0007047036A43F02003F9E7036A43F400736E
:1061C000F5E7036A43F40053F1E7036A43F0080379
:1061D000EDE7036A43F08003E9E7036A43F40063F1
:1061E000E5E706290CD8DFE801F0040B060B080BE5
:1061F0000A004263704782637047C263704702645B
:10620000704743690B4343617047406A704741627E
:10621000704703291CD8DFE801F0020B131C8369C7
:1062200023F0F0038361836943EA021282617047BD
:10623000836923F470438361836943EA0232F5E79B
:10624000C36923F0F003C361C36943EA0212C26168
:106250007047C36923F47043C361C36943EA0232E0
:10626000F5E701F0FD03012B02F0030204D1531EF8
:10627000012B98BF82F0030203291AD8DFE801F04E
:10628000020A121A836923F00303836183691A43A4
:1062900082617047836923F440738361836943EAB1
:1062A0000222F5E7C36923F00303C361C3691A43FC
:1062B000C2617047C36923F44073C361C36943EA91
:1062C0000222F5E78B000121026A99401143016225
:1062D0007047836819B143F400438360704723F427
:1062E0000043FAE7836823F0070383608368194358
:1062F00081607047836823F070038360836819436B
:1063000081607047064A074B90421B6804BF064BEA
:106310001B6803EB5103B3FBF1F18160704700BFD1
:10632000003801403006002034060020C3680829E8
:106330000CBF23F4805343F48053C3607047036958
:1063400023F440530B4303617047C36823F4C063D5
:106350000B43C3607047C36823F00C030B43C36057
:106360007047436923F440730B4343617047C3682C
:1063700043F40053C360704738B504460D4600F03F
:1063800018F829462046BDE8384000F00AB84369AD
:1063900043F0400343617047436943F08003436126
:1063A0007047C1F30801416070474068C0F30800BE
:1063B000704703681B06FCD5704703680B4214BF87
:1063C000012000207047FEE77047000038B5184AEA
:1063D000184B19498B4217D30021184A934218D3FE
:1063E000174A184C1368184D43F400731360AC42FD
:1063F00012D3164C164DAC4212D3FBF77DF8154C58
:10640000154DAC4210D338BD52F8040B43F8040BC1
:10641000E0E743F8041BE1E754F8043B9847E6E75C
:1064200054F8043B9847E6E754F8043B9847E8E7FC
:10643000B4840008000000203806002090070020E7
:1064400014ED00E0A8840008A8840008A8840008CF
:10645000B4840008B4840008B4840008014B024AE4
:106460001A60FEE70CED00E00400FA050122430982
:106470009B0003F1604300F01F0003F5614302FA43
:1064800000F0186070470000432893BF00F160409F
:10649000044B00F00F0000F564408CBFC154017044
:1064A000704700BF14ED00E0024A136843F48073A4
:1064B000136070470070004070B54FF0FF0C4CF453
:1064C000E06C1CEA11541DBF1CEA135594EA0C0F32
:1064D00095EA0C0F00F0DEF82C4481EA030621EA6D
:1064E0004C5123EA4C5350EA013518BF52EA0335A8
:1064F00041F4801143F4801338D0A0FB02CE4FF05A
:106500000005E1FB02E506F00042E0FB03E54FF089
:106510000006E1FB03569CF0000F18BF4EF0010E81
:10652000A4F1FF04B6F5007F64F5407404D25FEA7D
:106530004E0E6D4146EB060642EAC62141EA555130
:106540004FEAC52040EA5E504FEACE2EB4F1FD0C72
:1065500088BFBCF5E06F1ED8BEF1004F08BF5FEAF0
:10656000500E50F1000041EB045170BD06F00046A2
:1065700046EA010140EA020081EA0301B4EB5C044F
:10658000C2BFD4EB0C0541EA045170BD41F4801147
:106590004FF0000E013C00F3AB8014F1360FDEBF6C
:1065A000002001F0004170BDC4F10004203C35DA48
:1065B0000C341BDC04F11404C4F1200500FA05F3CB
:1065C00020FA04F001FA05F240EA020001F000426C
:1065D00021F0004110EBD37021FA04F642EB0601E2
:1065E0005EEA430E08BF20EAD37070BDC4F10C040C
:1065F000C4F1200500FA04F320FA05F001FA04F2D0
:1066000040EA020001F0004110EBD37041F10001BB
:106610005EEA430E08BF20EAD37070BDC4F12005C6
:1066200000FA05F24EEA020E20FA04F301FA05F22E
:1066300043EA020321FA04F001F0004121FA04F2D6
:1066400020EA020000EBD3705EEA430E08BF20EAA6
:10665000D37070BD94F0000F0FD101F000464000E0
:1066600041EB010111F4801F08BF013CF7D041EA62
:10667000060195F0000F18BF704703F00046520066
:1066800043EB030313F4801F08BF013DF7D043EA37
:106690000603704794EA0C0F0CEA135518BF95EAED
:1066A0000C0F0CD050EA410618BF52EA4306D1D174
:1066B00081EA030101F000414FF0000070BD50EA93
:1066C000410606BF1046194652EA430619D094EA1D
:1066D0000C0F02D150EA013613D195EA0C0F05D107
:1066E00052EA03361CBF104619460AD181EA03015B
:1066F00001F0004141F0FE4141F470014FF0000013
:1067000070BD41F0FE4141F4780170BD81F000415F
:1067100002E000BF83F0004330B54FEA41044FEA86
:10672000430594EA050F08BF90EA020F1FBF54EA21
:10673000000C55EA020C7FEA645C7FEA655C00F0BD
:10674000E2804FEA5454D4EB5555B8BF6D420CDD8E
:106750002C4480EA020281EA030382EA000083EA11
:10676000010180EA020281EA0303362D88BF30BDB1
:1067700011F0004F4FEA01314FF4801C4CEA113107
:1067800002D0404261EB410113F0004F4FEA033366
:106790004CEA133302D0524263EB430394EA050FF1
:1067A00000F0A780A4F10104D5F1200E0DDB02FA60
:1067B0000EFC22FA05F2801841F1000103FA0EF2F4
:1067C000801843FA05F359410EE0A5F120050EF1BA
:1067D000200E012A03FA0EFC28BF4CF0020C43FAEB
:1067E00005F3C01851EBE37101F0004507D54FF0F8
:1067F000000EDCF1000C7EEB00006EEB0101B1F548
:10680000801F1BD3B1F5001F0CD349085FEA30008D
:106810004FEA3C0C04F101044FEA445212F5800F98
:1068200080F09A80BCF1004F08BF5FEA500C50F135
:10683000000041EB045141EA050130BD5FEA4C0C18
:10684000404141EB0101013C28BFB1F5801FE9D275
:1068500091F0000F04BF01460020B1FA81F308BF98
:106860002033A3F10B03B3F120020CDA0C3208DD64
:1068700002F1140CC2F10C0201FA0CF021FA02F13F
:106880000CE002F11402D8BFC2F1200C01FA02F1AF
:1068900020FA0CFCDCBF41EA0C019040E41AA2BFD4
:1068A00001EB0451294330BD6FEA04041F3C1CDA9C
:1068B0000C340EDC04F11404C4F1200220FA04F0BC
:1068C00001FA02F340EA030021FA04F345EA030166
:1068D00030BDC4F10C04C4F1200220FA02F001FA28
:1068E00004F340EA0300294630BD21FA04F02946AA
:1068F00030BD94F0000F83F4801306BF81F4801143
:106900000134013D4EE77FEA645C18BF7FEA655CB5
:1069100029D094EA050F08BF90EA020F05D054EA87
:10692000000C04BF1946104630BD91EA030F1EBF8C
:106930000021002030BD5FEA545C05D14000494190
:1069400028BF41F0004130BD14F580043CBF01F583
:10695000801130BD01F0004545F0FE4141F4700169
:106960004FF0000030BD7FEA645C1ABF1946104644
:106970007FEA655C1CBF0B46024650EA013406BF45
:1069800052EA033591EA030F41F4002130BD00BF04
:1069900090F0000F04BF0021704730B54FF48064C1
:1069A00004F132044FF000054FF0000150E700BF42
:1069B00090F0000F04BF0021704730B54FF48064A1
:1069C00004F1320410F0004548BF40424FF000018E
:1069D0003EE700BF42004FEAE2014FEA31014FEAD1
:1069E00002701FBF12F07F4393F07F4F81F0605120
:1069F000704732F07F4208BF704793F07F4F04BF6B
:106A000041F40021704730B54FF4607401F0004547
:106A100021F000411CE700BF50EA010208BF7047A7
:106A200030B54FF000050AE050EA010208BF704798
:106A300030B511F0004502D5404261EB41014FF401
:106A4000806404F132045FEA915C3FF4D8AE4FF009
:106A500003025FEADC0C18BF03325FEADC0C18BFEC
:106A6000033202EBDC02C2F1200300FA03FC20FA3D
:106A700002F001FA03FE40EA0E0021FA02F114448A
:106A8000BDE600BF4FEA410212F5001215D211D542
:106A90006FF47873B3EB625212D94FEAC12343F01B
:106AA000004343EA505311F0004F23FA02F018BF9D
:106AB000404270474FF00000704750EA013005D166
:106AC00011F0004008BF6FF0004070474FF0000029
:106AD000704700BF4A0011D212F5001211D20DD535
